S016000052413245315F50726F6A656374382E7372656365
S3150000000028450020D5100000090F0000D11000007F
S31500000010D1100000D1100000D1100000D110000056
S31500000020000000000000000000000000D1100000E9
S31500000030D110000000000000D1100000D110000017
S31500000040FFFFFFFFFFFFFFFFFFFFFFFFFFFFFFFFBA
S31500000050FFFFFFFFFFFFFFFFFFFFFFFFFFFFFFFFAA
S31500000060FFFFFFFFFFFFFFFFFFFFFFFFFFFFFFFF9A
S31500000070FFFFFFFFFFFFFFFFFFFFFFFFFFFFFFFF8A
S31500000400FFFFFFFFDFCEFFFFFCFF0F00FFFF0F0028
S31500000410FCFF0F00FFFF0F00FCFF0F00FFFF0F00A8
S31500000420FCFF0F20FFFF0F20FCFF7F40FFFF7F40F8
S31500000430FCFF0D40FFFF0D40FFFFFFFF44F20800E9
S3150000044044F20803C2F20000C2F2000310B5834270
S3150000045005D040F20003C0F2000303B1984710BD77
S3150000046044F2080044F20803C2F20000C2F200039C
S315000004701B1A9A10D90F8918491010B529B140F2E4
S315000004800003C0F2000303B1984710BD10B544F253
S315000004902004C2F20004237873B9FFF7CFFF40F2BD
S315000004A00003C0F200032BB141F2F030C0F20000AD
S315000004B000E000BF0123237010BDC04640F20003D8
S315000004C0C0F2000310B54BB144F2240141F2F03002
S315000004D0C2F20001C0F2000000E000BFFFF7C0FF5B
S315000004E010BDC04641F2403144F2440010B5C0F29E
S315000004F00001C2F2000000F03FFA70B141F20C3385
S3150000050041F2343241F220301321C0F20003C0F22E
S315000005100002C0F2000000F0C3FC44F24400C2F244
S31500000520000000F00FF940F2E831142000F0BEFCA4
S3150000053044F2440040F2B041C2F2000000F008F973
S31500000540040070B141F20C3341F2343241F22030F2
S315000005501921C0F20003C0F20002C0F2000000F050
S315000005609FFC40F2E831142000F0A0FC44F2440065
S31500000570220040F22C11C2F2000000F03BF9C0B993
S3150000058044F24400012240F28431C2F2000000F03D
S3150000059031F9E8B141F20C3341F2343241F2203004
S315000005A01F21C0F20003C0F20002C0F2000000F0FA
S315000005B077FC41F20C3341F2343241F220301D21F6
S315000005C0C0F20003C0F20002C0F2000000F068FCB6
S315000005D0142040F2E83100F069FC44F24400C2F213
S315000005E0000000F091F970B141F20C3341F234325F
S315000005F041F220302321C0F20003C0F20002C0F213
S31500000600000000F04DFC40F2E831142000F04EFCF2
S31500000610FEE7C04610B538B94CF20003902201211E
S31500000620C4F27E03995410BD0228FCD141F29C31DC
S3150000063044F23C00C0F20001C2F2000000F076F87D
S31500000640F1E7C04610B5FFF74DFF002010BDC046CC
S31500000650F0B5DE4657464E464546E0B5EFF3108206
S31500000660012383F3108844F2980BC2F2000B5B4619
S315000006701B6833B940F60051C4F20401CB70403315
S31500000680CB705B4659461B6801330B6082F31088BA
S31500000690038800224BB380235B029946224B40F627
S315000006A0000440F2FF0C9846C4F204044368D100EB
S315000006B05B1861469F881E683B0A0F4049461B012E
S315000006C00E420AD0D91989008A4645460959294059
S315000006D055462951414631402951DB199B001E518F
S315000006E00132018893B29942E0D8EFF310820123D8
S315000006F083F310885B461B6823B15B4659461B682B
S31500000700013B0B605B461B6833B940F60051C4F2EF
S315000007100401CB708033CB7082F31088F0BCBB46EB
S31500000720B246A946A046F0BDFFFFFEFF45F25423A0
S3150000073010B5C5F24F0303600800FFF789FF0020DC
S3150000074010BDC0468368C26800205A607047C04624
S3150000075010B583684C1E9C6643681B782BB983686A
S31500000760490801395965836899658268D36ADB0748
S3150000077007D45466AA228368D2031A648368C268BF
S31500000780DA60002010BDC04610B5002801DB00F07D
S31500000790F5FB10BD70B5554255418C6E013425B937
S315000007A0A24202D2013A1A6070BD049D496BED0760
S315000007B00CD50078C902C90E03280CD901200909F5
S315000007C0884382B180B903225A60EDE70078C906F2
S315000007D0C90E0328F2D80C20014004394842414191
S315000007E0C8B2002AEED110B902225A60DCE7002C0A
S315000007F0FAD0E8E70323F0B5D6464F4646461340FF
S315000008001400012299460023C0B5866884B052427E
S315000008100292039307000A00406802AB8A460094DE
S315000008203100FFF7B7FF336B039A984692B902205F
S315000008302307DB17034002990233204227D0180012
S315000008401230800030184160B86813339B00C3181B
S315000008505960BE68630623D58023316CDB030B43E6
S3150000086033644B46012B2FD04146254BBE681940B9
S315000008700B001104194388464B46F3B94346002042
S31500000880336304B0E0BCBA46B146A846F0BD4B445B
S315000008901D001235AD0075196960BE686306DBD4AC
S315000008A04B46012B28D04146154B19400B0011042D
S315000008B019438846022CDFD172B943461149120604
S315000008C00B401A439046D9E743460E4912060B40A1
S315000008D01A439046BE68D1E7012352463100786834
S315000008E0009302ABFFF756FF4346039A05491206EB
S315000008F00B401A439046C1E7022CDED1DCE7C04626
S31500000900FFFFFCFFFFFFFFFC70B5122543680400E4
S315000009105D57DE69002D09DB280000F01DFB44F25F
S315000009209C030022C2F20003AD00EA502423F556D0
S31500000930002D09DB280000F00FFB44F29C03002287
S31500000940C2F20003AD00EA502523F556002D09DB5F
S31500000950280000F001FB44F29C030022C2F20003CF
S31500000960AD00EA500023A268E16823609160A268A6
S315000009700020536370BDC046F0B5CE46474680B5ED
S315000009800D000B7C01210A009A40C2605A1E934159
S3150000099040F28072C0F24002944600224560037421
S315000009A02B7C040063441B0283606B6985B0436142
S315000009B0AB698261C361EE69EFF3108881F3108839
S315000009C040F21F0C2B7C46F6FC71581E8341604694
S315000009D0C4F204015B42CF688343213B3B40CB60BA
S315000009E0CB6888F310884AF20051A3681960A3689F
S315000009F0DA62A368DA63A3689A642B7A6A6829784C
S31500000A005B081B06013A032902D1802149020B43E8
S31500000A10A168CB628023A1681B060B61A1684B61AC
S31500000A20A1688B610023A1684B62A1688B62A168F3
S31500000A30B069C861A168F0690862A16801208A6688
S31500000A40A16840424A6600212A7802900391B76B5A
S31500000A50002A00D0A2E0A26840F2010990460321D4
S31500000A606B685B08013B029340464365A06883655B
S31500000A702878032803D9A068C365A0680366B36B0A
S31500000A8013BB3378E3B12A78737890469A0194467B
S31500000A9042461801022A00D1B6E0032A00D1B7E087
S31500000AA01A005342534140F2020842465B429343C6
S31500000AB0093362463B4340F20017134303431F4387
S31500000AC0B378002B00D07EE040F2300C6368D86922
S31500000AD06346C35CDA0707D5A36898464246836A2D
S31500000AE0013BD3646346C35C9B0705D5A3689C465C
S31500000AF06246C36A013B13650023A0688363A0684E
S31500000B008446882062461350B36B3BB9203367385E
S31500000B10F35C305C5B03400703431F433023AA2288
S31500000B20F35CD203581E834100209446CFF6FB7037
S31500000B305B420340A068634403642B78012B04D115
S31500000B400023A068C364A06803654A461220A36810
S31500000B505F63A3681963A3681A63A368E268DA602F
S31500000B60697C22002856FFF70FFE2223F15C023330
S31500000B70F0562200FFF708FE2323F15C0233F056FD
S31500000B802200FFF701FE45F254030020C0F247039E
S31500000B90236005B0C0BCB946B046F0BDA168884622
S31500000BA0012A2BD0EA686068009302ABFFF7F2FDDA
S31500000BB0039901200A0409060A430321114302434B
S31500000BC09146029B50E72A78F378944618019A01D9
S31500000BD010436246022A19D0032A1BD01A00534238
S31500000BE0534140F2020C62465B429343093303438E
S31500000BF01B043B4380277F041F4365E7012340F224
S31500000C00010903215B422FE7092352E70923EEE797
S31500000C1003234EE70323EAE74EF20002AA2110B5AA
S31500000C20C4F2010204282ED0535CDB06DC0F002B35
S31500000C30FADB54544EF20002AA21C4F20102535CBC
S31500000C40002BFCD1A033D35C98421BD03623D35C57
S31500000C503BB94EF200023C21C4F20102535CDB07B1
S31500000C60FCD54EF20002A021C4F20102535CDB0661
S31500000C70FCD450544EF20002A021C4F20102535C8F
S31500000C80DB06FCD410BD535CDB06FCD401235354B5
S31500000C904EF20002AA21C4F20102535CDB06FCD428
S31500000CA0F0E7C0464EF20003262244F20801C4F2E1
S31500000CB00103985C1B6A8000C2F2000141585B0187
S31500000CC05B0F44F22412D940C2F200021160704751
S31500000CD07047C0464EF2000340F2FE325749C4F256
S31500000CE0010370B599524CF20002002043F6C87118
S31500000CF0C4F27E02505444F2080446F60042C2F2A0
S31500000D000004C0F2DC22226041F20022C0F27A0224
S31500000D10626048F2000241F60031A260226126229A
S31500000D20C0F2B701E160995C1A6A89006158520104
S31500000D30520F44F22415D14040F21342C2F200058C
S31500000D40296098540921A222995440F280429A5C63
S31500000D502AB940F281429B5C9B07002B68D04EF279
S31500000D60000640F28043C4F20106F25C002A53D02A
S31500000D704EF20003002240F28141C4F201035A54AC
S31500000D8001395A544EF20002A023C4F20102D35C88
S31500000D90CBB13623D35C1BB93C21535CDB07FCD5B6
S31500000DA04EF20002A021C4F20102535CDB06D80F0A
S31500000DB0002BFADB50544EF20002A021C4F20102CD
S31500000DC0535CDB06FCD44EF2000600223223C4F24A
S31500000DD00106F2543C32B35C1B07FCD540F200130B
S31500000DE003223362DA3BF254F25C336A9200A25871
S31500000DF05B015B0FDA4001202A60FFF70DFF40F22E
S31500000E00FE330F4A0121F2524CF2000343F6C87238
S31500000E10C4F27E03995470BD0132F2540121C820F8
S31500000E2000F044F840F28042B35C012BFCD19FE70E
S31500000E3040F2E830FFF74CFFA4E7C04603A5FFFFEA
S31500000E4000A5FFFF70B544F2000428230025C4F274
S31500000E500404E5540121C82000F028F824232422A4
S31500000E60E554A35C002BFCD10221A35C24200B4398
S31500000E70A35444F20002C4F20402135C9B07D90F88
S31500000E80002BFADB2223D15444F200022221C4F2C1
S31500000E900402535C002BFCD170BDC0467047C046AF
S31500000EA000BEFEE701380028FCD1704744F2241248
S31500000EB04CF6002370B54143C2F200021468C3F633
S31500000EC09A330D00B3FBF4F4080040F2E832002335
S31500000ED0002100F0A7F931B9B0FBF4F0800808B1A1
S31500000EE0FFF7E0FF70BDA000B5FBF0F040F2E8327E
S31500000EF00023002100F096F90029F0D0012040429D
S31500000F00FFF7D0FFEEE7C04646F2000340F220129C
S31500000F1070B500240126C4F200039D5A20329B5A64
S31500000F201D402B00E3401E420AD044F26402C2F286
S31500000F3000029446A30063441B680BB1E0B29847D5
S31500000F4001340D2CEDD146F2000340F23012C4F20A
S31500000F5000039D5270BDC0461F21012201408A40F8
S31500000F604EF2001143092033CEF200019B005A5085
S31500000F70BFF34F8FBFF36F8F7047C046F0B5C646BD
S31500000F8090464EF20012FF240325CEF2000294464C
S31500000F90220040F200370540ED008901AA400C40CE
S31500000FA0AC4083089B0000B56344DE59810096433C
S31500000FB02643DE5144F29C034246C2F200035A50D5
S31500000FC0030046F20002C033C4F200029B009958A7
S31500000FD00C4C214099509B58BFF35F8F1F22012371
S31500000FE0024093404EF20012CEF20002944640F2C6
S31500000FF080124009800060448350036080BCB8467C
S31500001000F0BDC046FFFFFEFF46F200000023C4F21B
S31500001010000041F2C832C0F200029A1812781AB1E2
S315000010201900C03189000A500133202BF1D17047D5
S3150000103030B5EFF31081012383F3108844F21C13BB
S315000010404000C2F200031A5A1AB11A5A013A92B271
S315000010501A521B5A83B94EF2000241F2E83340F2AB
S31500001060FE34C4F20102C0F20003155B185A044BA9
S315000010702B4383439BB2135381F3108830BDC04684
S3150000108000A5FFFF70B5EFF31081012383F31088ED
S3150000109044F21C124000C2F20002135A83B94EF207
S315000010A0000441F2E83540F2FE36C4F20104C0F213
S315000010B00005A35B2D5A2B434AF200552B43A3533D
S315000010C0135A01339BB2135281F3108870BDC04688
S315000010D000BE704710B500F003F8FFF7B3FAFEE75D
S315000010E0F0B54EF6005340F20005CEF20003C0F212
S315000010F0000583B09D600020FFF78CFAFFF7EAFD3C
S315000011006B460027DC1D277001202378FFF7BAFF06
S31500001110EFF31081012686F3108846F6FC73C4F2BD
S3150000112004039A683C4802409A609A6881F31088E2
S3150000113040F60001C4F204010A68D207D20F2270F9
S315000011400A68D207D20F22700A68D207D20F22701D
S31500001150EFF3108186F310888022986852050243C7
S315000011609A609B6881F310880120FFF761FF0120D8
S31500001170FFF750FA40F60053284AC4F200039F8056
S315000011801A802A68264941F2000051189960DA60EF
S3150000119046F2000240F22011C4F20002505244F21C
S315000011A0281244F22000C2F20002C2F200009E8021
S315000011B00021121A00F064F844F2000044F208021A
S315000011C041F2F431C2F20000C2F20002121AC0F279
S315000011D0000100F05DF844F2000544F20403C2F297
S315000011E00005C2F200035B1B9E10002B05DD0024E8
S315000011F008CD01349847A642FADCFFF753FDFFF706
S3150000120021FE0220FFF706FAFFF7FEFE0020FFF799
S3150000121045FE03B0F0BDC046FFFFFFEF00A5FFFF90
S3150000122000FCFFFFF0B54FF6FF750400CE462C40DC
S31500001230474615400E002900994680B5130C070055
S31500001240000C61434543584363430C0C5B19E41897
S315000012508C46A54203D980235B0298464044230C62
S3150000126061461B184FF6FF700840494656437943BE
S31500001270240489192018C918C0BCB946B046F0BD67
S3150000128003008218934200D1704719700133F9E7C1
S31500001290002310B59A4200D110BDCC5CC454013372
S315000012A0F8E7FFFF4275696C74207769746820520D
S315000012B0656E6573617320416476616E6365642053
S315000012C0466C657869626C6520536F6674776172E7
S315000012D065205061636B6167652076657273696F1F
S315000012E06E20352E352E3000352E352E300000007E
S315000012F000000505F8B5C046F8BC08BC9E46704718
S31500001300F8B5C046F8BC08BC9E4670474653505FC9
S3150000131053554343455353203D3D206572720000AB
S315000013202E2E2F7372632F68616C5F656E747279EF
S315000013302E6300FF68616C5F656E74727900FFFF53
S3150000134000000000E02E0000000000007017000002
S3150000135008FFDF000000000000000000601300002E
S315000013600100010000000000000000000000000075
S315000013700000000000000000000000000000000067
S315000013800000FFFFDFDF000000000000000000009B
S315000013900000000000000000000000000400000043
S315000013A0A813000000000000000001030001000077
S315000013B00000010301010000000001000801000017
S315000013C00000010000030000000000000000000013
S315000013D00000000000000000000000000000000007
S315000013E000000000000000000100020008001000DC
S309000013F000000000F3
S30D000013F4BD0400008D04000099
S31501010018FFFFFFFFFFFFFFFFFFFFFFFFFFFFFFFFE0
S31101010028FFFFFFFFFFFFFFFFFFFFFFFFD0
S705000010D515
