S017000052413245315F50726F6A65637431392E7372656332
S31500000000A8680020CD1400009D120000C91400004D
S31500000010C9140000C9140000C9140000C914000066
S31500000020000000000000000000000000C9140000ED
S31500000030C914000000000000C9140000C914000023
S3150000004000000000510E0000510E0000AD0E000031
S31500000050390A0000B5090000C50A0000F90A0000C7
S31500000060000000000000000000000000000000008A
S31500000070000000000000000000000000000000007A
S31500000080000000000000000000000000000000006A
S31500000090000000000000000000000000000000005A
S315000004003DFFFFFFDFCEFFFFFCFF0F00FFFF0F00EA
S31500000410FCFF0F00FFFF0F00FCFF0F00FFFF0F00A8
S31500000420FCFF0F20FFFF0F20FCFF7F40FFFF7F40F8
S31500000430FCFF0D40FFFF0D40FFFFFFFF44F2F810E9
S3150000044044F2F813C2F20000C2F2000310B5834270
S3150000045005D040F20003C0F2000303B1984710BD77
S3150000046044F2F81044F2F813C2F20000C2F200039C
S315000004701B1A9A10D90F8918491010B529B140F2E4
S315000004800003C0F2000303B1984710BD10B544F253
S315000004901024C2F20004237873B9FFF7CFFF40F2AD
S315000004A00003C0F200032BB146F20440C0F2000084
S315000004B000E000BF0123237010BDC04640F20003D8
S315000004C0C0F2000310B54BB144F2142146F20440C9
S315000004D0C2F20001C0F2000000E000BFFFF7C0FF5B
S315000004E010BDC0460379022B05D144F22E2301220A
S315000004F0C2F200031A707047F0B5CE46474680B583
S31500000500914683B0002A20DD884644F2302644F224
S315000005102E240D000027C844C2F20006C2F20004D1
S31500000520002344F23C20EB56012201A9C2F200004E
S31500000530019300F0DFF8306000B100BE2378002B95
S31500000540FCD0013527704545EAD1484603B0C0BC0A
S31500000550B946B046F0BDC0460378022B07D02BB98A
S3150000056044F22C230122C2F200031A70704744F2AF
S315000005702D230122C2F200031A70F7E745F6C47173
S3150000058044F23C20F0B5C0F2000144F2302683B0BC
S31500000590C2F2000000F0FAF8C2F20006306070B154
S315000005A045F6747345F6B87245F688705221C0F266
S315000005B00003C0F20002C0F2000000F03BFE45F668
S315000005C09C70C0F2000001F0E3FD45F6F87144F2BC
S315000005D06C20C0F20001C2F2000000F015FB07001B
S315000005E0306000284AD144F26C20C2F2000000F0CC
S315000005F005FB44F2000144F26C20C2F20001C2F293
S31500000600000000F085FB44F26C200E21C2F20000CF
S3150000061000F0F8FB46F2200144F28420C0F200010B
S31500000620C2F2000000F052FC306044F28420C2F2B4
S31500000630000000F053FC4BF20003012144F22D248C
S31500000640C4F201031A69C2F200048A431A612378CC
S31500000650002BFCD044F2842001A9C2F200000197CD
S3150000066000F046FC05003060B8B945F6A470019963
S31500000670C0F2000001F028FD2570E8E745F6747326
S3150000068045F6B87245F688705A21C0F20003C0F2EA
S315000006900002C0F2000000F0CDFD45F6747345F689
S315000006A0B87245F688707721C0F20003C0F20002E6
S315000006B0C0F2000000F0BEFD10B538B94CF20003E0
S315000006C090220121C4F27E03995410BD0228FCD168
S315000006D046F2340144F23420C0F20001C2F20000B6
S315000006E000F080FCF1E7C04610B5FFF747FF002099
S315000006F010BDC0467B2330B5046AA5782B40A37095
S31500000700802483789B079B0FD21A0261CB18026A5A
S31500000710C360937823439370032382781340022B9C
S3150000072004D0036A0A78DA70002030BD0B884FF6D1
S315000007300061026A0B43D381F6E7C046F0B5C646B0
S3150000074000B50500806A84B08C4690466C46D8B1E8
S315000007502300060086CE86C336681E60EB691B78CA
S3150000076003606346836043460371EB6AC3606B6A4A
S315000007709847AB6A23B123CC23C31A0023681360BE
S3150000078004B080BCB846F0BD2000E7E743F600029F
S31500000790F0B5C646C0F200229446002600B50B7896
S315000007A0067063445B01C16103624B690D004362DD
S315000007B08B6903210122C362837886628B431343CC
S315000007C083706A780B2753425A41837801328B43F0
S315000007D013438370AB7A04009846EF57380000F055
S315000007E0DBFD380000F082FD380005272200414677
S315000007F000F08AFD2B79EF579846380000F0CCFDC3
S31500000800380000F073FD380007272200414600F04B
S315000008107BFDAB79EF579846380000F0BDFD3800F8
S3150000082000F064FD380009272200414600F06CFD07
S315000008302B7AEF579846380000F0AEFD380000F0EE
S3150000084055FD22004146380000F05EFDEFF31087AB
S3150000085040F2010888F31088287846F6FC72844630
S31500000860802063460006D840C4F2040251688143E2
S315000008705160526887F310884346226A9670226A4E
S315000008801671226A5672226A9672226AD672226A93
S3150000089056832A78934040F207221A4203D0236AED
S315000008A0C83AFF3ADA740622236A1A772B7813B904
S315000008B0236A3F4A9A82AB78EA781B01D200134337
S315000008C06A78032A00D16FE051424A410F21524211
S315000008D08A43F232216ADBB20B70236AFF269A71D1
S315000008E00223EA69206A117B49000B4020214373E9
S315000008F090785378400101400020DB0133400B43E0
S31500000900216A087211780239012942D90326216A1F
S31500000910DBB2CB715268216A93784B700B785078B2
S31500000920B343304003430B70D37859368B74C87980
S315000009301378B04333400343CB7100230520E360B3
S3150000094023616361A361EE69033335781D40E36972
S31500000950185600F0FFFC0B20E369185600F0FAFC6D
S315000009600720E369185600F0F5FC0920E3691856DC
S3150000097000F0F0FC7023226A2B43937073890020E9
S31500000980238144F65513C5F24333636080BCB846F1
S31500000990F0BD216A4E701278022A01D10E3213433D
S315000009A0226ADBB2D371C8E73D321343B23291E714
S315000009B000F8FFFF10B5EFF30384103C64B220008B
S315000009C000F094FC44F2CC23A400C2F20003E058E9
S315000009D0C3691B699BB1036903B110BD026A7F231A
S315000009E091780B4004210B4393700023C360436A44
S315000009F0002BF2D080220021FFF7A0FEEDE703696D
S31500000A00026A002BEBD003238478C1682340022BB3
S31500000A100BD00B78D37082780369C1689207920F66
S31500000A209B1A8A180361C260D6E70B884FF60061ED
S31500000A300B43D381EFE7C04610B582B0EFF30384D2
S31500000A40103C64B2200000F051FC44F2CC23A40018
S31500000A50C2F20003E4580323A2781340022B0DD000
S31500000A60236A5979A369C9B2019183B9636A1BB133
S31500000A7004222000FFF762FE02B010BD40F2FF1113
S31500000A80236A1B8A1940A3690191002BEED09207B5
S31500000A90920F606901A901F0CDFCA37862699B07FA
S31500000AA09B0FD2186261A269D31AA361002BE3D10E
S31500000AB0636A002BE0D0012200212000FFF73EFEF2
S31500000AC0DAE7C04610B5EFF3038444F2CC23103CBA
S31500000AD064B2C2F20003A200D0587B23026A917866
S31500000AE00B409370436A1BB102220021FFF726FEDA
S31500000AF0200000F0FBFB10BD70B5EFF3038444F259
S31500000B00CC23103C64B2C2F20003A200D0580323E7
S31500000B1082781340022B19D0036A5979C9B2382258
S31500000B201D792A40ED0602D51D7FED070BD5382627
S31500000B301D79B5431D71436A0BB1FFF7FFFD200018
S31500000B4000F0D4FB70BD40252A43F0E740F2FF11C8
S31500000B50036A1A8A1140E2E7F8B5436844F20004D2
S31500000B601A782823C4F20404E25406000F00C820B1
S31500000B70012100F065FB24220121A35C8B43A354D1
S31500000B80A35CDB07DD0F002BFAD173681B78012B02
S31500000B9002D16585BB88A38544F200020021242387
S31500000BA0C4F20402D1542431535CDB09002BFBD17F
S31500000BB00220535C0343535444F200022420C4F23F
S31500000BC00402135C9B07D90F002BFADB2223D154B6
S31500000BD044F200022221C4F20402535C002BFCD131
S31500000BE024214020535C0343535444F20002C4F2D0
S31500000BF00402535C5B06FCD5F8BDC04610B54168DF
S31500000C00FFF7AAFF002010BD70B541604B690400D4
S31500000C10C3608B690D004361002303610372FFF714
S31500000C209BFF0F202856002803DB2200A97B00F03B
S31500000C306BFB0D202856002803DB2200297B00F0E1
S31500000C4063FB11202856002803DB2200297C00F0D4
S31500000C505BFB45F24343C0F252030020236070BDA4
S31500000C60F0B5C64644F20005242400B5C4F20405D6
S31500000C702C5DE406E40F84421DD000262E242E555A
S31500000C802E36AC5D002CFCD1012640F2100C242738
S31500000C9006403601B0466646EC5DB44346463443EC
S31500000CA0EC5544F200052426C4F20405AC5DE406C6
S31500000CB0E40F8442FAD1012811D03F2192010B4062
S31500000CC0134344F200022E20DBB2C4F204021139AF
S31500000CD05354115C8B42FCD180BCB846F0BD44F243
S31500000CE000042426C4F20404A55DAD06ED0F8D4272
S31500000CF0E3D02027A55D0840BD43400128432425B5
S31500000D00A055605D8006C00F8842FAD1D5E7C0467F
S31500000D1044F20002F8B524240125C4F20402135D4E
S31500000D20AB431355135DDB07FCD40A230E78B6FBE1
S31500000D30F3F7BD00ED196D00761B3C013443E4B2B8
S31500000D4094700E79B6FBF3F7BD00ED196D00761BB6
S31500000D503C013443E4B214710D7AB5FBF3F7BC00E1
S31500000D60E41964002D1B3F243E0135432C40947149
S31500000D700E7EB6FBF3F7BD00ED196D00761B3C0148
S31500000D803443E4B214720E7BB6FBF3F7BD00ED19E3
S31500000D906D00761B3C013443E4B294720C69013455
S31500000DA0E4B2B4FBF3F7BE00F61976003D01A41BCE
S31500000DB02C43E4B2147349696439C9B2B1FBF3F345
S31500000DC09D001C01EB185B00C91A2143CBB2D381ED
S31500000DD043681A786AB144F2000224210120C4F261
S31500000DE00402535C03435354535CDB07FCD50020D9
S31500000DF0F8BD98684368827841780078FFF730FF3D
S31500000E00E9E7C04644F2000270B522250F24C4F279
S31500000E100402565D0B01344023432224DBB25355B2
S31500000E20135D1B098B42FBD10421135D0B43135544
S31500000E3044F200022224C4F20402135D1942FCD0DB
S31500000E4043680F20185600F085FA002070BDC04692
S31500000E50F0B583B0EFF3038444F2CC23103C64B2C4
S31500000E60C2F20003A200D558EB68C3B16B682869CB
S31500000E705B7B6E465BB21B1B5A1E93415B009C4616
S31500000E8090B13200010088C988C2634603706B695D
S31500000E904360EB6898472B690BB103CE03C3200070
S31500000EA000F024FA03B0F0BD3000EEE710B5EFF322
S31500000EB0038044F2CC23103840B28200C2F2000311
S31500000EC0D35801221A7200F011FA10BD44F25443AD
S31500000ED0C4F65713036000207047C04644F200432F
S31500000EE00022C4F204031A70FF3200201A70704701
S31500000EF044F20043C4F204039A8843F6FF73134096
S31500000F0000200B607047C046F0B5DE4657464E4699
S31500000F104546E0B5EFF31082012383F3108844F2CF
S31500000F20C82BC2F2000B5B461B6833B940F6005172
S31500000F30C4F20401CB704033CB705B4659461B6844
S31500000F4001330B6082F31088038800224BB38023A1
S31500000F505B029946224B40F6000440F2FF0C98468D
S31500000F60C4F204044368D1005B1861469F881E687A
S31500000F703B0A0F4049461B010E420AD0D919890087
S31500000F808A46454609592940554629514146314028
S31500000F902951DB199B001E510132018893B29942F7
S31500000FA0E0D8EFF31082012383F310885B461B68B9
S31500000FB023B15B4659461B68013B0B605B461B68C9
S31500000FC033B940F60051C4F20401CB708033CB70C4
S31500000FD082F31088F0BCBB46B246A946A046F0BDD7
S31500000FE0FFFFFEFF45F2542310B5C5F24F03036021
S31500000FF00800FFF789FF002010BDC0464EF2000230
S31500001000AA2110B5C4F2010204282ED0535CDB06D7
S31500001010DC0F002BFADB54544EF20002AA21C4F274
S315000010200102535C002BFCD1A033D35C98421BD049
S315000010303623D35C3BB94EF200023C21C4F20102D6
S31500001040535CDB07FCD54EF20002A021C4F201027C
S31500001050535CDB06FCD450544EF20002A021C4F2CD
S315000010600102535CDB06FCD410BD535CDB06FCD4EA
S31500001070012353544EF20002AA21C4F20102535C2A
S31500001080DB06FCD4F0E7C0464EF20003262244F20B
S31500001090F811C4F20103985C1B6A8000C2F20001D9
S315000010A041585B015B0F44F25832D940C2F200024C
S315000010B0116070477047C0464EF2000340F2FE32A0
S315000010C05549C4F2010370B599524CF2000243F639
S315000010D0C8710120C4F27E02505444F2F81446F658
S315000010E00042C2F20004C0F2DC22226041F2002279
S315000010F0C0F27A02626048F2000241F60031A26054
S3150000110022612622C0F2B701E160995C1A6A890061
S3150000111061585201520F44F25835D140C2F20005CF
S31500001120296040F2134200219954A22209319954B0
S3150000113040F280429A5C2AB940F281429B5C9B074E
S31500001140002B63D04EF2000640F28043C4F2010643
S31500001150F25C002A4ED04EF20003002240F281419A
S31500001160C4F201035A5401395A544EF20002A5231F
S315000011700521C4F20102D154053BD35CCBB1362321
S31500001180D35C1BB93731535CDB07FCD54EF200024A
S31500001190A021C4F20102535CDB06D80F002BFADB58
S315000011A050544EF20002A021C4F20102535CDB0649
S315000011B0FCD44EF2000600223223C4F20106F25499
S315000011C03C32B35C1B07FCD540F2001303223362AA
S315000011D0DA3BF254F25C336A9200A2585B015B0F71
S315000011E0DA4001202A60FFF709FF40F2FE330B4A7E
S315000011F0F25270BD0132F2540121C82000F020F8ED
S3150000120040F28042B35C012BFCD1A4E740F2E83007
S31500001210FFF750FFA9E7C04603A5FFFF00A5FFFFA4
S3150000122044F2000328220021C4F2040399547047B3
S315000012307047C04600BEFEE701380028FCD1704763
S3150000124044F258324CF6002370B54143C2F2000214
S315000012501468C3F69A330D00B3FBF4F4080040F2A9
S31500001260E8320023002100F0D9F931B9B0FBF4F0DF
S31500001270800808B1FFF7E0FF70BDA000B5FBF0F0F5
S3150000128040F2E8320023002100F0C8F90029F0D02E
S3150000129001204042FFF7D0FFEEE7C04646F20003CA
S315000012A040F2201270B500240126C4F200039D5AB4
S315000012B020329B5A1D402B00E3401E420AD044F2C6
S315000012C09422C2F200029446A30063441B680BB149
S315000012D0E0B2984701340D2CEDD146F2000340F2FE
S315000012E03012C4F200039D5270BDC04646F20003A0
S315000012F0C0308000C4F20003C25802490A40C250FE
S31500001300C3587047FFFFFEFFF0B5C64690464EF243
S315000013100012FF240325CEF200029446220040F27A
S3150000132000370540ED008901AA400C40AC40830817
S315000013309B0000B56344DE59800096432643DE5188
S3150000134044F2CC234246C2F200031A5080BCB8468F
S31500001350F0BDC046030046F2000210B5C033C4F229
S3150000136000029B0099580B4C214099509B58BFF3A3
S315000013705F8F1F220123024093404EF20012CEF2ED
S315000013800002944640F28012400980006044835077
S31500001390036010BDFFFFFEFF1F21012201408A40AE
S315000013A04EF2001143092033CEF200019B005A5041
S315000013B0BFF34F8FBFF36F8F7047C04646F20000F2
S315000013C00023C4F2000046F26002C0F200029A183E
S315000013D012781AB11900C03189000A500133202B46
S315000013E0F1D1704730B5EFF31081012383F31088F4
S315000013F044F24C334000C2F200031A5A1AB11A5A88
S31500001400013A92B21A521B5A83B94EF2000246F2C0
S31500001410800340F2FE34C4F20102C0F20003155B01
S31500001420185A044B2B4383439BB2135381F3108802
S3150000143030BDC04600A5FFFF70B5EFF31081012354
S3150000144083F3108844F24C324000C2F20002135A71
S3150000145083B94EF2000446F2800540F2FE36C4F22D
S315000014600104C0F20005A35B2D5A2B434AF2005536
S315000014702B43A353135A01339BB2135281F31088A3
S3150000148070BDC04644F2543210B5C2F200020300E9
S31500001490106858B1032103338B4346F2A841C318A1
S315000014A0C2F200018B4207D8136010BD44F2A84077
S315000014B0C2F200001060EDE700F0A8FF0C23036005
S315000014C001204042F1E7C04600BE704710B500F06B
S315000014D003F8FFF709F9FEE7F0B54EF6005340F2C0
S315000014E00005CEF20003C0F2000583B09D60002027
S315000014F0FFF7E2F8FFF7E0FD6B460027DC1D2770DB
S3150000150001202378FFF798FFEFF31081012686F379
S31500001510108846F6FC73C4F204039A683C480240FD
S315000015209A609A6881F3108840F60001C4F20401BB
S315000015300A68D207D20F22700A68D207D20F227029
S315000015400A68D207D20F2270EFF3108186F3108853
S3150000155080229868520502439A609B6881F310883E
S315000015600120FFF73FFF0120FFF7A6F840F60053E2
S31500001570284AC4F200039F801A802A68264941F24D
S31500001580000051189960DA6046F2000240F220111C
S31500001590C4F20002505244F2A84244F21020C2F2B1
S315000015A00002C2F200009E800021121A00F0DCFE4A
S315000015B044F2000044F2F81246F20841C2F200007A
S315000015C0C2F20002121AC0F2000100F033FF44F228
S315000015D0F01544F2F413C2F20005C2F200035B1BDD
S315000015E09E10002B05DD002408CD01349847A64245
S315000015F0FADCFFF749FDFFF713FE0220FFF75CF860
S31500001600FFF7DCFE0020FFF713FE03B0F0BDC04677
S31500001610FFFFFFEF00A5FFFF00FCFFFFF0B54FF651
S31500001620FF750400CE462C40474615400E002900A3
S31500001630994680B5130C0700000C61434543584397
S3150000164063430C0C5B19E4188C46A54203D980232E
S315000016505B0298464044230C61461B184FF6FF7008
S315000016600840494656437943240489192018C91865
S31500001670C0BCB946B046F0BD1C2101231B049842EC
S3150000168001D3000C10391B0A984201D3000A08390D
S315000016901B09984201D30009043902A2105C4018C4
S315000016A07047C04604030202010101010000000068
S315000016B000000000F0B51F00002316008BB09F420B
S315000016C004DA802109067B181F002D23129A149D27
S315000016D01370202303229D43462D07D02B00453B44
S315000016E059424B411099013ACB18109309AB049318
S315000016F008AB0393139B00920293109B3200019355
S315000017003B0000F02FFF0400472D1AD1119BDB0789
S3150000171010D5109BC3180793002200233000390010
S3150000172002F068FC08B1079B09933022099B0799D0
S315000017308B421FD32000099B159A1B1B13600BB00D
S31500001740F0BD109BC3180793462DE5D10378302BC7
S315000017500BD1002200233000390002F04BFC20B9E7
S315000017600123109A9B1A139A1360139B079A1B68FE
S31500001770D318D0E7591C09911A70D7E7F7B52B2370
S315000017800270002901DA494202334370092926DD35
S315000017906B46DA1D15000A2791FBF7F63B007343EB
S315000017A0CB1A30331400013A13700B003100632B4F
S315000017B0F2DCA61E3031831C3170320019009542CE
S315000017C008D80022B54202D309326A44121B9B187C
S315000017D0181AFEBD177801320F700131EFE730237A
S315000017E030318370C170031DF2E7FFFFF0B597B08B
S315000017F00D000A921C9C0B93099000F0BDFD036836
S3150000180018000D9300F01FFE00230F9014932B7EFB
S3150000181007220C932B680E930E992368C90542D5AF
S315000018209B1893431A000832226001221E685F68E3
S315000018307B005B0811931096AE64EF6410981199C3
S31500001840A54B524204F08EFA00282ED11098119919
S315000018500122A14B524202F0DDFB30BB00220023E5
S315000018603000390002F0CCFB18B12B002D22433397
S315000018701A700C9B472B2AD8984F032300240E9AE4
S315000018802B6101339A432A600B9B29000093099828
S315000018900A9B15AA00F0E2F9013000D09EE0012073
S315000018A0404217B0F0BD0733BBE732003B003000C3
S315000018B0390004F057FA70B1002F03DA2B002D22FD
S315000018C043331A700C9B472B03D8854FD5E7854FBA
S315000018D0D3E7854FD1E720220C9C6B6894435A1CB2
S315000018E046D107336B6040F200430E9A0AA91343B0
S315000018F000222B60069214AA05920C9A0193049278
S3150000190013AA03922322521802926B6832000093A4
S3150000191009983B00FFF7CEFE139A0700472C2DD1FE
S31500001920D31C02DB6B689A4245DD0C9B023BDBB2A3
S315000019300C93280013990C9A013950301391FFF734
S315000019401DFF149A040013182B61012A02DC2A6871
S31500001950D20701D501332B6123230AAA9B181B78D2
S31500001960002B00D190E72B002D2243331A708BE712
S31500001970472CB8D1002BB6D10133B3E70C9B652BAE
S31500001980D7D90C9B662B18D16B68002A08DD2A6113
S3150000199013B92968C9070AD501339B182B6106E0DC
S315000019A01BB901222968114200D09A1C2A61139B97
S315000019B00024AB65D0E767230C931399149B9942D7
S315000019C006DB2B682961DB07F1D501312961EEE7DA
S315000019D001220029E1DC9218521ADEE72A68530533
S315000019E008D42B693A000A9909980B9CA047013044
S315000019F028D154E70C9B652B00D8DAE0A86CE96C7B
S31500001A000022002302F0F6FA98B30123374A0A9916
S31500001A1009980B9CA047013000D140E7149E139B08
S31500001A20B34202DB2B68DB070CD50B9C0F9B0D9A90
S31500001A300A990998A0470024013000D12FE7731EA8
S31500001A40A3420ADC2B689B0700D505E1159BE868D5
S31500001A50984200DB25E7180023E72A0001230A99AC
S31500001A6009980B9F1A32B847013000D117E70134A5
S31500001A70E5E7139B002B3BDC01231C4A0A990998D6
S31500001A800B9CA047013000D109E7149E139B3343FA
S31500001A9013B92B68DB07D5D50F9B0D9A0A990998C0
S31500001AA00B9CA0470023013000D1F8E60C93139B52
S31500001AB00C9A5B42934201DC330093E72A00012330
S31500001AC00A9909980B9C1A32A047013000D1E6E624
S31500001AD00C9B0133EAE7C046FFFFEF7F88600000FA
S31500001AE0906000008C600000946000009860000028
S31500001AF0149BAE6D0C939E4200DD1E00002E31DC61
S31500001B00F3430024DB1733400E93AE6D0E9BF31A9E
S31500001B10A34230DC139B0C9A9A4238DC2B68DB0715
S31500001B2035D4139C0C9B0C9A9B1B141B9C4200DD0A
S31500001B301C00002C34DCE3430026DB171C40139BFF
S31500001B400C9AD31A1B1BB34200DC7BE72A00012345
S31500001B500A9909980B9F1A32B847013000D19EE6C0
S31500001B600136ECE733003A000A9909980B9CA04726
S31500001B700130C5D193E62A0001230A9909980B9EE4
S31500001B801A32B047013000D189E60134BDE70F9B18
S31500001B900D9A0A9909980B9CA0470130C1D17EE69F
S31500001BA0BA1923000A9909980B9EB0470130C2D191
S31500001BB075E6149B0C93012B02DC01231A4238D0E4
S31500001BC001233A000A9909980B9EB047013000D1CB
S31500001BD065E60F9B0D9A0A9909980B9EB04701304E
S31500001BE000D15CE6A86CE96C0C9B0022013B0C93CF
S31500001BF0002302F0FFF9D0B90C9B7A1C0A990998C8
S31500001C000B9EB04701300ED149E62A0001230A99FE
S31500001C1009980B9F1A32B847013000D13FE60136CA
S31500001C200C9B9E42F1DB2A0023005032DBE60026A5
S31500001C30F6E73A00E2E72A0001230A9909980B9E83
S31500001C401932B047013000D129E60134EB68159A04
S31500001C509B1AA342EFDCF9E60024F7E7F7B5160076
S31500001C6001938A680B690C000090934200DA130016
S31500001C7022003360433212780AB10133336023689D
S31500001C809B0602D5336802333360226806231500AB
S31500001C901D401A4227D0230043331B785A1E934116
S31500001CA02268920630D4220001990098089D43329A
S31500001CB0A847013025D00622236800251340042BAF
S31500001CC005D13368E568ED1AEB43DB171D40A368C1
S31500001CD02269934201DD9B1AED180026B54220D1F8
S31500001CE0002010E00135E36832689B1AAB42D2DD72
S31500001CF02200012301990098089F1932B847013044
S31500001D00F0D101204042FEBD3020E1184331087079
S31500001D1021005A1C45310978A2184332023311704A
S31500001D20C1E72200012301990098089F1A32B8479B
S31500001D300130E6D00136D1E7F0B50E0089B0049245
S31500001D40039005930C00097E0E9A4336782907D82E
S31500001D50622909D8002900D1B7E0582900D1A0E0AE
S31500001D6025004235297022E0080063381528F7D887
S31500001D7002F026F916001F00F6FFF6FFF6FFF6FF43
S31500001D801F00F6FFF6FFF6FFF6FF9E003400430045
S31500001D90F6FFF6FFAF00F6FF3400F6FFF6FF47004A
S31500001DA0250013684235191D1B6811602B7001232D
S31500001DB09CE013682068191D050609D51B6811608B
S31500001DC0002B02DA2D225B4232700A225B4832E097
S31500001DD01B6811604006F3D51BB2F1E71068256851
S31500001DE008C82F0602D46D0600D59BB210600822E3
S31500001DF052486F291BD00A2219E0202321680B4381
S31500001E00236078214E4823004533197015682168F0
S31500001E1008CD0F0602D44F0600D59BB21560CA073F
S31500001E2002D520220A432260002B3CD0102221003A
S31500001E30002543310D706168A160002908DB40F27E
S31500001E40040C674625681943BD432560350061B11A
S31500001E503500B3FBF2FC61465143591A415C013D22
S31500001E602970190063468A42F3D9082A09D12368E2
S31500001E70DB0706D5626823699A4202DC3023013DFE
S31500001E802B70761B2661059B210000930398049B0B
S31500001E9007AAFFF7E3FE01302CD10120404209B02A
S31500001EA0F0BD2648AFE7202122688A432260BDE7BD
S31500001EB013682568181D616910601B682F0601D517
S31500001EC0196002E06D06FBD51980002335002361F9
S31500001ED0D9E71368191D11601D6800212800626882
S31500001EE000F09DFA08B1401B60606368236100231F
S31500001EF03370C8E72A00236904990398059DA8470B
S31500001F000130CAD023689B0715D4079BE068984226
S31500001F10C5DA1800C3E72200012304990398059E39
S31500001F201932B0470130B8D00135E368079A9B1AD9
S31500001F30AB42F0DCE9E70025F7E7C0469A6000000F
S31500001F40AB600000002310B50400036043608360AB
S31500001F5081814366C281036143618361190008225E
S31500001F605C3000F001FA0B4B246263620A4BA362F9
S31500001F700A4BE3620A4B23630A4B9C4205D00A4B89
S31500001F809C4202D0094B9C4203D12000583000F0FD
S31500001F9043FA10BDA5210000CD2100000522000056
S31500001FA0312200005C430020C44300202C44002062
S31500001FB010B5034A0349044800F06AF810BDC0464C
S31500001FC028400020993D00003840002041680B4B16
S31500001FD010B50400994201D001F0DEFEA168084B5D
S31500001FE0994202D0200001F0D7FEE168054B9942E4
S31500001FF002D0200001F0D0FE10BDC0465C43002098
S31500002000C44300202C44002010B5094B094A042182
S315000020101A6009480022FFF795FF012209210748A7
S31500002020FFF790FF022212210548FFF78BFF10BD34
S3150000203094440020B11F00005C430020C4430020EC
S315000020402C44002010B5024800F0E7F910BDC04648
S315000020509D44002010B5024800F0E0F910BDC046CE
S315000020609D44002010B50400FFF7ECFF236A13B16E
S31500002070FFF7F0FF10BD044B2362044B1B68002BD7
S31500002080F6D1FFF7C1FFF3E7CD1F0000944400200F
S31500002090F7B51400002600900191A5686768013F16
S315000020A004D52468002CF8D13000FEBDAB89012B85
S315000020B008D90E22AB5E013304D029000098019B9B
S315000020C0984706436835EAE70FB407B5054904ABF8
S315000020D0086804CB8168019301F0C6FC03B008BC14
S315000020E004B0184734400020036A70B505000E009E
S315000020F084680BB9FFF7B6FF636EDB0705D4A389C7
S315000021009B0502D4A06D00F088F9A3891B0701D5B1
S315000021102369F3B92100280000F0CEF8C8B10125E3
S315000021206D42636EDB0705D4A3899B0502D4A06DBF
S3150000213000F074F9280070BD0136A360002B04DAA4
S31500002140A2699A4216DC0A2914D023685A1C226016
S315000021501970A3683178013B0029EDD1A360002BEB
S315000021600FDA220028000A3100F068F80130D6D0D4
S315000021700A25D6E72200280000F060F80130E8D1F1
S31500002180CDE723685A1C22600A221A70F0E7FFFF87
S3150000219010B5034B01001868FFF7A6FF10BDC04637
S315000021A03440002070B50C000E25495F00F00AF996
S315000021B0002803DB636D1B18636570BDA389024AA3
S315000021C01340A381F9E7C046FFEFFFFFF8B51F00F4
S315000021D08B8905000C001600DB0505D50E23C95EAC
S315000021E00022022300F0DCF8A389054A28001340E8
S315000021F0A38132000E23E15E3B0000F0F5F8F8BD46
S31500002200FFEFFFFF70B50C000E25495F00F0C8F820
S31500002210A389421C03D1054A1340A38170BD41F234
S3150000222000021343A3816065F8E7C046FFEFFFFF96
S3150000223010B50E23C95E00F0A3F810BDF8B5060070
S315000022400D00140018B1036A0BB9FFF70BFFA36961
S31500002250A360A3891B0701D5236943B92100300078
S3150000226000F02AF818B101256D422800F8BD23694F
S315000022702068EFB2C01A6369EDB2834205DC210023
S31500002280300001F089FD0028EDD1A3680130013B43
S31500002290A36023685A1C22601F706369834204D0BE
S315000022A0A389DB07E1D50A2DDFD12100300001F03B
S315000022B073FD0028D9D0D6E72A4B70B505001868FB
S315000022C00C0018B1036A0BB9FFF7CCFE0C22A35E13
S315000022D01A0722D4DA0607D409222A6040220120EE
S315000022E01343A381404237E05B0712D5616B41B1CE
S315000022F023004433994202D0280000F009FF00234E
S3150000230063632422A3899343A38100236360236923
S3150000231023600823A2891343A38123695BB940F292
S31500002320802140F20022A3890B40934203D0210072
S31500002330280001F083FD0C22A35E01211A000A4049
S315000023400B420AD00022A26062695242A26122694F
S3150000235000200AB91A06C1D470BD990700D4626973
S31500002360A260F4E73440002003008218934200D1B3
S31500002370704719700133F9E700487047744100202F
S31500002380002370B5054D040008002B6003F08EFD98
S31500002390431C02D12B6803B1236070BD9844002012
S315000023A070B50400080011001A000023044D2B60CC
S315000023B003F098FD431C02D12B6803B1236070BD66
S315000023C09844002070B50400080011001A0000238C
S315000023D0044D2B6003F090FD431C02D12B6803B122
S315000023E0236070BD9844002070B5040008001100F9
S315000023F01A000023044D2B60FEF77EF8431C02D121
S315000024002B6803B1236070BD98440020014B186807
S315000024107047C04634400020704770477047C9B2C5
S315000024208218904201D10020704703788B42FBD07E
S315000024300130F6E7002310B59A4200D110BDCC5CFE
S31500002440C4540133F8E70023C25C0133002AFBD1F0
S31500002450581E7047F0B503690C69050089B0002065
S31500002460A3426ADB0B00013C1433A00004931B1843
S3150000247005932B00143318180193059B02681B68FB
S315000024800133B2FBF3F602969A422FD3019B049FC7
S315000024909C4600230393079308CF029A9EB25643A5
S315000024A0039A1B0CB618029A5343320C9B181A0C4B
S315000024B0039262461268B6B206926A46128B9BB2C5
S315000024C0921B079E9219069E360CF31A16149E1935
S315000024D033140793634692B23604324304C39C46D0
S315000024E0059BBB42D8D20368002B2BD0280001F0F5
S315000024F085F9002820DB0027019E0499336801C96D
S3150000250003936B469B8982B29A1A039BD219000CDD
S315000025101B0C1B1A10141B181F1492B21B041A430F
S31500002520059B04C68B42E9D2019AA300D3181A6808
S315000025308AB1029B01330293029809B0F0BD036889
S3150000254023B9013C019B04388342F8D32C61CDE7C3
S315000025501A6822B9013C019A043B9A42F8D32C61CD
S31500002560E7E7FFFFF0B514001D00C6699DB00A94A9
S315000025700B95259F03907EB9102000F011FE039B5A
S315000025800200D86120B9EF21BF4BC048FEF752FECA
S31500002590466086600660C660039BDB69196859B1B0
S315000025A05A68012393404A608B60039800F0F4FE5A
S315000025B00022039BDB691A60002D19DA01233B60B8
S315000025C06B005B080B930B9FB14BB14A3B409342A8
S315000025D01DD142F20F73249A13603B031B0B234356
S315000025E0002B01D100F069FD269B63B9A94B23E0BE
S315000025F000233B60E7E7A84B0893A84B269A136095
S3150000260008981DB0F0BDA34B0893A54BF6E70A9AB0
S315000026100B9B12921393129813990022002301F038
S31500002620E9FC060050B10123249A1360269B13B1DE
S315000026309C4B269A13609C4B0893E1E71AAB0193D7
S315000026401BAB00930398129A139B01F089F97A0049
S31500002650520D0590002A79D0139B18961903934BB7
S31500002660090B0B4392495718129813991900002227
S31500002670904B02F0A5FF904A904B02F0C7FC904A9F
S31500002680904B01F0E5FC040038000D0003F0BEFBA2
S315000026908D4A8E4B02F0BAFC02000B002000290086
S315000026A001F0D6FC04000D0003F078FB0022049034
S315000026B000232000290001F0A3FC58B1049803F080
S315000026C0A5FB2B00220001F095FC43425841049BD8
S315000026D01B1A049301231593049B162B0FD81298EB
S315000026E013997B4ADB009B181A685B6801F088FC2B
S315000026F0002849D0049B013B049300231593002234
S315000027001A9B0992DB1B5A1E40D50122D31A099344
S3150000271000230E93049B002B3ADB049A0E9B9446EF
S3150000272063440E93002314920F93229B0124092BDA
S3150000273062D8052B02DD0024043B2293229B981EBF
S31500002740032863D801F032FC54563A2D1B9B1A9E7F
S31500002750F61840F23243F218202A10DD40239B1A65
S315000027609F4040F21243F318DC403800204303F048
S3150000277079FB0122574B771ECB18189276E7202358
S3150000278020009B1A9840F2E71590B8E70E92C1E731
S31500002790099B049A9B1A099353420F93002314939F
S315000027A0C3E70123239A10939446049B634406933C
S315000027B001330C93002B08DC012306E00123109360
S315000027C0239B002B26DD06930C93039A0021D069E8
S315000027D00422150014359D4221D94160039800F06A
S315000027E09BFD0890F0B9020040F2AF113A4BCCE6DF
S315000027F00023E4E70023D5E7002310942293013B4E
S31500002800002206930C9313332392DEE701231093E1
S31500002810023BF5E701231A0006930C93F4E7013116
S315000028205200D6E7039B089ADB691A600C9B0E2BB5
S3150000283000D9D1E0002C00D1CEE0049B002B60DD56
S315000028400F2223491340DB005B181E685F68049B58
S3150000285002241D11DB050AD5129813991F4B15404A
S315000028601A6A5B6A01F076FF0A900B9101341B4BE2
S315000028700D93ADBB0A980B9932003B0001F06AFF3D
S315000028800A900B9157E0C046C9600000E060000066
S315000028900000F07FC5600000BC600000C46000005E
S315000028A0C860000099600000986000000000F03FDA
S315000028B001FCFFFF0000F83F61436F63A787D23F2B
S315000028C0B3C8608B288AC63FFB799F501344D33F19
S315000028D0F8610000000010FE39610000D0610000C0
S315000028E001231D4209D0E4180D9B30001A685B686D
S315000028F0390002F08BFB06000F000D9B6D100833AC
S31500002900B6E7049B0224B3B1129813995D420F23D4
S31500002910D34A2B40DB009B181A685B6802F076FBF3
S31500002920012700230A900B91CE4E2D11002D00D0C9
S3150000293093E0002BA4D10A9E0B9F159B002B00D180
S3150000294096E0002230003900C74B01F059FB002801
S3150000295000D18DE00C9B002B00D189E0069B002B5B
S3150000296036DD049B0022013B0D933000BF4B39003E
S3150000297002F04CFB0A900B91069B01342000119348
S3150000298003F044FA0A9A0B9B02F040FBB84B002274
S3150000299001F05EFBB74B0600CF18119B002B6BD1E5
S315000029A00A980B990022B44B02F00AFE32003B0053
S315000029B004000D0001F038FB002800D0A8E28021B9
S315000029C009067B1832002000290001F019FB40BBE4
S315000029D0129B139C0A930B941B9B002B00DA71E14C
S315000029E0049A0E2A00DD6DE1D3009D4A9B185C68AF
S315000029F01B6806930794239B002B00DBE6E00C9BE9
S31500002A00002B00DDE2E063B90698079900229A4B95
S31500002A1002F0FCFA0A9A0B9B01F010FB002800D189
S31500002A2079E200263700239B089CDB430D9304972D
S31500002A3000273100039800F0AFFC049B002B00D167
S31500002A40BAE02FB19F4203D03900039800F0A4FCEE
S31500002A500499039800F0A0FCAEE03D4205D0326830
S31500002A60736802F0D3FA3B0001346D1008365DE757
S31500002A70049B0D930C9B81E7119B794A013BDB007C
S31500002A8010999B181A685B6800294CD000207B4976
S31500002A9001F060FE32003B0002F092FD089A06004B
S31500002AA094460F00089B1693119B634411930A9852
S31500002AB00B9903F073F9050003F0A8F902000B0067
S31500002AC00A980B9902F07CFD169B30355C1C1D7034
S31500002AD032003B000A900B9101F092FA00286BD16C
S31500002AE00A9A0B9B0020604902F06AFD32003B0007
S31500002AF001F086FA002800D0C4E0119BA34200D161
S31500002B0066E7002230003900584B02F07FFA0022B7
S31500002B1006000F000A980B99544B02F077FA1694A8
S31500002B200A900B91C3E73000390002F06FFA089D56
S31500002B30119A2B00944616901791634419930A989C
S31500002B400B9903F02BF9040003F060F90B00020067
S31500002B500A980B9902F034FD3034199B2C7001351C
S31500002B6006000F00AB422AD116981799089B119CB4
S31500002B709C460022414B644401F06AFA02000B00B5
S31500002B803000390001F050FA002800D07AE0169A99
S31500002B90179B0020394902F013FD02000B0030009C
S31500002BA0390001F02DFA002800D111E72300013C7D
S31500002BB02278302AFAD01C000D9B049340E00022B4
S31500002BC02A4B02F023FA0A900B91B8E70C9B089D5A
S31500002BD0013B5B190C930A9E0B9F069A079B3000DC
S31500002BE0390001F0B7FD03F0D9F8099003F00EF9AA
S31500002BF0069A079B02F00AFA02000B003000390021
S31500002C0002F0DEFC2B00099A013530321A700C9A5C
S31500002C102C009A4249D102000B0001F019FA069ADB
S31500002C20079B06000F0001F0FFF948BB069A079BB9
S31500002C303000390001F0DEF910B1099BDD071FD421
S31500002C400599039800F0A8FB00232370049B249A9F
S31500002C5001331360269B002B00D1D1E41C60CFE426
S31500002C60F8610000D06100000000F03F0000244041
S31500002C7000001C400000C0FC000014400000E03FC3
S31500002C80049B0D9323001C00013B1A78392A08D1B6
S31500002C90089A9A42F7D10D9A089901320D9230227C
S31500002CA00A701A7801321A7086E70022C04B02F0C9
S31500002CB0ADF90022002306000F0001F09BF9002861
S31500002CC08BD0BDE7109F0F9D099CAFB1229A012AB8
S31500002CD000DDDDE0189A002A00D1D3E040F233424D
S31500002CE09B18099A0121D21809920E9A0398D318B3
S31500002CF00E9300F003FC070074B10E9B002B0BDD56
S31500002D000E9A2300944200DD1300099AE41AD21A9F
S31500002D1009920E9AD31A0E930F9BF3B1109B002BB8
S31500002D2000D1CDE085B139002A00039800F0A4FC5B
S31500002D30059A01000700039800F0F6FB06000599C6
S31500002D40039800F029FB05960F9B5A1BAB4204D053
S31500002D500599039800F090FC05900121039800F076
S31500002D60CDFB149B0600002B00D1AEE11A0001003A
S31500002D70039800F081FC229B06000025012B13DC42
S31500002D800A9B00256BB90B9B1B0353B9894B0B9A06
S31500002D90134206D0099B0135013309930E9B01337B
S31500002DA00E93149B012043B1336903339B00F31840
S31500002DB0586800F055FB2023181A0E9B18180200BD
S31500002DC01F231A40184200D180E001339B1A042BBE
S31500002DD078DD1C239B1A099AE418D21809920E9AD8
S31500002DE0D3180E93099B002B05DD1A00059903984D
S31500002DF000F09AFC05900E9B002B05DD31001A00B1
S31500002E00039800F091FC0600159B002B60D0310062
S31500002E10059800F0F3FC00285ADA049B0A22013BCD
S31500002E200D9305990023039800F0D8FA109B05909E
S31500002E30002B00D150E1002339000A22039800F04C
S31500002E40CDFA069B0700002B4CDC229B022B45DDAE
S31500002E50069B002B00D0E6E531000522039800F022
S31500002E60BDFA06000100059800F0C8FC002800DC49
S31500002E70D9E5089B089A5C1C312313700D9B01331E
S31500002E800D93D4E536231A9A0F9D9B1A099C28E7C1
S31500002E900C9B5D1E0F9BAB4208DB5D1B0C9B002B46
S31500002EA0F4DA099B0C9A9C1A00231AE70F9B149AD2
S31500002EB0EB1AD31814930F95099C00250C9B10E769
S31500002EC00F9A45E7042B8DD01C3384E71300FBE7EC
S31500002ED0049B0D930C9B0693002BB6DD109B002BD9
S31500002EE000D1FDE0002C05DD39002200039800F03A
S31500002EF01BFC0700049705B37968039800F00CFAE9
S31500002F00040060B9020040F2EF212B4BFFF73DFBB6
S31500002F10119E3700ADE7049B0C9E0D93F9E739002F
S31500002F203A690C31023292000C30FFF783FA012223
S31500002F302100039800F0F8FB0490089B069A099379
S31500002F40013B9B1801220F930A9B13400E933100FD
S31500002F500598FFF77FFA390005000C90059800F0F8
S31500002F604DFC049A0A903100039800F063FC01229C
S31500002F70C36804003035069223B90100059800F0B5
S31500002F803DFC06902100039800F006FA099B229A60
S31500002F905C1C069B13430E9A13437BB9392D29D02B
S31500002FA00A9B002B01DD0C9D3135099B1D7040E508
S31500002FB0000024400000F07F396100000A9B002BCE
S31500002FC004DB229A13430E9A1343FBB9069B002B8C
S31500002FD0EBDD05990122039800F0A6FB3100059070
S31500002FE000F00CFC002803DC0028DED1EB07DCD562
S31500002FF0392DD8D13923099A137023001C00013BBF
S315000030001A78392A50D001321A7012E5069B002B25
S3150000301003DD392DEED00135C7E7099B099A1D70EE
S315000030200F9B93422BD000230A220599039800F0A8
S31500003030D5F9049B05909F4209D1390000230A2245
S31500003040039800F0CBF90700049009947FE7390054
S3150000305000230A22039800F0C1F9002307000A2280
S315000030600499039800F0BAF90490EEE7069B012450
S31500003070002B00DD1C0004970027089B1C190599EE
S315000030800122039800F050FB3100059000F0B6FBDA
S315000030900028B2DC08B9ED07AFD423001C00013BC1
S315000030A01A78302AFAD0C4E4089A9A42A6D10D9B1F
S315000030B001330D9331231370BBE4269B002B01D003
S315000030C0FFF799FA114BFFF7B7FA229B012B00DCA9
S315000030D056E60120149D70E6069B002B00DCB4E644
S315000030E0002431000598FFF7B5F9089B30301855D4
S315000030F0069B01340500A342B8DD00230A22059988
S31500003100039800F06BF90590EBE7C046BC60000041
S3150000311070B505000C0079B1043C2368002B00DA79
S31500003120E418280000F0E8F81C4A13682BB963601D
S315000031301460280000F0E8F870BDA34208D92068A2
S3150000314021188B42F3D119685B6809182160EEE7F4
S315000031501A005B680BB1A342FAD911685018A04255
S315000031600BD120680918501811608342E1D1186804
S315000031705B68411811605360DBE7A04202D90C235B
S315000031802B60D6E7206821188B4203D119685B684B
S315000031900918216063605460CBE7C046A444002050
S315000031A010B5034B0100186800F026F810BDC046A4
S315000031B03440002070B50F4E0D003168040011B97F
S315000031C000F09CFE30602900200000F097FE431CB2
S315000031D003D101256D42280070BD0323C51C9D4304
S315000031E0A842F8D0291A200000F088FE0130F2D15A
S315000031F0EFE7C046A0440020F7B50322CB1C93435B
S31500003200083305001F000C2B34D20C27B94233D8E3
S31500003210384E280000F070F833681C00002C2FD1BF
S3150000322039002800FFF7C6FF0400431C5FD134684D
S315000032300094009B002B4AD1002C52D02368280012
S31500003240E3180099019300F059FE019B834248D18F
S3150000325023682800FF1A3900FFF7ACFF013040D081
S315000032602368DB19236033685A68002A33D1009B30
S31500003270336019E0002BC9DA0C232B600020FEBD59
S315000032802168C91B20D40B290AD9E2192760A34259
S3150000329004D1326063681160536005E05A60F9E753
S315000032A06268A3420ED13260280000F02DF820009B
S315000032B007220B30231D9043C21A9842DFD01B1AF7
S315000032C0A350DCE75A60EFE723006468A6E7009C9A
S315000032D063680093ADE71A005B68A342FBD1002345
S315000032E0DAE70C2328002B6000F00EF8C6E707602B
S315000032F0DAE7C046A444002010B50248FFF78DF86F
S3150000330010BDC0469C44002010B50248FFF786F861
S3150000331010BDC0469C44002070B5C56906000C006F
S3150000332075B91020FFF73CFF0200F06120B96B2150
S31500003330174B1848FDF77EFF456085600560C56040
S31500003340F569EB688BB1F369A200DB689B18186816
S31500003350B8B901210D00A5406A1D3000920000F0A9
S31500003360DDFD60B1446085600DE02122042130005E
S3150000337000F0D4FDF369E860DB68002BE3D10020A0
S3150000338070BD02681A6000230361C360F8E7C04697
S31500003390C96000004A61000070B5C66905000C00EE
S315000033A076B91020FFF7FCFE0200E86120B98F21F4
S315000033B0084B0948FDF73EFF466086600660C6601A
S315000033C03CB1EB696268DB6892009B181A68226060
S315000033D01C6070BDC96000004A610000F7B50F00AF
S315000033E001900C001E0000200D6914373B68013067
S315000033F099B251431B0C534389190E0C9B191E0C91
S3150000340089B21B045B1808C78542EFDC16B3A368B4
S31500003410AB4219DC616801980131FFF77DFF0700B7
S3150000342028B90200BA210C4B0C48FDF703FF210016
S3150000343022690C31023292000C30FEF7FBFF2100AC
S315000034400198FFF7A9FF3C002B1D9B00E3180135EF
S315000034505E6025612000FEBD396100004A61000002
S315000034604FF6FF7203000020934201D81B04103070
S3150000347080225204934201D208301B028022520558
S31500003480934201D204301B018022D205934201D21D
S3150000349002309B00002B03DB0130134200D12020B9
S315000034A070470368010007221800104013420DD030
S315000034B0063A0020134205D10230034203D0D3401E
S315000034C010000B6070479B080B60FBE79AB20AB9C5
S315000034D010201B0CDAB20AB908301B0A1A0701D1F0
S315000034E004301B099A0701D102309B08DA07EBD496
S315000034F05B080130002BE7D12020E3E710B50C0074
S315000035000121FFF709FF30B9020040F24511044BD3
S315000035100448FDF78FFE01234461036110BDC046D8
S31500003520396100004A610000F0B514000A69236998
S315000035300D0089B09A4202DB23000C001D002769AA
S315000035402E696168BB190093A368BA19934200DA21
S315000035500131FFF7E1FE844630B9020040F2621104
S31500003560434B4448FDF766FE0200BB1914329B002C
S31500003570D3180193002113000198834228D3230016
S31500003580BF00143304931435DB19B6000293AB194C
S31500003590079304230593230002991533994205D313
S315000035A00C1B153CA4080134A3000593079B9D4200
S315000035B010D3009B002B05DD019B043B01931B6888
S315000035C0002B51D063466046009A1A6109B0F0BDDF
S315000035D002C3D1E72C68A4B2FCB100231700049EF5
S315000035E0039308CE396806936B461B8B88B26343F8
S315000035F01B180398090C1B180698000C604340180A
S31500003600190C4118080C9BB209041943029B03903C
S3150000361002C7B342E5D8059BD0502C68240C04B3EE
S31500003620002110001368049E03913168076889B26F
S3150000363061433F0CC919039F9BB2C9190F041F436D
S31500003640076080CE43683F0C67439BB2090CFB18AA
S315000036505B18190C039102990430B142E5D805991B
S31500003660535004350432A1E7009B013B0093A0E7C9
S31500003670396100004A610000F7B503231500070011
S315000036800E001A401D4208D02449013A92005258B1
S3150000369000233100FFF7A2FE0600AD10DDB3FC6982
S315000036A07CB91020FFF77CFD0200F86128B940F2D2
S315000036B0B3111B4B1B48FDF7BDFD446084600460DD
S315000036C0C460FB699C6801934CB940F271213800D3
S315000036D0FFF714FF019B0400986000230360012399
S315000036E01D420AD0310022003800FFF71DFF3100CD
S315000036F001903800FFF750FE019E6D105DB1206805
S3150000370038B9220021003800FFF70EFF00232060A1
S3150000371003600400E3E73000FEBDC046C061000060
S31500003720C96000004A610000F0B50C00160023696C
S31500003730571185B0FB180193013300934968A368BC
S315000037400290009A93420FDB0298FFF7E5FD0023F3
S31500003750010005001A00143160B9020040F2DE11C2
S31500003760244B2548FDF766FD01315B00E9E798002B
S315000037700A500133BB42FADBFB43DB171F40BF0095
S3150000378023001F20C91937002269143392009A18A2
S315000037900740064228D00130C01B03908C4600200B
S315000037A01E68BE400643604640C08446039E01CB69
S315000037B0F0409A42F4D8260015360423B24204D3C8
S315000037C0131B153B9B0801339B00C85010B1019B8E
S315000037D002330093009B0298013B21002B61FFF707
S315000037E0DBFD280005B0F0BD01CB01C19A42FBD834
S315000037F0F0E7C046396100004A61000030B50B6948
S3150000380004690200E01A9C420FD114329B00143165
S315000038101400C918D218043A043915680B689D4279
S3150000382004D001209D4200D2023830BD9442F2D32A
S31500003830FBE7FFFFF0B50C0087B0009011002000F9
S315000038401700FFF7DBFF050088B901000098FFF7B6
S3150000385063FD020028B940F237213F4B3F48FDF790
S31500003860E9FC012345610361100007B0F0BD0026A5
S31500003870B04203DA23003C001F000136616800985D
S31500003880FFF74AFD020018B940F24521324BE5E741
S315000038902369143400939B00E318210001943C0033
S315000038A002933B6914349B00E31803930300C6603C
S315000038B08C460020143304930593634620CBA9B2AB
S315000038C00E009C4608CC2D0C99B2711A09181B0CD7
S315000038D00814EB1A1B18181489B21B041943059B0C
S315000038E002C30593039BA342E7D83900039C153115
S315000038F004238C4204D3E31B153B9B0801339B0036
S315000039000199CD1804992E00CB181F0002998E42FA
S3150000391010D3029CE91E00208C4204D321000331FF
S31500003920491B890888001B18043B196881B1009B54
S31500003930136199E7844602CE88B2604400140C0CE9
S3150000394004196144201489B22404214302C7DDE727
S31500003950009901390091E7E7396100004A610000EA
S31500003960F7B5012116001F00FFF7D6FC040030B999
S31500003970020040F20F31234B2348FDF75BFC7D002C
S315000039803B036D0D1B0B15B18022520313430193AC
S315000039901EB368460096FFF784FD019B0099D0B1DF
S315000039A020221E00121A96403200C3400A4362616A
S315000039B00193019EA661731E9E4101362661A5B143
S315000039C03526124BED18089B2D181D60099B361ADB
S315000039D01E602000FEBD6161EBE701A8FFF761FDF7
S315000039E0019B012663612030E8E7094BC018089B5C
S315000039F01860084BF3189B00E3185869FFF730FD71
S31500003A007601E3E7396100004A610000CDFBFFFF64
S31500003A10CEFBFFFFFFFFFF3F936810B5013B9360AE
S31500003A20002B04DA9469A34207DB0A2905D0136840
S31500003A30581C10601970080010BDFEF7FFFB01004E
S31500003A40F9E7F8B506000F001400D518AC4201D10D
S31500003A50002007E021783A003000FFF7DDFF01344F
S31500003A60431CF3D1F8BDFFFFF0B5A1B00D00170060
S31500003A701E00039018B1036A0BB9FEF7F3FA6B6EDA
S31500003A80DB0705D4AB899B0502D4A86DFEF7C5FC00
S31500003A90AB891B0701D52B6993B929000398FEF75B
S31500003AA00BFC68B16B6EDB0703D50120404221B0E9
S31500003AB0F0BDAB899B05F8D4A86DFEF7AFFCF4E723
S31500003AC0002308AC6361203363761033A376079630
S31500003AD03E0033780BB1252B46D1F31B0593BE422E
S31500003AE00BD03A0029000398FFF7ABFF013000D155
S31500003AF0AEE06369059A9B1863613378002B00D1A9
S31500003B00A6E0012200235242626004A954325218F0
S31500003B10771C2360E360A3601370A36505223978E0
S31500003B205748FEF77CFC7E1C00BB2268D30604D5F2
S31500003B30532304A95B1820211970130704D55323B6
S31500003B4004A95B182B2119703B782A2B17D03E004D
S31500003B50002140F20A0C0127E3683278701C303AE3
S31500003B60092A4DD989B917E00136B2E7444B2268D4
S31500003B70C01A01238340134337002360CEE7079B17
S31500003B80191D1B680791002B01DB0B9304E05B42B8
S31500003B90E36002231343236033782E2B0CD1737812
S31500003BA02A2B33D1079B02361A1D1B680792002B5E
S31500003BB001DA01235B420993324F03223800317840
S31500003BC0FEF72DFC30B14023C01B8340226801362E
S31500003BD013432360317806222B48771C2176FEF7A3
S31500003BE01EFC002843D0294B33BB0722079B073313
S31500003BF09343083307936369049A9B18636167E7E5
S31500003C0061464B43060039009B18A6E7002340F2A5
S31500003C100A0C1A000127013663603178701C3039AE
S31500003C20092903D9002BC7D00992C5E763465A4331
S31500003C3006003B005218F0E707AB00932A0021006C
S31500003C40134B0398FDF7D2FD0490049B0133D2D1A8
S31500003C506B6EDB0705D4AB899B0502D4A86DFEF716
S31500003C60DDFBAB895B0600D51FE70D981FE707ABA9
S31500003C7000932A002100064B0398FEF75DF8E3E760
S31500003C80A4610000AA610000AE610000ED1700000B
S31500003C90433A0000F7B50C228B5E05000C001A07AC
S31500003CA053D44A68002A02DC0A6C002A4BDDE76A14
S31500003CB0002F48D0002241F200002E682A601A0028
S31500003CC0216A0240034230D0626DA3895B0705D5A5
S31500003CD06368D21A636B0BB1236CD21A00232800D7
S31500003CE0E76A216AB847A289431C06D129681D29BB
S31500003CF044D8284BCB40DB0740D5002363602369BB
S31500003D002360D20404D5431C01D12B6803B9606536
S31500003D10616B2E60B9B123004433994202D028006A
S31500003D20FFF7F6F9002363630DE001232800B84787
S31500003D300200431CC9D12B68002BC6D01D2B01D015
S31500003D40162B1AD12E6000201EE00E69002EFAD026
S31500003D500F680E60BA1B019200229B0700D14A69C8
S31500003D60A260019B002BEEDDA36A32001F00280033
S31500003D70019B216AB847002807DCA289402301205D
S31500003D8013431BB2A3814042FEBD019B36181B1A8A
S31500003D900193E6E7010040200B6970B505000C00B1
S31500003DA013B90025280070BD18B1036A0BB9FEF7D8
S31500003DB059F90C22A35E002BF3D0626ED20704D40D
S31500003DC09B0502D4A06DFEF728FB28002100FFF713
S31500003DD061FF636E0500DB07E4D4A3899B05E1D48C
S31500003DE0A06DFEF71BFBDDE770B50E001D000E2370
S31500003DF0C95E140096B000290CDAB289802311003E
S31500003E0019401A4214D140F2004300202960236071
S31500003E1016B070BD6A4600F04FF80028EDDB4FF291
S31500003E20000301991940044BC9184B425941EAE76E
S31500003E3000214023E9E7C04600E0FFFFF0B5022677
S31500003E408B8905000C0085B0334207D02300473329
S31500003E50236023610123636105B0F0BD03AB02AAB1
S31500003E60FFF7C2FF029F019039002800FFF7C4F94F
S31500003E7040B90C22A35E9A05EED4032293431E4357
S31500003E80A681E3E78023A28920601343A381039BD5
S31500003E90206167615BB128000E23E15E00F01EF829
S31500003EA028B10323A2899A43023B1343A381A38922
S31500003EB0019A1343A381CFE7002370B5064D040092
S31500003EC0080011002B6001F0FBFF431C02D12B6898
S31500003ED003B1236070BDC04698440020002370B52E
S31500003EE0054D040008002B6001F0F4FF431C02D1CD
S31500003EF02B6803B1236070BD98440020002370B581
S31500003F00054D040008002B60FDF7BCFA431C02D1E6
S31500003F102B6803B1236070BD984400200B0C70B56C
S31500003F20150CEBB965B989B294B24C432100FFF781
S31500003F3063F90500D0B122000021FEF715FA15E05D
S31500003F402B1C0C1C89B292B24A439BB2A1B25943B4
S31500003F50140C0C19230C33B9240492B21443E5E76C
S31500003F600DB9141CEEE70C2300250360280070BD74
S31500003F7082B001B901A910002AB133B113780B60E0
S31500003F801078431E984102B0704702204042FAE77B
S31500003F900300080029B1FF2A04D98A2201201A60E9
S31500003FA04042704701200A70FBE7FFFF02B47146EA
S31500003FB049084900095C49008E4402BC7047C04666
S31500003FC003B47146490840004900095E49008E4421
S31500003FD003BC70478446100062468C46190063464F
S31500003FE000E0C0461FB500F0A3FF002801D4002161
S31500003FF0C8421FBD10B500F0E9FE4042013010BDB9
S3150000400010B500F095FF002801DB002010BD01204F
S3150000401010BDC04610B500F08BFF002801DD002062
S3150000402010BD012010BDC04610B500F013FF0028DA
S3150000403001DC002010BD012010BDC04610B500F007
S3150000404009FF002801DA002010BD012010BDC0467E
S31500004050F0B5CE46474680B50D0383B00092019376
S315000040604E00C300CC0F690A450F0D439946009ACE
S31500004070019B19035F00D80F530F009A490A760D6A
S315000040807F0D0B43AC46D200F11B844200D1BBE04E
S31500004090002900DC82E0002F00D1F9E040F2FF7039
S315000040A0864200D19CE10125382914DC80200004D9
S315000040B003431F2900DD06E220201D00401A1700D9
S315000040C082408540CF40501E82413D43CB40154340
S315000040D06246D31A9C464B465D1BA9458041634602
S315000040E040421B1A984643461B0200D445E143460C
S315000040F05B025B0A98464346002B00D11EE1404610
S31500004100FDF7BAFA0100083920222F00531A40465B
S31500004110DF4088403B008D4003438E4200DDCDE109
S31500004120881B29000130121AC14095408846691E35
S315000041308D41190091400A004146C34029430D00B4
S315000041409846002615436B0709D00F232B40042BF6
S3150000415005D02B1DAB42AD416D42A8441D00434620
S315000041601B0200D4C4E240F2FF7301369E4200D126
S31500004170DFE04146D04A334011400A005707ED08B8
S3150000418052022F43120B1B051343E4072343380047
S31500004190190003B0C0BCB946B046F0BD002900D135
S315000041A08AE0B91B002E00D076E12C004D462C4348
S315000041B0002C00D1D2E14C1E012900D155E240F27B
S315000041C0FF75A94200D108E20125382C13DC210035
S315000041D01F2900DD08E2202465464E46641AA540E4
S315000041E0CE4035434E46A6403400661EB4412543B4
S315000041F06446CC401B1B551BAA42924152429B1A55
S31500004200984604003E006EE7002900DCBAE0002F65
S3150000421000D083E018001043002800D1F3E0481EC8
S31500004220012900D1ACE140F2FF75A94200D1D7E0E7
S315000042300125382810DC01001F2900DDBAE1202005
S315000042401D00401A170082408540CF40501E824113
S31500004250CB403D4315439C444D444D45804140422F
S315000042606044804643461B0200D486E040F2FF735A
S3150000427001369E425DD042468F4B01211A40130003
S3150000428029406A080A43DD075B08984615435AE742
S3150000429018001043002800D1B5E0481E012900D1BE
S315000042A07DE140F2FF75A94200D199E00125382849
S315000042B000DD10E70100FCE640F2FE75771C3D428A
S315000042C000D0D5E04F4665463D431F001743002EFC
S315000042D000D047E1002D00D1BAE1002F00D178E1EE
S315000042E04D46AD1AA8466546C145B641ED1A764219
S315000042F0AD1B80263604354200D109E24C46151B1B
S31500004300AA429241644652421B1B9A1A324200D17B
S3150000431017E2694B04001A4001232FE740F2FF70B1
S3150000432086425DD00125382996DC802000040343AF
S3150000433082E740F2FF730022002724E72800FDF7FA
S315000043409BF9010018311F2900DCDDE62B00083837
S3150000435083408E4200DDC5E0891B481C1F2800DC17
S31500004360CAE11D001F39CD40202805D04022121A6F
S3150000437093405A1E93411D4300266B0700D0E4E686
S31500004380310009E100294ED0B91B002E00D1B4E05E
S3150000439040F2FF70874200D123E10125382917DC5E
S315000043A08020654600040543AC461F2900DD8CE1EC
S315000043B0202065464E46401A8540CE4035434E463F
S315000043C086403000461EB04105436046C8401B1873
S315000043D0AD1895429241524290463E00984441E7BC
S315000043E04B46DA0863465F071743DD082B003B435D
S315000043F0002B00D1A0E1802212032A43120340F2CF
S31500004400FF73120BBFE64B46DA0863465F07DD080B
S3150000441040F2FF7317439942E8D040F2FF732A0334
S31500004420120B0B40AFE640F2FE70771C384278D193
S3150000443028004D462843002E00D0E8E0002800D191
S315000044403FE118001043002800D1C2E04A444A4523
S315000044508041634440421B18D208190200D465E12A
S3150000446015490B405F075B0217431A0B01238AE6C7
S3150000447049468D1AA945BF4161467F42C91AC91BE3
S31500004480884609025FD447462F43002F00D032E604
S3150000449000240023002276E640F2FF74A74200D1F2
S315000044A09BE00125382900DDA5E680246546240425
S315000044B02543AC468CE6C046FFFF7FFFA44A761A2A
S315000044C0134098463FE608001F002038C7402029C1
S315000044D003D04020411A8B401A43531E9A411500BF
S315000044E03D43F8E59A4A711A13409C4663465F07B6
S315000044F043461F436346DD088FE728004D462843A1
S31500004500002800D1BCE0481E012900D1F8E040F2A5
S31500004510FF75A94265D00125382800DD58E701005E
S3150000452043E740F2FF718F4200D102E74A444A4511
S315000045308041634440421B18DD0752085B089846D9
S315000045403E001543FFE54946551AAA429241614687
S3150000455052425B1A9B1A98460400CCE504009C461E
S31500004560D20852E7002D00D08DE0002F00D1D9E00F
S31500004570DD08D7085B071F432B0004003B4337E7E2
S315000045804A444A4580416344984615004042804467
S31500004590434601211B0266D4C446EA0835E749466C
S315000045A08D1AA945804162464042D31A1B1A984685
S315000045B0012698E508001F002038C740202903D0AF
S315000045C04020411A8B401A43531E9A4115003D4321
S315000045D042E64B46DB08984688E704009C46D2082C
S315000045E000E79C46D208FDE60C006646203CE64005
S315000045F0202907D04024611A64468C4021004C468D
S315000046000C43A1464D46691E8D413543F3E500280E
S31500004610E7D019001143002900D1E1E66146CD0833
S315000046204946C808614649070843802109030D42E7
S3150000463006D0DE080E4203D13500D0085B071843CA
S315000046402B00470FC0007F07C00807433B43CFE658
S31500004650002F00D11CE7D2085F075B021743040056
S315000046601A0B00238FE5022605E6551B6146AA4272
S3150000467092415B1A52429B1A98460400012632E583
S315000046809C46D208C1E6002F00D1A9E661466646DF
S31500004690CD0849467607C908314380263603354298
S315000046A007D0DF08374204D104003D00D1085B077C
S315000046B019432B004F0FC9007F07C9080F433B431F
S315000046C096E6D20890469C4610E7080066462038D3
S315000046D0C640202907D04020411A60468840010084
S315000046E04846084381464D46691E8D4135436FE66F
S315000046F03100C446EA0888E620220025121A18E589
S31500004700AD189542924163449846524290443FE721
S3150000471047462F43002F00D1BAE64346DB089846AA
S31500004720AC46E3E6802500242D0364E65F075B02C2
S3150000473017431A0B002326E5002740F2FF730022D9
S3150000474021E5ED0857072F430400D50865E6C04666
S31500004750FFFF7FFFF0B5DE46454657464E46E0B5BD
S3150000476087B0009201930B031B0B9B464B00CA0FAD
S315000047705B0D040080460292002B00D192E040F2CD
S31500004780FF72934239D05946420FC9000A4380212D
S3150000479009041143C2009046894A894692469A44C2
S315000047A0002300240393009E019F3B031B0B9B46A3
S315000047B07B005B0D3000FD0F002B00D1A6E040F220
S315000047C0FF72934200D194E05946720FC9000A4322
S315000047D08021090411437A4A0020944652466344D4
S315000047E0D31A9A468B46F100029B6B400F2C00D9D8
S315000047F0F0E0744AA400125997465B460343994673
S31500004800002B00D0A4E0023340F20008082440F256
S31500004810FF7A0393C7E72B0040F2FF72002440F2B1
S31500004820000812052243DB071A434046110007B071
S31500004830F0BCBB46B246A946A046F0BD0022002405
S3150000484040F20008EDE7CB464146029D0398022858
S31500004850E1D0032800D173E22B000128EED040F20C
S31500004860FF305044002800DCA7E14A0700D07AE276
S315000048705A46D20106D55846534A1040834640F25E
S315000048800040504440F2FE729042C5DC5A46C908C8
S3150000489052070A4390465A46540240F2FF72240BCE
S315000048A00240BEE75B4603439946002B62D05B4657
S315000048B0002B00D1DBE15846FCF7DEFE0B235B4202
S315000048C09C460200844466461D239B1B260011005D
S315000048D05846DE4008398840330003439946230092
S315000048E08B409846394B00249B1A9A460023039323
S315000048F059E75946009B1943354B9C46E244A1BBF8
S31500004900022340F2000B02201C436DE75946009B30
S31500004910194321B35B46002B00D1BAE15846FCF798
S31500004920ABFE020003000B3A1D27009EBA1A1900BF
S315000049305846D64008398840320002439346009ACA
S315000049408A401100534440F2F33A00209A444BE760
S315000049500323D9460C2440F2FF7A039323E701236D
S3150000496040F2000B01201C433EE7032331000320E5
S315000049701C4339E7012340F20008042440F2000AF0
S31500004980039310E78024002340F20008240340F23A
S31500004990FF7246E780244B462403234208D05B4639
S315000049A0234205D11C4324032B008846240BEEE743
S315000049B080244B4624031C432403029B240BE6E776
S315000049C001FCFFFFC4630000FFFFFFFE0DFCFFFFBD
S315000049D001F8FFFFCB4500D23FE100D13AE10122C9
S315000049E05242944647464A460025E24458460C0E33
S315000049F0000204430902000CB2FBF0FC00914FF6E2
S31500004A00FF71260021400294644603914C4361469F
S31500004A104143521A1204390CA04611438C4207D95D
S31500004A20B14662464944013A8E4200D850E1944666
S31500004A304246891AB1FBF0FB5A46039C4FF6FF79B2
S31500004A4062435C464443091B4C4609043C402143EF
S31500004A508A4208D9029E5C46B0464144671E8E4291
S31500004A6000D82BE1BB468A1A61465C464FF6FF7CAE
S31500004A7009040C430099270C090C89466146A34694
S31500004A8021406446009E344004944C432600049C16
S31500004A907C43A0464C4661436743340CA4464144DC
S31500004AA06144884503D980246402A44667440C0CFB
S31500004AB0A0460904474488464FF6FF7131404144F9
S31500004AC0BA4200D2ADE000D1A8E0691A8D42AD41EC
S31500004AD0029ED71B6D427F1BBE4200D134E1B7FB5D
S31500004AE0F0F20400039D544355433F1B3F040C0C56
S31500004AF02743BD420BD9B046541E4744A446BE4286
S31500004B0000D937E1BD4200D834E1023A47447F1B61
S31500004B10B7FBF0F56843381A4FF6FF77039C00049D
S31500004B206C430F40A4460743BC420BD90298691E4A
S31500004B3080464744B84200D91EE1BC4500D81BE177
S31500004B40023D474461467F1A1104049C29430D0C1B
S31500004B5020006C434FF6FF72A4464C460A40504371
S31500004B60624362449046020C42446543944503D92D
S31500004B7080246402A4466544140CA446AC444FF653
S31500004B80FF75120428401218674506D302D0012289
S31500004B90114364E6002A00D161E6029C481EA04645
S31500004BA04744A74200D2C2E0674500D2F9E000D1EF
S31500004BB003E10100EBE7012149420122121A382ADA
S31500004BC000DD3BE61F2A00DC8CE01F246442201A2D
S31500004BD05C46C4402000202A05D040F23E425C4696
S31500004BE05244944021434A1E91410722014310003A
S31500004BF0002408400A420CD00F220A40042A00D1A1
S31500004C00E0E0081D884292410100524250075202DC
S31500004C10140BC90801438846002202E68D4200D3E0
S31500004C2053E7012464425C440594009CA446654411
S31500004C30A542A4416442A446029CA046C4446244E0
S31500004C40944235D2974200D99BE000D196E0059C6C
S31500004C50A3463AE7414500D9C1E64846C70740465C
S31500004C6040084A46074340465208C507BEE6FCF7D9
S31500004C7003FD40F2150C84440200634620321C2BCF
S31500004C8000DC20E623000838834040F200089946FD
S31500004C9028E6FCF7F1FC02000300153220331C2A3B
S31500004CA000DC41E6009A083882400021934649E636
S31500004CB09442CCD1009CAC42C9D8C3E78A4200D802
S31500004CC0D0E602246442A046C344B0464144CAE644
S31500004CD0884500D8ABE6022252429146CC44B14602
S31500004CE04944A5E640F21E400D0050445C46814012
S31500004CF08440D54008002C43411E884121000143D1
S31500004D005846D0400200480709D00F200840042822
S31500004D1005D0081D884289414942521801001002F7
S31500004D2000D473E70122002440F2000879E501006F
S31500004D30674500D02BE70098824200D027E78EE532
S31500004D4080245B4624032DE640F2FF301E4A504481
S31500004D50924500DA2FE701225242111D91429241FB
S31500004D605242934484E50F220A40042A00D17FE58B
S31500004D700A00F2E76246CAE60D00E3E6A94200D859
S31500004D8065E702246442A446009CE344A4466544C5
S31500004D90A542A4416442A446029CA046C44462447F
S31500004DA093E60098029C450085428041A046404219
S31500004DB0404402393F180095BAE7009C9442F0D36C
S31500004DC00100B8E7002221E702FCFFFFF0B55746D5
S31500004DD0DE464E464546E0B50D000400E80F834624
S31500004DE0D80F824640F2FF700903090B8C461F0359
S31500004DF069005E00490D3F0B760D814217D0864251
S31500004E000ED00120B1420CD1BC450AD1944208D142
S31500004E10D3451CD029B960462043431E984100E083
S31500004E200120F0BCBB46B246A946A046F0BD012013
S31500004E308E42F6D1614639430F0017432743002FB0
S31500004E40EFD15B465246981A431E9841E9E7002087
S31500004E50E7E7C046F0B557464E464546DE46E0B55E
S31500004E600D000E034900490D8A4640F2FF7BE90F0B
S31500004E7083B004008046019158001903DF0F914664
S31500004E80BC46360B090B400DDA451DD058450CD0F3
S31500004E9057465FBB344330BB0A43002A37D0002C49
S31500004EA042D163465800013816E01143002938D133
S31500004EB0534613B92643002EF3D0019B634507D111
S31500004EC0019B5800013807E0264356BB504521D0C8
S31500004ED00120019B5F42384303B0F0BCBB46B2469B
S31500004EE0A946A046F0BD002CDBD0E6E70028EFD0AF
S31500004EF0019B6345ECD18245EADCE1DB8E42E7D8D3
S31500004F00DED1C845E4D80020C845E5D2D8E7002C54
S31500004F10E2D0DDE7114321B9019BBB42D8D1002085
S31500004F20DAE702204042D7E7019B6345E6D0CFE7A8
S31500004F30F0B557464E464546DE46E0B50D000E0333
S31500004F404900490D8A4640F2FF7BE90F83B0040011
S31500004F508046019158001903DF0F9146BC46360B77
S31500004F60090B400DDA451ED058450DD0574647BBB4
S31500004F703443002834D10A43002A34D0002C40D1CF
S31500004F8063465800013815E0114391B9534613B9E9
S31500004F902643002EF4D0019B63451DD00120019BC2
S31500004FA05F42384306E026431EB95045F6D1114309
S31500004FB0E1B1022003B0F0BCBB46B246A946A0460A
S31500004FC0F0BD0028EAD0019B6345E7D18245E5DCC8
S31500004FD002DB8E42E2D80ED0019B58000138E9E789
S31500004FE0002CCDD0D7E7002CE4D0D7E7019B0020DA
S31500004FF0BB42DFD0D2E7C845D0D80020C845D9D2B9
S31500005000EAE7019B6345E4D0C8E7C046F0B5DE4653
S315000050104E4657464546E0B589B0009201930B03CC
S315000050201B0B9B464B00CA0F5B0D04009146002BE1
S3150000503000D1CDE140F2FF72934200D15FE15946C3
S31500005040420FC9000A43802109041143C200904659
S31500005050DC4A8B469C18002300250293009E019F84
S315000050603B031B0B9A467B00FA0F5B0D3000039245
S31500005070002B00D183E140F2FF72934200D169E137
S315000050805146720FC9000A43802109041143CD4AD3
S315000050908A46944600216344F0001B195C1C0A2DC5
S315000050A000DD3CE14E46039A5640F2B20092022DD4
S315000050B000DCB7E1012240F23057AA4015003A0061
S315000050C02A402F4200D028E140F240272F4200D04C
S315000050D01BE288222A4200D0FDE14FF6FF754146C9
S315000050E042462940170C0540020C080068438446D6
S315000050F0280016007843804608007E4302920396F5
S315000051003200029E70436646360CB146404448441F
S31500005110804505D9160080225202904646440396E1
S315000051204FF6FF78060C4246049666460004164083
S31500005130B4460200624405925246120C944640461A
S3150000514052460E00104046436246B14606005143A1
S315000051507E4357434A46B246120C90465144414458
S315000051608E4203D980225202904647440A0C90464A
S315000051704E463A004FF6FF773E40B146424406920D
S315000051800904049A494490468946C8444246049212
S315000051905A46120C90465A4617403E006E43B14698
S315000051A046466E43B2464E464546360CB346029ACE
S315000051B0079155437A4352445A44924503D9802174
S315000051C049028A465544160CB24655444FF6FF7AB4
S315000051D0494656460E40B1461204414691443A00AD
S315000051E046464243484361464E434F43110C8C4664
S315000051F03F18BC44B046604503D9802149028A461F
S31500005200D044049903988A46664650444FF6FF7A7E
S31500005210370456461640BA190799069E88428941B0
S31500005220B246494252445718BA4648444845BF41D7
S31500005230B24292418A458941AB467F424942524237
S31500005240B9460A436146D344D944090C5218B945B4
S31500005250BF41AB4589417F4249420F434946D21976
S3150000526042445202C90D059D11438B464102294312
S315000052704D1EA941C00D08434946490208438046D0
S31500005280D20100D468E101224308024013435A4682
S31500005290D207134398465B465B089B46009B99469C
S315000052A040F2FF33E118002900DCE4E043465B07E7
S315000052B00AD00F2342461340042B05D00432424540
S315000052C09B4190465B429B445B46DB0106D55A46B2
S315000052D03D4B1A4040F200439346E11840F2FE73FC
S315000052E0994200DD99E043465A46DB0852071A43C5
S315000052F05B465C0240F2FF73240B0B401CE05B46EE
S3150000530003439846002B00D0AEE0023340F2000B78
S31500005310082540F2FF740293A0E6009B9946029B83
S31500005320022B00D179E0032B00D1E4E0029B012B94
S31500005330B6D100230024002210004A461B05234351
S31500005340D2071343190009B0F0BCBB46B246A946C2
S31500005350A046F0BD5246009EE3181643002E7CD0B0
S3150000536003224E4640F6000C1543039A6444564009
S31500005370F2B200920A2D00DDB3E003219AE653460D
S31500005380009A1343002B60D05346002B00D1D3E084
S315000053905046FCF771F9020003000B3A1D27009EE8
S315000053A0BA1A19005046D6400839884032000243DE
S315000053B0009892468840054AE31A944600216344C1
S315000053C06CE6C04601FCFFFFFFFFFFFE0DFCFFFF82
S315000053D05B46034398468BB35B46002B00D199E0AE
S315000053E05846FCF749F90B235B429C46020084446D
S315000053F066461D239B1B260011005846DE400839D1
S315000054008840330003439B4623008B409846002385
S315000054106A4C0025A41A029320E640F2FF7300248A
S31500005420002289E7013D012D00D956E6009B9946E9
S315000054300229F2D0D3468046029177E7012340F253
S31500005440000B04250024029308E601331D4340F2B5
S31500005450000A23000020012120E6022240F2000A71
S3150000546000200221154319E6032380460C2540F24D
S31500005470FF740293F2E501235B1A382B00DD58E72F
S315000054801F2B72DD1F225242521A5946D140202B41
S3150000549007D040F23E4C5B4664444246A3401A4362
S315000054A090464246531E9A4107230A431900002498
S315000054B0114013420BD00F231340042B76D0131D3B
S315000054C09342A4411A00644261076402240BD20885
S315000054D000230A4330E7039BD34699468046029150
S315000054E01DE70F2D64D180245B462403234202D09E
S315000054F05346234234D080245B46424624031C4351
S315000055002403240B40F2FF7316E7802440F20009BF
S315000055102403F7E7FCF7B0F840F2150C84440200C8
S31500005520634620321C2B00DC62E7230008388340E8
S3150000553040F200089B466AE7FCF79EF8020003006B
S31500005540153220331C2A00DC28E702000099083AAD
S31500005550914000208A462EE7009A1C0091469FE65D
S315000055601C43039B02009946CCE740F21E4C5A4668
S3150000557041466444A240D9400A434146A140481EE0
S3150000558081415C460A43DC40530709D00F23134090
S31500005590042B05D0131D934292415242A4181A00BF
S315000055A0230291D5012300240022C5E600248BE7BF
S315000055B0039BD346994680469DE7C0460DFCFFFFF8
S315000055C0F0B557464546DE464E46E0B50D0383B078
S315000055D0009201934E00C3006D0ACC0F410F9C460A
S315000055E09846009A019B29431D035F00D80F6D0A58
S315000055F0530F2B439B46009B760DDA0040F2FF7358
S3150000560092467F0D9F4200D1DBE040F201094D46F4
S315000056106840F51BA946844200D189E0002D00DCD4
S3150000562074E3002F00D1EDE040F2FF739E4200D1FB
S3150000563084E148460125382817DC80205B460004B3
S3150000564003439B4648461F2800DD02E24B462020C6
S315000056501700C01A5D4682408540DF40501E8241D9
S315000056603D4315435A46DA40891A63465D1BAC45ED
S31500005670804140420B1A984643461B0200D458E12B
S3150000568043465B025B0A98464346002B00D131E154
S315000056904046FBF7F1FF0300083B20222F00D11AFA
S315000056A04046CF40984039009D4001439E4200DD70
S315000056B08EE1981B2B000130121AC3409540984684
S315000056C06B1E9D410B0093404246C1402A43150084
S315000056D0884600261D436B0709D00F232B40042B59
S315000056E005D02B1DAB42AD416D42A8441D0043467B
S315000056F01B0200D4DDE240F2FF7301369E4200D168
S31500005700F3E04146B54A334011400A005707ED0819
S3150000571052022F43120B1B051343E40723433800A1
S31500005720190003B0F0BCBB46B246A946A046F0BD80
S31500005730281E00DC04E3002F00D0C8E058461043C2
S31500005740002800D1FDE0681E012D00D1CDE140F218
S31500005750FF739D4200D1F1E00125382814DC814613
S315000057604B461F2B00DDDCE12020C01A5B46834040
S3150000577017001D004B468240DF40501E82413D43CC
S3150000578015435A46DA4089186544654580414042CA
S315000057908046884443461B0200D4CAE040F2FF73A9
S315000057A001369E4200D1A0E042468C4B01211A40B0
S315000057B0130029406A080A43DD075B08984615432B
S315000057C089E7874DA9465D461543B1447DB38442BA
S315000057D031D04D46002D62D0002E00D102E10400EA
S315000057E05946D2084F071743C9080B003B43002B05
S315000057F000D186E2802212030A43120340F2FF73AD
S31500005800120B88E758461043002800D199E028007B
S315000058100138012D00D179E140F2FF739D4200D19C
S315000058208CE00125382800DD1FE781460AE70125BF
S3150000583068408442CDD14B46002B00D192E0002E29
S3150000584000D01CE140F2FF7960460843002800D1F1
S31500005850E4E14B465D1E012B00D132E240F2FF70BF
