S016000052413245315F5445535444454D4F2E737265630F
S31500000000986C002011370000553400000D370000B1
S315000000100D3700000D3700000D3700000D370000CA
S315000000200000000000000000000000000D37000086
S315000000300D370000000000000D3700000D370000EE
S31500000040000000009D300000AD3000007931000056
S31500000050C50F0000410F0000511000008510000080
S3150000006000000000FD160000FD16000059170000F4
S31500000070000000000000000000000000000000007A
S31500000080000000000000000000000000000000006A
S31500000090000000000000000000000000000000005A
S315000000A0000000000000000000000000000000004A
S31500000400FFFFFFFFDFCEFFFFFCFF0F00FFFF0F0028
S31500000410FCFF0F00FFFF0F00FCFF0F00FFFF0F00A8
S31500000420FCFF0F20FFFF0F20FCFF7F40FFFF7F40F8
S31500000430FCFF0D40FFFF0D40FFFFFFFF44F2D420FD
S3150000044044F2D423C2F20000C2F2000310B5834284
S3150000045005D040F20003C0F2000303B1984710BD77
S3150000046044F2D42044F2D423C2F20000C2F20003C4
S315000004701B1A9A10D90F8918491010B529B140F2E4
S315000004800003C0F2000303B1984710BD10B544F253
S31500000490E824C2F20004237873B9FFF7CFFF40F2D5
S315000004A00003C0F200032BB148F6B430C0F20000DE
S315000004B000E000BF0123237010BDC04640F20003D8
S315000004C0C0F2000310B54BB144F2EC2148F6B4304B
S315000004D0C2F20001C0F2000000E000BFFFF7C0FF5B
S315000004E010BDC04610B503F015FA10BD10B538B9E9
S315000004F04CF2000390220121C4F27E03995410BDF0
S315000005000228FCD148F2A85144F20430C0F200019E
S31500000510C2F2000001F0C8F9F1E7C04610B5FFF7D6
S31500000520E1FF002010BDC046F0B5D6464F46464610
S3150000053045F24353C0B50268C5F24F4304000D00AF
S315000005409A4200D1BBE081670B68002B00D1A7E07F
S3150000055044F2F431C2F200010A78022A39D844F290
S31500000560E8305300C2F200001818A06144F2E430EB
S3150000057044F2D836C2F200001818E06144F2E030C6
S31500000580C2F20006B446C2F20000181820629000BB
S315000005906044606244F2D430C2F200001818A062CF
S315000005A044F2F030C2F200001818206144F2EC3038
S315000005B0C2F200001818606144F2C830C2F20000AE
S315000005C0844680209B185B00634423502B7CD21802
S315000005D00A702A8B40F2000AEB7C002A67D12C2293
S315000005E0A3542D232A7DE254EB8AE3852B8B2386A5
S315000005F02B7C73B300230021002240F2800C5800AC
S315000006002F68C618BF198046B8887F88B84201D9B6
S3150000061040F2030A4046A7690131FA52E769C9B2B6
S31500000620FA52276AFA52676A3A50A76AFA522F684C
S31500000630BF1978882769F8522F68BF19B888676983
S31500000640F852604627580233BE1972802E7C8E42BD
S31500000650D5D8534623B3EB69A97E5A682423D35CC5
S315000006602A685B002AB12D7CEA00521B02329B18D5
S315000006709BB244F268320533C2F2000249008B5243
S3150000068044F26433C2F200031C6045F24353C5F2E0
S315000006904F4323605046E0BCBA46B146A846F0BD7B
S315000006A0EB69E3670BCB1B6898478246D3E7504656
S315000006B09342404103224042024092468FE740F275
S315000006C00E0AE7E744F2643310B5C2F2000318607D
S315000006D0C36F18689B685B68984710BD0020704719
S315000006E010B5C46F2068A4686469A04710BDC046F1
S315000006F0F0B5C36F040018689B6883B09B680D0053
S3150000070001A9984741F27073984226D00233984265
S3150000071023D0A36F1A7CFAB1002701AEE26F7900ED
S3150000072052685279012A11D1A2693388525A00209F
S315000007309B1A2A685218002B06DBE8884343206977
S31500000740415A93FBF1F398B21080A36F0137197CDD
S31500000750FAB202369142E1D8002003B0F0BDC0469D
S31500000760F0B5836F00221E7C002440F2640C4FF625
S31500000770FF754EB31B685600B6189B195E88CB886A
S31500000780076973438E880134B3FBF6F3BB520369E2
S3150000079046699F5A0B7AE4B27B4393FBFCF3B35250
S315000007A006690B689F5AB35A7B43B3FBFCF3B352FB
S315000007B00F7A2B407B43B3FBFCF34669B352836F3E
S315000007C002321E7CA642D5D80020F0BDC18500208D
S315000007D07047C04610B570B145F243530268C5F282
S315000007E04F439A4205D1C36F18689B68DB689847E8
S315000007F010BD0720FCE70120FAE7C04610B504004B
S31500000800C8B145F243530268C5F24F439A4210D12C
S3150000081044F2F433816FC2F200031A78097C521A4B
S315000008201A70C36F18689B689B69984700232360FA
S3150000083010BD0720FCE70120FAE7C046F0B5DE460A
S315000008404E4657464546894644F2F831E0B5C36FF1
S31500000850040018689B6883B09B68C2F20001984741
S3150000086041F27073984200D1B7E10233984200D149
S31500000870B3E18023A66FE158337C73B300230022D3
S315000008800020002540F2000B40F20108CA465E0037
S31500000890B4465026E76F00957F689C44BF5D0F7194
S315000008A0E76F7F687E79B146012E00D1C4E0A56965
S315000008B0EF18ED5A05B93880A66F0132377CD5B2EC
S315000008C006310233BD42E2D33FB153462BB1A26893
S315000008D0E36851460A604B60A66FB57E002D00D1D5
S315000008E0C7E144F2683000230021C2F2000002880A
S315000008F001319B1889B29BB20230A942F7D31A0084
S3150000090001339BB29846971C131DD01CBFB29BB2F5
S3150000091080B244F27839C2F20009494609788C4619
S3150000092044F27C316546C2F200018D54454640F2E0
S315000009300808B27E4A554546E26F52685279AA4384
S31500000940012A00D169E1012240F22508CA55F2695F
S31500000950454657682422BA5C7F5D7A43D2B20A5470
S31500000960B2B144F2F830C2F2000007780588CF54DD
S315000009705F1CBFB22D0ACD5547889D1C8078ADB24D
S3150000098048559200D81C80B23F0A9B180F549BB260
S31500000990327C002A00D116E10022CA54307C9A1C0F
S315000009A001339BB292B2C8541300002800D10AE169
S315000009B0002040F22008009633E0E268EA40012574
S315000009C02A40CA54A7694200BF5C5D1CADB24F55B0
S315000009D0A7699D1CBF5AADB23F0A4F552769DD1C5A
S315000009E0BF5CADB24F5527691D1DBF5AADB23F0A58
S315000009F04F555F1DBFB2BA4667699D1DBF5CADB25C
S31500000A00BB4657465E46CE5566690130B25A073335
S31500000A10120A4A55009A9BB2157C82B2954200D8BA
S31500000A20D1E00500203DC8D54246E568121A95403A
S31500000A30A268C2402A43C2E76646A06F0068805D8E
S31500000A4044F2F836C2F20006B446A6694000F7182A
S31500000A50F65A60440088002E00D12CE70D705D46E2
S31500000A604D702669A569F65AED5AB4464FF6FF76DB
S31500000A706544B5426BD86669F65A854269D25E46C8
S31500000A802C27256AEE52E569EE180096ED5AE65DCA
S31500000A90AE4276D84D464D80258EE65DAE4200D2FA
S31500000AA0B0E01500203D00D5DBE00127AF4045460C
S31500000AB09540A6682E43E5683D43A660E5600D783F
S31500000AC000954D78E78D002F00D1F5E6009EB446DF
S31500000AD06544AF00B946676A6D004F44BC46019550
S31500000AE0203E00D580E03700E668FE4037004646E7
S31500000AF03E4000964646374255D167463E68019DC0
S31500000B0036183E60A76A7E5B01367E53A76AE68D7D
S31500000B107F5BB74200D2CFE6A7694D46BC46676AFF
S31500000B2001327F596546B7FBF6F7019E0631AF5392
S31500000B304D46666A009F02337751A66A019D775338
S31500000B40A66FD5B2377CBD4200D2A0E6BCE6002532
S31500000B50B8E7AD1BADB2A84216D25E46E569EE52C5
S31500000B602D26256AA65DEF18ED5AAE4247D85D469A
S31500000B704D801500203D0DD520254746AD1AEF4086
S31500000B800AE0009E013535804D88012D89D015007B
S31500000B90203DF1D44746AF4045469540A668AE4352
S31500000BA0E568BD4389E75F4666463760A66A019DEC
S31500000BB001327753A66FD5B2377C06310233BD4278
S31500000BC000D264E680E6624648460132027062461A
S31500000BD00020CA5401339BB2CB5C03B0F0BCBB46C9
S31500000BE0B246A946A046F0BD2027009D7E1BE768B9
S31500000BF0B7400097A768EF40009D2F4377E7013580
S31500000C003D80C1E7E669F718F65AB5422ED85D462B
S31500000C103D804D80A569E852B6E70022CA55F269C3
S31500000C2057682422BA5C0A54002A00D1B0E644F27E
S31500000C30F830C2F2000007780588CF545F1CBFB2B7
S31500000C402D0ACD55012A08D047889D1C8078ADB263
S31500000C504855D81C80B23F0A0F5452009B189BB2CD
S31500000C6096E620250127AD1AEF4020E701363E80A3
S31500000C708AE703200423022740F20108002248E6FF
S31500000C807B2330B5046AA5782B40A3708024837833
S31500000C909B079B0FD21A0261CB18026AC360937836
S31500000CA023439370032382781340022B04D0036AF4
S31500000CB00A78DA70002030BD0B884FF60061026AB0
S31500000CC00B43D381F6E7C046F0B5C64600B505002E
S31500000CD0806A84B08C4690466C46D8B123000600E4
S31500000CE086CE86C336681E60EB691B780360634652
S31500000CF0836043460371EB6AC3606B6A9847AB6ACD
S31500000D0023B123CC23C31A002368136004B080BC2C
S31500000D10B846F0BD2000E7E743F60002F0B5C64648
S31500000D20C0F200229446002600B50B780670634494
S31500000D305B01C16103624B690D0043628B6903214C
S31500000D400122C362837886628B43134383706A7879
S31500000D500B2753425A41837801328B4313438370E6
S31500000D60AB7A04009846EF57380002F0F1FB3800E2
S31500000D7002F098FB380005272200414602F0A0FB4E
S31500000D802B79EF579846380002F0E2FB380002F064
S31500000D9089FB380007272200414602F091FBAB7918
S31500000DA0EF579846380002F0D3FB380002F07AFB82
S31500000DB0380009272200414602F082FB2B7AEF57C2
S31500000DC09846380002F0C4FB380002F06BFB2200A4
S31500000DD04146380002F074FBEFF3108740F2010839
S31500000DE088F31088287846F6FC728446802063468D
S31500000DF00006D840C4F2040251688143516052682B
S31500000E0087F310884346226A9670226A1671226A10
S31500000E105672226A9672226AD672226A56832A7895
S31500000E20934040F207221A4203D0236AC83AFF3A97
S31500000E30DA740622236A1A772B7813B9236A3F4A93
S31500000E409A82AB78EA781B01D20013436A78032AA8
S31500000E5000D16FE051424A410F2152428A43F23299
S31500000E60216ADBB20B70236AFF269A710223EA69B4
S31500000E70206A117B49000B402021437390785378F8
S31500000E80400101400020DB0133400B43216A087218
S31500000E9011780239012942D90326216ADBB2CB71C6
S31500000EA05268216A93784B700B785078B343304080
S31500000EB003430B70D37859368B74C8791378B043D3
S31500000EC033400343CB7100230520E3602361636154
S31500000ED0A361EE69033335781D40E369185602F0C5
S31500000EE015FB0B20E369185602F010FB0720E36997
S31500000EF0185602F00BFB0920E369185602F006FBB0
S31500000F007023226A2B43937073890020238144F651
S31500000F105513C5F24333636080BCB846F0BD216A01
S31500000F204E701278022A01D10E321343226ADBB2C6
S31500000F30D371C8E73D321343B23291E700F8FFFFA1
S31500000F4010B5EFF30384103C64B2200002F0AAFA55
S31500000F5044F28053A400C2F20003E058C3691B693F
S31500000F609BB1036903B110BD026A7F2391780B40E0
S31500000F7004210B4393700023C360436A002BF2D015
S31500000F8080220021FFF7A0FEEDE70369026A002B2D
S31500000F90EBD003238478C1682340022B0BD00B7857
S31500000FA0D37082780369C1689207920F9B1A8A18D8
S31500000FB00361C260D6E70B884FF600610B43D3810D
S31500000FC0EFE7C04610B582B0EFF30384103C64B27D
S31500000FD0200002F067FA44F28053A400C2F2000334
S31500000FE0E4580323A2781340022B0DD0236A5979C3
S31500000FF0A369C9B2019183B9636A1BB104222000B7
S31500001000FFF762FE02B010BD40F2FF11236A1B8A91
S315000010101940A3690191002BEED09207920F6069E7
S3150000102001A903F0DBFCA37862699B079B0FD2182A
S315000010306261A269D31AA361002BE3D1636A002B14
S31500001040E0D0012200212000FFF73EFEDAE7C0468D
S3150000105010B5EFF3038444F28053103C64B2C2F23D
S315000010600003A200D0587B23026A91780B4093704C
S31500001070436A1BB102220021FFF726FE200002F080
S3150000108011FA10BD70B5EFF3038444F28053103C9F
S3150000109064B2C2F20003A200D05803238278134040
S315000010A0022B19D0036A5979C9B238221D792A4010
S315000010B0ED0602D51D7FED070BD538261D79B54304
S315000010C01D71436A0BB1FFF7FFFD200002F0EAF93C
S315000010D070BD40252A43F0E740F2FF11036A1A8AE1
S315000010E01140E2E7F8B5436844F200041A78282371
S315000010F0C4F20404E25406000F00C820012102F0E5
S315000011007BF924220121A35C8B43A354A35CDB0758
S31500001110DD0F002BFAD173681B78012B02D1658590
S31500001120BB88A38544F2000200212423C4F20402F2
S31500001130D1542431535CDB09002BFBD10220535CD4
S315000011400343535444F200022420C4F20402135C05
S315000011509B07D90F002BFADB2223D15444F200025D
S315000011602221C4F20402535C002BFCD1242140202E
S31500001170535C0343535444F20002C4F20402535C2A
S315000011805B06FCD5F8BDC04610B54168FFF7AAFF5F
S31500001190002010BD70B541604B690400C3608B69C7
S315000011A00D004361002303610372FFF79BFF0F20CD
S315000011B02856002803DB2200A97B02F081F90D20C6
S315000011C02856002803DB2200297B02F079F911203A
S315000011D02856002803DB2200297C02F071F945F22B
S315000011E04343C0F252030020236070BDF8B5CE46DB
S315000011F0474680B5436805005B7C0C005BB2002B5C
S3150000120010DB4EF200115A09CEF20001920052583C
S315000012101F210B40DA4013000122110019408C46B1
S315000012201A4214D144F2000222210220C4F204021E
S31500001230535C0343535420302039135C1942FCD0CD
S3150000124011206B68185602F061F940F2000C44F266
S31500001250000200260F2140F20309C4F204022E7296
S3150000126097783B099800804643440F405B00DB19A2
S31500001270DBB2236017793B09980080464846434411
S315000012800F405B00DB19DBB2636097793B090340D3
S315000012909800804643440F405B00DB19DBB2A36035
S315000012A0177A3B099800804643440F405B00DB19E0
S315000012B0DBB2A361977A3B099800804643440F400E
S315000012C05B00DB19DBB2E360177B3B0998008046C5
S315000012D043440F405B00DB19DBB2013B2361D78936
S315000012E0FFB23B099800804643445B000F40DB1980
S315000012F0DBB2643363612B7A002BB0D1634623B132
S315000013000020C0BCB946B046F8BD22210220535C7D
S315000013108343535444F200022030C4F204022039BD
S31500001320135C1942FCD111206B68185602F010F9B3
S31500001330E6E7C046F0B5C64644F20005242400B5EB
S31500001340C4F204052C5DE406E40F84421DD0002699
S315000013502E242E552E36AC5D002CFCD1012640F2F3
S31500001360100C242706403601B0466646EC5DB443B1
S3150000137046463443EC5544F200052426C4F20405DF
S31500001380AC5DE406E40F8442FAD1012811D03F2176
S3150000139092010B40134344F200022E20DBB2C4F24A
S315000013A0040211395354115C8B42FCD180BCB846FF
S315000013B0F0BD44F200042426C4F20404A55DAD0683
S315000013C0ED0F8D42E3D02027A55D0840BD434001C7
S315000013D028432425A055605D8006C00F8842FAD1B7
S315000013E0D5E7C04644F20002F8B524240125C4F22C
S315000013F00402135DAB431355135DDB07FCD40A23CC
S315000014000E78B6FBF3F7BD00ED196D00761B3C01B7
S315000014103443E4B294700E79B6FBF3F7BD00ED19D0
S315000014206D00761B3C013443E4B214710D7AB5FBB2
S31500001430F3F7BC00E41964002D1B3F243E0135433D
S315000014402C4094710E7EB6FBF3F7BD00ED196D00CE
S31500001450761B3C013443E4B214720E7BB6FBF3F701
S31500001460BD00ED196D00761B3C013443E4B2947265
S315000014700C690134E4B2B4FBF3F7BE00F61976004A
S315000014803D01A41B2C43E4B2147349696439C9B203
S31500001490B1FBF3F39D001C01EB185B00C91A214355
S315000014A0CBB2D38143681A786AB144F20002242190
S315000014B00120C4F20402535C03435354535CDB071C
S315000014C0FCD50020F8BD986843688278417800789A
S315000014D0FFF730FFE9E7C04644F2000270B5222567
S315000014E00F24C4F20402565D0B0134402343222428
S315000014F0DBB25355135D1B098B42FBD10421135DEF
S315000015000B43135544F200022224C4F20402135D75
S315000015101942FCD043680F20185601F0F7FF00204F
S3150000152070BDC04670B50D25436882B05D570C008E
S31500001530280002F00DF82423E25C002A00D1D9E04D
S315000015400A222178B1FBF2F2930010019B18802247
S315000015505B00C91A6B46014352420A43D2B20733B3
S315000015601A7044F210011A78C4F20401D2B20A7059
S315000015702522A25C002A00D1BAE00A212079B0FB1C
S31500001580F1F18A0052185200801A80220E0130436F
S3150000159052420243D2B21A7044F212011A78C4F2CD
S315000015A00401D2B20A702622A25C002A00D19DE074
S315000015B00A21207AB0FBF1F18A0052185200801AF3
S315000015C080220E01304352420243D2B21A7044F2D4
S315000015D014011A78C4F20401D2B20A702A22A25C5B
S315000015E0002A00D180E08022A16952420A43D2B289
S315000015F01A7044F216011A78C4F20401D2B20A70C3
S315000016002722A25C002A00D16BE00A21207BB0FBD6
S31500001610F1F18A0052185200801A80220E013043DE
S3150000162052420243D2B21A7044F218011A78C4F236
S315000016300401D2B20A702822A25C002A4FD00A20E6
S3150000164022690132D2B2B2FBF0F0810009184900DA
S31500001650521A06011643802252423243D2B21A70FF
S3150000166044F21A011A78C4F20401D2B20A7029228D
S31500001670A25C002A31D00A266269643AD2B2B2FB71
S31500001680F6F6B000801940003101121A0A43D2B2B0
S315000016901A7044F21C021B78C4F20402DBB21380F7
S315000016A0292344F21E02E35CC4F20402DB01DBB22E
S315000016B0137044F2000222210120C4F20402535C9A
S315000016C00343535421302139135C1942FCD02800BE
S315000016D001F01CFF002002B070BD1A70D9E71A7025
S315000016E0BEE701221A709FE71A7082E71A706EE74A
S315000016F01A7051E76B4607331A7032E7F0B583B0BC
S31500001700EFF3038444F28053103C64B2C2F2000348
S31500001710A200D558EB68C3B16B6828695B7B6E463F
S315000017205BB21B1B5A1E93415B009C4690B1320074
S31500001730010088C988C2634603706B694360EB6821
S3150000174098472B690BB103CE03C3200001F0AAFE14
S3150000175003B0F0BD3000EEE710B5EFF3038044F2BE
S315000017608053103840B28200C2F20003D3580122DF
S315000017701A7201F097FE10BD002303600020704727
S31500001780FF2010B540F600040B0A0840190109189D
S31500001790C4F2040489000B5900209B07DB0F137069
S315000017A010BDC046FF2301200B4098404FF6FF7343
S315000017B0034002B91B040022C4F204029446090A3B
S315000017C04901614400208B607047C046F0B5DE4693
S315000017D057464E464546E0B5EFF31082012383F3A4
S315000017E0108844F27C5BC2F2000B5B461B6833B97F
S315000017F040F60051C4F20401CB704033CB705B4617
S3150000180059461B6801330B6082F310880388002257
S315000018104BB380235B029946224B40F6000440F20C
S31500001820FF0C9846C4F204044368D1005B18614675
S315000018309F881E683B0A0F4049461B010E420AD08C
S31500001840D91989008A4645460959294055462951DC
S31500001850414631402951DB199B001E510132018856
S3150000186093B29942E0D8EFF31082012383F31088F4
S315000018705B461B6823B15B4659461B68013B0B6000
S315000018805B461B6833B940F60051C4F20401CB70C5
S315000018908033CB7082F31088F0BCBB46B246A946B3
S315000018A0A046F0BDFFFFFEFF45F2542310B5C5F27A
S315000018B04F0303600800FFF789FF002010BDC046F4
S315000018C010B50800FFF782FF002010BD70B582B08A
S315000018D001910092042244F200018256C2F20001F4
S315000018E09400655846F20001C032C4F2000192002D
S315000018F054581D4E34405450042448F2000245F218
S3150000190000410457C4F200011443CA899442FCD032
S3150000191008220A70019A0AB1019A6A60009A0AB10D
S31500001920009AAA60EA783F2114008C43802C18D0D4
S315000019303F2A00D8EB8145F200431822C4F2000387
S315000019401A70042346F200028021C356C4F2000234
S31500001950C0339B009858490401430020995002B0B7
S3150000196070BDAB81E7E7C046FFFFFFFE062070476C
S3150000197006207047042346F200028021C356C4F2B3
S315000019800002C0339B009858490401439950002037
S315000019907047C046042346F20002C356C4F2000252
S315000019A0C0339B0099580248014099500020704767
S315000019B0FFFFFFFE042244F200038256C2F2000338
S315000019C09200D35800220A604A60DA783F2A0DD97D
S315000019D040F200128A60D889013A02403F20CA606C
S315000019E0DA788243802A07D000207047802252028C
S315000019F08A60DB89CB60F7E7802252020A609B8906
S31500001A004B60F1E70620704706207047042330B587
S31500001A10C35646F200011A00C032C4F20001920019
S31500001A205458064D9B002C40545044F200020021AD
S31500001A30C2F2000299500160002030BDFFFFFFFE98
S31500001A40042346F2000270B5C356C4F20002C03346
S31500001A509B009C581E4D2C409C50042248F20003CB
S31500001A6045F200448256C4F200041A43E3899A42BE
S31500001A70FCD00B00FF26DA781C003F2A05D9DA894C
S31500001A8032401502521992B2DA81A27810333F2AF7
S31500001A90F1D845F2004308220424C4F200031A7068
S31500001AA044F200020457C2F20002A400A150182218
S31500001AB01A70042346F200028021C356C4F20002C3
S31500001AC0C0339B009858490401439950002070BDCB
S31500001AD0FFFFFFFEF8B544F2FC33C2F200031A78AA
S31500001AE004000D00002A32D06B681B785BB2002B15
S31500001AF052DB44F200069A00C2F20006B2580820F1
S31500001B0022BB23712D68DDB12B00FF27DA7819007F
S31500001B103F2A05D9DA893A401002121892B2DA81C0
S31500001B208A7810333F2AF1D845F200430822C4F2DE
S31500001B3000031A700422A2569200B55018221A7099
S31500001B4044F200330020C4F254432360F8BD012759
S31500001B501F70EFF3108187F310884EF20003C4F272
S31500001B600103DA690D480240DA61DB6981F3108806
S31500001B7044F20006C2F2000680220021300002F084
S31500001B80C7FE45F20043C4F200035E601F736B6834
S31500001B901B785BB2002BACDA0B20D7E7FFFFBFFF49
S31500001BA00379022B08D0836F05201B7C013B5A1E4C
S31500001BB093415B421840704741F27070FBE7C046A4
S31500001BC010B5802401518C21425088228350002078
S31500001BD010BDC046F8B544F20C45836FC2F200054D
S31500001BE01A7C04002F7822B1012F02D0C27900207E
S31500001BF00ABB40F203361A6B5368196823895800EA
S31500001C001B1848889BB206402F4830434880012065
S31500001C10C8818B81636A4B6042F22003C4F20803D9
S31500001C208B60012F38D0A379092B3FD093681068B9
S31500001C305B68984700B1F8BD40F20336A36F5A6B54
S31500001C4053681968238958001B1848889BB20640B8
S31500001C501E48304348800120C8818B8142F224030C
S31500001C60A06AC4F208034B6088602878012826D051
S31500001C70A0792389092802D058001B189BB28B81B2
S31500001C80A36A8B6042F22403C4F208034B60936894
S31500001C9010685B689847CEE70D4B8F814B60936861
S31500001CA010685B6898470028C5D1C5E723898B81F2
S31500001CB0936810685B6898470028BCD1BCE7083574
S31500001CC088818D604B60E2E700A8FFFF1890FFFF58
S31500001CD01044002070B5437904003BB942F200037A
S31500001CE0C4F208031A78920700D494E02379032BF0
S31500001CF000D1A4E07C2244F28053A256C2F2000333
S31500001D009200D4507D22A25620009200D4507E220A
S31500001D10A2569200D450FFF75DFF00287AD163796E
S31500001D20002B00D07EE042F200030621C4F2080335
S31500001D301A788A431A70EF22A379113B13425ED0B8
S31500001D405821963AA25C615C42F20003C9019201F5
S31500001D500A433F21C4F208031D780D402A43D2B23C
S31500001D601A70202237255E78A25CAA4335402A43A2
S31500001D705A70752233269D78A25CB54332402A43B9
S31500001D809A70A279092A5DD01F225A711A683C49B5
S31500001D900A401A601A68520052081A60802299682E
S31500001DA052020A439A608022996892020A439A6014
S31500001DB080229968D2020A439A605A23E25C42F270
S31500001DC00003C4F208031A735B22A25C5A735C22F6
S31500001DD0A25C9A735D22A25CDA735E22A25C1A741C
S31500001DE05F22A25C1A756022A25C5A756122A25C0F
S31500001DF09A756222A25CDA756322A25C1A760223C5
S31500001E002371237142F200030121C4F208031A78F8
S31500001E100A431A7070BD1B78DB0700D466E741F2EF
S31500001E207070F7E742F200030621C4F208031A783D
S31500001E300A431A701A7805398A431A707BE741F209
S31500001E407170E7E7802259711968D2050A431A6052
S31500001E508022196812060A431A6080229968520283
S31500001E600A439A609A6807490A409A609A6806493E
S31500001E700A409A609A6805490A409A609DE7C046FA
S31500001E80FFFFFFBFFFFFFDFFFFFFFBFFFFFFF7FFAA
S31500001E90F0B5DE4657464E464546E0B5038985B061
S31500001EA0002B00D1ACE0002640F2000800230024FD
S31500001EB00DE0012201340A7040F20C0C0133028954
S31500001EC0033699B2E044B6B28A4200D88FE002697E
S31500001ED0D118D25C002AECD142697100894692463B
S31500001EE00025D25CB3460195039400214C46554625
S31500001EF016009946320001230A4101271340174272
S31500001F0047D18379012B60D0C26B9623125BC35AEB
S31500001F1094465B084746FF224D440295456AEF59B1
S31500001F20BF0A17404FF6FF7201377B43DB081340A9
S31500001F306246D21A3B01DB1B7427DB00C75DDB0858
S31500001F403B4192FBF3F263009C4640F2FF3365444B
S31500001F502F683B40D3182ED440F2FF3A53453BDD61
S31500001F6001238B40029AF318137040F2FF33456A3F
S31500001F7065442F68BF0ABF022F60426A6244156833
S31500001F802B4313604B4645690122EE5C33000B413F
S31500001F901340019A013194469C44634602340193EE
S31500001FA00329A7D162465E464B46039C032A83D18A
S31500001FB00169C9187DE701238B40029DF3182B7038
S31500001FC0456A002365442F68D4E7C26A9333C35A2F
S31500001FD0125B5B0894469DE7002ACBD101328A400A
S31500001FE0029DB2182A70456A65442F68C2E7A2426C
S31500001FF006D005B0F0BCBB46B246A946A046F0BD29
S315000020000123C371F5E7C046037941F27170033BC2
S315000020105A4253415B4218407047C04670B5037937
S31500002020022B5CD0C379002B56D05023846FE35C1F
S31500002030012B09D002B3012A36D0022A09D18379AD
S31500002040012B4FD0002070BD022A60D0A2B1012A18
S315000020502AD0032AF6D18379012BF3D10389002BE9
S31500002060F0D00023C26ED25C01330A8004899AB292
S3150000207002319442F6D8E5E78379012BE2D1038950
S3150000208000240026002BDDD000230D19826AD21809
S31500002090125BEA520233062BF8D101360289B3B23B
S315000020A006349A42F0D8CDE78379012BCAD1038949
S315000020B000240026002BC5D000230D19C26A121970
S315000020C0D25AEA520233062BF8D101360289B3B24C
S315000020D006349A42F0D8B5E741F27270B3E741F29E
S315000020E07070B0E7038900240026002BAAD00023D5
S315000020F00D19026BD218125BEA520233062BF8D185
S3150000210001360289B3B206349A42F0D89AE7132010
S3150000211099E7C04630B50379022B1BD0C379B3B11A
S31500002120032382791340012B01D0002030BD03899F
S31500002130002BFAD00023426B0C889D005219548064
S31500002140013304899AB202319442F4D8EDE741F2A0
S315000021507270EBE741F27070E8E7C04610B5040014
S31500002160002836D045F255330268C4F254339A42F9
S3150000217013D144F24652C2F20002017A13885B1A66
S31500002180DBB21380032280790240012A07D00020A7
S3150000219083B100232371236010BD0720FCE744F2BE
S315000021A01C50C2F200000288521AD2B202800020ED
S315000021B0002BEED1A36F1B6B18689B681B6A9847B0
S315000021C00028E6D1A36F5B6B18689B681B6A98476B
S315000021D0DFE70120E0E7C04610B503790400022BD3
S315000021E001D0002010BD42F200031121C4F2080301
S315000021F01A684A401A603C23826FD05601F052F9A1
S315000022003D23A26FD05601F04DF93E23A26FD05662
S3150000221001F048F90123237100236381A381E0E7DC
S31500002220F0B54746CE4680B507AC24788046072CE5
S3150000223000D16DE05400A518A44644F20C44C2F245
S315000022400004A1460126ED002435CF00581C4D445C
S315000022502C884443A7425FD3013602350B2EF7D1B3
S3150000226044F20C456446C2F20005A946A418E400EF
S315000022704C440A2540F20B09248F444344F20C4691
S31500002280C2F200066244B44697007A19150010326D
S31500002290520062445288403542436D00D210654474
S315000022A094464F44B146604640377F004F446D88A0
S315000022B07E888A1A761B7243E410241A92FBF4F283
S315000022C05219062B10D891422AD30B0B53434FF6C3
S315000022D0FF74A34208D944F20C430122C2F2000360
S315000022E09A724FF6FF7214E04FF6FF734A43120BD1
S315000022F09A4218D9012342465B42138044F20C43AA
S315000023000122C2F200039A72C0BCB946B046F0BDC3
S31500002310002243461A80F7E73500B146013DADE796
S31500002320130B4B43D3E792B2F3E7C046F0B5DE4654
S3150000233057464E4645467423E0B5C35C8FB00493BA
S315000023408379040007930289002A00D112E1984696
S3150000235000230293059344F20C4300271100C2F2B6
S3150000236000030693059BFF209C46626A0025624493
S3150000237013688C469B0A18408246431C08AE40F2FE
S31500002380FF31505904350840010059430801401AED
S315000023900499C000C84001C60C2DF0D143466146E1
S315000023A0012B2FD0092B0DD0059B01370C3305933C
S315000023B0029B06330293BBB2994200D8DAE0A379B6
S315000023C09846CFE7059B626B7900D6187588D25A76
S315000023D02D04069B1543A26A895A1A78022A00D14F
S315000023E0CFE07180A28B012A0AD9B5FBF2F3ED1A70
S315000023F073881B04B3FBF2F35B1933801B0C7380E9
S315000024002189D1E7029BE26A984690444546062216
S315000024105E1B33004244B94616001F00A36A5B19CF
S31500002420D95B069B1B78022B00D19BE029800235E5
S31500002430AE42F3D14F460A9A089B9146A28B9C4620
S31500002440B800099B002ADBD0626B266B1118105A64
S315000024504A8812040243029882464046058856443A
S3150000246035804088B346C000C01837238001B0FBD2
S31500002470F3F30020634509D960464FF6FE7A1B1A2E
S31500002480DB084FF6FF70534500D898B25B4658807C
S31500002490434640F249089B88DB004B449B01B3FB53
S315000024A0F8F80023C4450CD2434666469B1BDB085E
S315000024B098464FF6FE7C4FF6FF73E04501D843463B
S315000024C09BB25E46B380E66EF61903962E1A0B96FD
S315000024D0EE1A0C96C61A0D960BAEB4460EAEB04664
S315000024E066469C463368002B01DA5B42336004364D
S315000024F0B045F7D10B9E6346B2460C9EB1460D9E83
S31500002500B0464E467600B24524DA46467600B346D5
S31500002510C3445E46F60FB446DC4466467610B245C2
S3150000252018DA2B1803254FF6FF70834201DD4FF6AC
S31500002530FF734B80039B1D70A08BB2FBF0F3D21A86
S315000025404B881B04B3FBF0F39A180A80120C4A80DE
S31500002550218929E7C14502DAEB180525E3E70625B7
S31500002560C318E0E7079B28000093049A5346FFF739
S3150000257057FE5CE70FB0F0BCBB46B246A946A04684
S31500002580F0BD079B049A0093B01C5346FFF748FE24
S3150000259028E7C04670B5037904000D00022B42D02F
S315000025A0836F1B7C002B3CD10379032B08D0A38BB4
S315000025B0C3B10323A2791340012B16D0002070BDAE
S315000025C0C379012B21D02000FFF7B0FEE37923B9B0
S315000025D00222A3799343012B1FD001232371A38BDE
S315000025E0002BE6D141F27270E9E72389002BE5D092
S315000025F00023626B99005218528801332A80218980
S315000026009AB202359142F4D8D8E7838BC28B9342B3
S31500002610D9D00BD201338383D5E72000FFF738FCEE
S31500002620DBE70520CBE741F27070C8E78283CAE793
S3150000263010B503790400022B3AD0C379012B07D0D9
S315000026400023E3712379032B18D041F2727010BD79
S315000026500389002BF4D00023002221699800CA5474
S315000026606169CA54A16901334250208999B28842EE
S31500002670F3D80023E3712379032BE6D1A36F1B7CE8
S315000026805BB10222A3799343012B0DD0E27901239A
S315000026902371012AD9D10020D9E72000FFF746FE91
S315000026A0E279002AF3D1ECE72000FFF7F1FBEDE732
S315000026B041F27070CBE7C046F0B55746DE464E464F
S315000026C0454645F25533E0B502688DB0C4F2543341
S315000026D00F0001909A4201D100F091FC03234A7940
S315000026E01340012B00D1D0E1002301990B718F67B4
S315000026F07A7903331340012B00D1D5E10B00098908
S315000027001B7A44F2445244F24655C2F20002904605
S31500002710C2F200052E88019CB0444246226144F272
S31500002720385244F24050C2F20002944644F220521B
S31500002730C2F2000030186061C2F20002B0006044CC
S315000027409446A06170008019800060446062682031
S315000027509B19DBB223522B803B7801206371FB8CE3
S31500002760E3830023A3832833FB5C4340E3717B7937
S31500002770092B01D1083BE371082320263879019CF7
S31500002780C0000340A355787940F2750C80010343DD
S31500002790A355582378786246E054B8780133E0545C
S315000027A0F87C0133E054387D0133E054787D013301
S315000027B0E054B87D0133E054F87D0133E054387EAF
S315000027C00133E054787E0133E054B87E0133E0549F
S315000027D0F87E0133E054387F0133E0547B791E3EA6
S315000027E0A3713B793340A35478794007C00F034364
S315000027F0A354B87900010343A3543B79002B4CD072
S31500002800012B04D0022B00D182E1032B02D17420CC
S31500002810019A1354002945D040F2000C0020E346EB
S31500002820002300264246A946BC46019914E04C6A9C
S315000028301579A0465479AD02528824062C432243CA
S315000028404446E25140F2060801330C899AB2C34469
S315000028500C30944224D90A69D6544A699F00D6544A
S315000028608A696446D65162466479126A5A44092CCA
S31500002870DDD0072C08D05479157924065288AD028C
S315000028804F6A2C4322433A504A6A1458121854602D
S315000028904A6A145812189460D4E77433E654B9E7B8
S315000028A067464D463C2340F23D087C22019CF95682
S315000028B03E26A1544246B9564032A154B957013278
S315000028C0A154F8562200022100F054FE434640F27D
S315000028D00008F8562200022100F04CFE22000221D8
S315000028E0B85700F047FE84234246E25422892B88DB
S315000028F09A4200D1F7E27B79072B11D042F200030E
S3150000290040F20021C4F208031A681E200A431A6026
S315000029101A680139FF390A431A60FF3900F06CFD65
S3150000292042F20009C4F208094B461A688023DB0309
S3150000293013434A461360802312681B0413434A4616
S3150000294013601F235371936AC04A44F20C4B134021
S315000029504A469362936A402293434A4693627B793E
S31500002960C2F2000B072B04D05B461878002800D172
S31500002970D3E042F20003C4F208031968B44A4020C7
S3150000298011408022D2020A431A605968B14AB24CF9
S315000029901140802252050A435A609A6AAF490A409A
S315000029A09A629A6AAE490A409A628022996A9205A8
S315000029B00A4380219A629A6A8A439A629A6A024311
S315000029C09A624CF2000240F2A430C4F27E0216581B
S315000029D05A6858685D688000800F844618689200BF
S315000029E02040186043F60070644643F2006C3602DD
S315000029F0920F360E5201B21A024392B29A85F20033
S31500002A00901BC000801B64018011001B644620439C
S31500002A1080B2D88544F600009219AD00D200AD0F01
S31500002A20921992116D01521B024392B21A868022AC
S31500002A301868D20302431A605B4601980122436577
S31500002A400023027183814381FA6A42508C22396CD9
S31500002A5081500021043A8350083281540232835255
S31500002A604833FA5A4C33C2524A3BFA5A4C33C25292
S31500002A7045F25533C4F25433036040460DB0F0BC02
S31500002A80BB46B246A946A046F0BD44F21C532422DA
S31500002A90C2F200031B888A5C9B18DBB2022B00D8AB
S31500002AA022E640F20308E8E744F21C5044F21051D3
S31500002AB0C2F200000288019C53009B185B00C2F220
S31500002AC000015918A16244F20451C2F200015918DA
S31500002AD0E16244F2F841C2F200018C4644F2F04150
S31500002AE0C2F2000163448C4623639300634463632C
S31500002AF0242344F20845FB5CC2F2000555199A18D6
S31500002B00D2B2028064202381E56619002252F8E5DC
S31500002B100020019A7233D0547CE601251D7013689B
S31500002B2044F2000213434A46136013684D4A40F2CA
S31500002B30000A13404A46136013684B4A4E46134038
S31500002B404A461360802392685B0213434A469360A9
S31500002B509368464A13404A4693609368444A134032
S31500002B604A4693609368434A13404A469360126804
S31500002B70374B1A408023DB0213434A46136041F663
S31500002B8000435A4653604B468022DD6018619B6ABB
S31500002B90380013434A4693625B4603931368364AEA
S31500002BA013404A461360802312689B0213434A4629
S31500002BB0136043465A46019C0293C02133680903B9
S31500002BC00B4333600123994653462025002740F2E4
S31500002BD002088246049305922000FEF7FBFF434657
S31500002BE04A46237133781343DBB233702379032BC0
S31500002BF0FCD15B46013D1B89ADB2FF18002DEBD120
S31500002C00059A049B7F099781356850469A46104B72
S31500002C1040F2010C1D408023DB022B43E24433606B
S31500002C205346042B2AD0012B00D1EBE15346022B4D
S31500002C3000D115E240F60005336802322B433360BB
S31500002C40802335689B022B433360B6E7FFFFFFDF27
S31500002C50FFFFF3FFFFFFFFCFFFFFBFFFFFFFFFF702
S31500002C60FFFFFFBFFF7FFFFFFFFFFEFFFFFFFDFF31
S31500002C70FFFFFBFFFFFFF7FFFFF7FFFF029BE74AA0
S31500002C809846736842F2000A13407360B36AE44AD6
S31500002C90C4F2080A1340B3628023B26ADB05134309
S31500002CA0B362E04B40F2000904931F2302934346AC
S31500002CB05746019C059306903B68DB4A13403B60F0
S31500002CC04B46072B00D9ECE0029BBB858023386876
S31500002CD0DB0303433B6001232025002640F2020864
S31500002CE09A462000FEF776FF4346524623713B780C
S31500002CF01343DBB23B702379032BFCD15B46013DCA
S31500002D001B89ADB2F618002DEBD140F2010C049BE5
S31500002D1076091E8002330493029BE14420339BB262
S31500002D2002934B460C2BC7D1059B40F2A83298461E
S31500002D304CF20003C4F27E039A58069F089240F2B2
S31500002D40A4329B584821DBB2059382235B44994603
S31500002D505B46C326029318234A464FF6FF70B946D0
S31500002D60183549420493F6040795049C089BC02530
S31500002D70E340DCB22B40802B00D1A1E0C02B00D178
S31500002D80AAE0002B00D19EE040F280137F252C4064
S31500002D901B199624029D2404AB82B4FBF3F306931D
S31500002DA06B4640F280741F8B44F20C43B7FBF4F77A
S31500002DB03C00C2F200039C463334640064446488D9
S31500002DC00994AC89099D23039C4644F20C433C00BC
S31500002DD0C2F200039A463434640054446488AA4616
S31500002DE0631B3C01E41B0993E401069BA4B21B1B75
S31500002DF0099CF027634340F28074B3FBF4F3534419
S31500002E009BB29CFBF3F303409C46130062469C4630
S31500002E10844C079DFF03238853431B0B63520340D7
S31500002E20B7FBF3F36353F023DB039A4657440234AC
S31500002E30B742F0D16246AA46039D54881388AF8CE8
S31500002E40E31A7B436D8C18317F1BB3FBF7F3E41A4F
S31500002E500023039F14807B84D48A3F8F938AC51BEB
S31500002E60E31A6B43039DED8E7F1BB3FBF7F3E41868
S31500002E700123D482039C5B422387049B1834083BBE
S31500002E800493534618330793029B03940233029329
S31500002E901832182900D068E702235A464F461370A5
S31500002EA067E5C0227B68920513437B608023B86A7E
S31500002EB01B050343BB62029B803B9BB2BB8505E7B8
S31500002EC040F2002362E7059D40F280134F2D00D8A3
S31500002ED05CE70133FF3359E7059D40F20013A02D4F
S31500002EE000D953E7F5E744F2A40548F2BC6144F281
S31500002EF000400423C2F20005C0F20001C2F2000045
S31500002F002B60FEF7D1FC01210A2000F075FA0023A0
S31500002F1048F2BC6144F20040C0F60143C0F2000131
S31500002F20C2F200002B60FEF7CBFC44F20040C2F276
S31500002F300000FEF721FCEFF31081012383F31088D4
S31500002F4046F6FC730820C4F204039A6882439A602A
S31500002F509B6881F310880AAD2900019CA36F1A6B48
S31500002F60536841CB41C10A9B2900994643460A93BF
S31500002F70936810681B689847804678B94B462900C5
S31500002F800A93A36F5A6B536841CB41C143460A93D8
S31500002F909368290010681B689847804642F2000132
S31500002FA0C4F208010B68214A134020220B600B680B
S31500002FB013430B604EF2000344F20C62C4F20103A9
S31500002FC0186A0723C2F20002050E12681D40AA40C5
S31500002FD0000A0340DA4048F63F2044F24023C0F29C
S31500002FE0F710C0F20F03B2FBF3F3824224D80A684B
S31500002FF00F48013B0240DBB20A60CB707BE440F233
S315000030000E083AE540F6000533682B433360336813
S31500003010084D02322B403360CFE5C046FFFFFFCF9D
S31500003020FFFFFFDF76440020FFFFBFFFFFFBFFFF30
S31500003030FFCFFFFFFFFFFDFF1A00213A1F2A13D91A
S315000030401A00413A3F2A1BD80A6812489B080240D8
S3150000305042F20000013B0243DBB20A60CB704AE455
S3150000306033680D4D2B40D1E70A680A485B080240D9
S3150000307041F20000013B0243DBB20A60CB703AE446
S3150000308043F200000A68DB08013B0243DBB20A6038
S31500003090CB7030E4FFCFFFFFFFF7FFFF10B5EFF374
S315000030A00380103840B200F0FDF910BD10B5EFF303
S315000030B00380103840B200F0F5F910BD882370B5D2
S315000030C00400C05882B06D46002853D02B00020081
S315000030D042CA42C30023037042F200032022C4F214
S315000030E00803597F0A4204D001210170597F914398
S315000030F0597742F20003C4F208031A7F3F2A12D915
S315000031001B7F5BB2002B29DB42F20003C4F20803EB
S315000031101B7F5B061DD442F200032021C4F2080384
S315000031201A7F0A431A7703232A7823718233E254DB
S315000031300733E35843608023E35803B19847882355
S31500003140E3580BB103CD03C300236381A38102B00F
S3150000315070BD0422037813430370DCE70222037870
S315000031601343037042F20003C4F208031B7F5B069D
S31500003170D1D5EEE72800ADE710B5EFF3038344F2AF
S315000031808052103B5BB2C2F200029B009C58EFF3E8
S315000031900380103840B200F085F96289A3899A420B
S315000031A003D084230122E25410BD2000FFF786FFDE
S315000031B0FAE7C0464EF20002AA2110B5C4F2010297
S315000031C004282ED0535CDB06DC0F002BFADB5454AC
S315000031D04EF20002AA21C4F20102535C002BFCD17C
S315000031E0A033D35C98421BD03623D35C3BB94EF256
S315000031F000023C21C4F20102535CDB07FCD54EF20F
S315000032000002A021C4F20102535CDB06FCD4505438
S315000032104EF20002A021C4F20102535CDB06FCD48C
S3150000322010BD535CDB06FCD4012353544EF200025E
S31500003230AA21C4F20102535CDB06FCD4F0E7C046C7
S315000032404EF20003262244F2D421C4F20103985C14
S315000032501B6A8000C2F2000141585B015B0F44F219
S315000032600C62D940C2F20002116070477047C04636
S315000032704EF2000340F2FE325549C4F2010370B526
S3150000328099524CF2000243F6C8710120C4F27E0244
S31500003290505444F2D42446F60042C2F20004C0F26E
S315000032A0DC22226041F20022C0F27A02626048F219
S315000032B0000241F60031A26022612622C0F2B70167
S315000032C0E160995C1A6A890061585201520F44F212
S315000032D00C65D140C2F20005296040F2134200217C
S315000032E09954A2220931995440F280429A5C2AB933
S315000032F040F281429B5C9B07002B63D04EF2000696
S3150000330040F28043C4F20106F25C002A4ED04EF22F
S315000033100003002240F28141C4F201035A540139EC
S315000033205A544EF20002A5230521C4F20102D154DB
S31500003330053BD35CCBB13623D35C1BB93731535C29
S31500003340DB07FCD54EF20002A021C4F20102535C59
S31500003350DB06D80F002BFADB50544EF20002A021F8
S31500003360C4F20102535CDB06FCD44EF200060022D6
S315000033703223C4F20106F2543C32B35C1B07FCD57F
S3150000338040F2001303223362DA3BF254F25C336AF2
S315000033909200A2585B015B0FDA4001202A60FFF71A
S315000033A009FF40F2FE330B4AF25270BD0132F2546D
S315000033B00121C82000F020F840F28042B35C012BC6
S315000033C0FCD1A4E740F2E830FFF750FFA9E7C0467A
S315000033D003A5FFFF00A5FFFF44F2000328220021FA
S315000033E0C4F20403995470477047C04600BEFEE716
S315000033F001380028FCD1704744F20C624CF60023D9
S3150000340070B54143C2F200021468C3F69A330D0048
S31500003410B3FBF4F4080040F2E8320023002100F088
S31500003420D1FB31B9B0FBF4F0800808B1FFF7E0FF3B
S3150000343070BDA000B5FBF0F040F2E8320023002199
S3150000344000F0C0FB0029F0D001204042FFF7D0FF7A
S31500003450EEE7C04646F2000340F2201270B50024A3
S315000034600126C4F200039D5A20329B5A1D402B00B0
S31500003470E3401E420AD044F24852C2F20002944689
S31500003480A30063441B680BB1E0B2984701340D2CCE
S31500003490EDD146F2000340F23012C4F200039D5211
S315000034A070BDC04646F20003C0308000C4F200037F
S315000034B0C25802490A40C250C3587047FFFFFEFF78
S315000034C0F0B5C64690464EF20012FF240325CEF212
S315000034D000029446220040F200370540ED008901C3
S315000034E0AA400C40AC4083089B0000B56344DE59FB
S315000034F0800096432643DE5144F280534246C2F290
S3150000350000031A5080BCB846F0BDC046030046F220
S31500003510000210B5C033C4F200029B0099580B4C50
S31500003520214099509B58BFF35F8F1F220123024011
S3150000353093404EF20012CEF20002944640F2801200
S315000035404009800060448350036010BDFFFFFEFF0A
S315000035501F21012201408A404EF200114309203307
S31500003560CEF200019B005A50BFF34F8FBFF36F8F0F
S315000035707047C046F0B5C64690464EF20012FF248C
S315000035800325CEF200029446220040F200370540A1
S31500003590ED008901AA400C40AC4083089B0000B5B1
S315000035A06344DE59810096432643DE5144F280533C
S315000035B04246C2F200035A50030046F20002C033EC
S315000035C0C4F200029B0099580C4C214099509B581C
S315000035D0BFF35F8F1F220123024093404EF2001279
S315000035E0CEF20002944640F2801240098000604408
S315000035F08350036080BCB846F0BDC046FFFFFEFFA7
S3150000360046F200000023C4F2000048F21C62C0F239
S3150000361000029A1812781AB11900C03189000A50AE
S315000036200133202BF1D1704730B5EFF31081012320
S3150000363083F3108844F200634000C2F200031A5A72
S315000036401AB11A5A013A92B21A521B5A83B94EF259
S31500003650000248F2C86340F2FE34C4F20102C0F22E
S315000036600003155B185A044B2B4383439BB2135339
S3150000367081F3108830BDC04600A5FFFF70B5EFF39B
S315000036801081012383F3108844F200624000C2F2E5
S315000036900002135A83B94EF2000448F2C86540F29C
S315000036A0FE36C4F20104C0F20005A35B2D5A2B437B
S315000036B04AF200552B43A353135A01339BB21352BC
S315000036C081F3108870BDC04644F2086210B5C2F29C
S315000036D000020300106858B1032103338B4346F6FA
S315000036E09801C318C2F200018B4207D8136010BDBF
S315000036F044F69800C2F200001060EDE701F05AF9B6
S315000037000C23036001204042F1E7C04600BE70472B
S3150000371010B500F003F8FCF701FFFEE7F0B54EF632
S31500003720005340F20005CEF20003C0F2000583B05C
S315000037309D600020FCF7DAFEFFF79AFD6B46002736
S31500003740DC1D277001202378FFF798FFEFF3108127
S31500003750012686F3108846F6FC73C4F204039A68C1
S315000037603C4802409A609A6881F3108840F600014E
S31500003770C4F204010A68D207D20F22700A68D2077F
S31500003780D20F22700A68D207D20F2270EFF310818F
S3150000379086F3108880229868520502439A609B68D7
S315000037A081F310880120FFF73FFF0120FCF79EFE02
S315000037B040F60053284AC4F200039F801A802A6804
S315000037C0264941F2000051189960DA6046F200027B
S315000037D040F22011C4F20002505244F6940244F220
S315000037E0E820C2F20002C2F200009E800021121AF6
S315000037F001F08EF844F2800044F2D42248F6B83143
S31500003800C2F20000C2F20002121AC0F2000101F078
S31500003810E5F844F2CC2544F2D023C2F20005C2F208
S3150000382000035B1B9E10002B05DD002408CD013430
S315000038309847A642FADCFFF703FDFFF7CDFD02200D
S31500003840FCF754FEFFF7DCFE0020FFF7CDFD03B0CA
S31500003850F0BDC046FFFFFFEF00A5FFFF00FCFFFF26
S3150000386044F235730122C2F200031A7044F2347333
S315000038700278C2F200031A707047C0460379022B21
S3150000388005D144F238730122C2F200031A70704760
S31500003890F0B5CE46474680B5914683B0002A20DD76
S315000038A0884644F23C7644F238740D000027C8443A
S315000038B0C2F20006C2F20004002344F21C30EB56AA
S315000038C0012201A9C2F200000193FDF7D9F9306087
S315000038D000B100BE2378002BFCD00135277045458A
S315000038E0EAD1484603B0C0BCB946B046F0BDC046B2
S315000038F00378022B07D02BB944F236730122C2F2A9
S3150000390000031A70704744F237730122C2F20003B3
S315000039101A70F7E7F0B5DE46454657464E4648F27A
S315000039204C5144F21C30E0B5C0F2000144F23C7543
S3150000393091B0C2F20000FDF7EFF9C2F2000528606F
S3150000394070B148F2807348F6280248F294707421E8
S31500003950C0F20003C0F20002C0F20000FFF746FD0D
S3150000396048F2B070C0F2000000F0E6FE48F2805166
S3150000397044F24C30C0F20001C2F20000FDF70AFC2E
S31500003980286070B148F2807348F6280248F29470B5
S315000039907C21C0F20003C0F20002C0F20000FFF773
S315000039A025FD44F24C30C2F20000FDF7EDFB44F277
S315000039B0E00144F24C30C2F20001C2F20000FDF711
S315000039C011FD44F24C300E21C2F20000FDF784FDD9
S315000039D044F2AC0144F24C30C2F20001C2F20000E3
S315000039E0FDF7A0FD48F2D063C0F200031A685968DB
S315000039F010009146FCF798FD002800D086E002AB47
S31500003A009C4644F23673C2F2000304932B0012273D
S31500003A10132644F2357444F2407B44F2377A286028
S31500003A2040F201084D46994667446644C2F20004D6
S31500003A30C2F2000BC2F2000A44F204303A0000213E
S31500003A40C2F20000FDF79CFE3B78002B6AD044F2E0
S31500003A500430002240F20821C2F20000FDF7A2FE67
S31500003A6044F2043032000121C2F20000FDF788FE64
S31500003A703378002B4CD044F20430002240F20B1174
S31500003A80C2F20000FDF78EFE2800FCF71BFE4B4637
S31500003A901860E0BB2378002BFCD044F24071002371
S31500003AA000222800C2F200012370FCF7C7FE4B4635
S31500003AB01860F8B95B46424641461B681A400B42FD
S31500003AC077D044F20430424640F60D11C2F20000AF
S31500003AD0FDF768FE5B46196802230A001A40194280
S31500003AE05ED044F20430424640F60E11C2F20000A7
S31500003AF0FDF758FE53461B7843BB049B1B78DBB986
S31500003B0040F2E8311420FFF777FC95E7FEE7FEE781
S31500003B1044F20430424640F20B11C2F20000FDF7B7
S31500003B2041FEB1E744F20430424640F20821C2F2B7
S31500003B300000FDF737FE93E748F2E0700023049A91
S31500003B40C0F20000137000F0F7FDD9E744F24C30E4
S31500003B5007A9C2F20000FDF749FB52460023FF20E9
S31500003B6013700A9B0B9A034005930D9B024003407A
S31500003B700393079B40F26C7C03400293089B0C99CD
S31500003B8003400193099B89B21840009048F2B8702F
S31500003B90059B01326144C0F2000000F069FDACE70C
S31500003BA044F2043040F60E11C2F20000FDF7FAFDB1
S31500003BB0A0E744F2043040F60D11C2F20000FDF712
S31500003BC0F1FD87E7F0B54FF6FF750400CE462C40B1
S31500003BD0474615400E002900994680B5130C07008C
S31500003BE0000C61434543584363430C0C5B19E418CE
S31500003BF08C46A54203D980235B0298464044230C99
S31500003C0061461B184FF6FF700840494656437943F4
S31500003C10240489192018C918C0BCB946B046F0BD9D
S31500003C201C2101231B04984201D3000C10391B0AE6
S31500003C30984201D3000A08391B09984201D30009AA
S31500003C40043902A2105C40187047C0460403020201
S31500003C50010101010000000000000000F0B51F0096
S31500003C60002316008BB09F4204DA802109067B18D8
S31500003C701F002D23129A149D1370202303229D43A7
S31500003C80462D07D02B00453B59424B411099013A2E
S31500003C90CB18109309AB049308AB0393139B0092C4
S31500003CA00293109B320001933B0000F02FFF0400AB
S31500003CB0472D1AD1119BDB0710D5109BC31807930C
S31500003CC0002200233000390002F068FC08B1079B8F
S31500003CD009933022099B07998B421FD32000099B29
S31500003CE0159A1B1B13600BB0F0BD109BC3180793EE
S31500003CF0462DE5D10378302B0BD10022002330006E
S31500003D00390002F04BFC20B90123109A9B1A139A32
S31500003D101360139B079A1B68D318D0E7591C0991A7
S31500003D201A70D7E7F7B52B230270002901DA49424A
S31500003D3002334370092926DD6B46DA1D15000A2772
S31500003D4091FBF7F63B007343CB1A30331400013A6C
S31500003D5013700B003100632BF2DCA61E3031831C7E
S31500003D60317032001900954208D80022B54202D3BC
S31500003D7009326A44121B9B18181AFEBD17780132C5
S31500003D800F700131EFE7302330318370C170031DAE
S31500003D90F2E7FFFFF0B597B00D000A921C9C0B935B
S31500003DA0099000F0BDFD036818000D9300F01FFE9A
S31500003DB000230F9014932B7E07220C932B680E93EF
S31500003DC00E992368C90542D59B1893431A000832F9
S31500003DD0226001221E685F687B005B0811931096C3
S31500003DE0AE64EF6410981199A54B524204F08EFA16
S31500003DF000282ED1109811990122A14B524202F0AF
S31500003E00DDFB30BB002200233000390002F0CCFB82
S31500003E1018B12B002D2243331A700C9B472B2AD83E
S31500003E20984F032300240E9A2B6101339A432A608C
S31500003E300B9B2900009309980A9B15AA00F0E2F94A
S31500003E40013000D09EE00120404217B0F0BD07339C
S31500003E50BBE732003B003000390004F057FA70B17E
S31500003E60002F03DA2B002D2243331A700C9B472BAD
S31500003E7003D8854FD5E7854FD3E7854FD1E7202275
S31500003E800C9C6B6894435A1C46D107336B6040F216
S31500003E9000430E9A0AA9134300222B60069214AA25
S31500003EA005920C9A0193049213AA039223225218A4
S31500003EB002926B683200009309983B00FFF7CEFE32
S31500003EC0139A0700472C2DD1D31C02DB6B689A424C
S31500003ED045DD0C9B023BDBB20C93280013990C9A30
S31500003EE0013950301391FFF71DFF149A040013187F
S31500003EF02B61012A02DC2A68D20701D501332B6126
S31500003F0023230AAA9B181B78002B00D190E72B00CD
S31500003F102D2243331A708BE7472CB8D1002BB6D12C
S31500003F200133B3E70C9B652BD7D90C9B662B18D1B5
S31500003F306B68002A08DD2A6113B92968C9070AD502
S31500003F4001339B182B6106E01BB901222968114237
S31500003F5000D09A1C2A61139B0024AB65D0E7672327
S31500003F600C931399149B994206DB2B682961DB0796
S31500003F70F1D501312961EEE701220029E1DC921831
S31500003F80521ADEE72A68530508D42B693A000A99C3
S31500003F9009980B9CA047013028D154E70C9B652B50
S31500003FA000D8DAE0A86CE96C0022002302F0F6FAE9
S31500003FB098B30123374A0A9909980B9CA047013008
S31500003FC000D140E7149E139BB34202DB2B68DB074C
S31500003FD00CD50B9C0F9B0D9A0A990998A0470024B3
S31500003FE0013000D12FE7731EA3420ADC2B689B0722
S31500003FF000D505E1159BE868984200DB25E7180027
S3150000400023E72A0001230A9909980B9F1A32B84719
S31500004010013000D117E70134E5E7139B002B3BDCA9
S3150000402001231C4A0A9909980B9CA047013000D12C
S3150000403009E7149E139B334313B92B68DB07D5D5C9
S315000040400F9B0D9A0A9909980B9CA04700230130F3
S3150000405000D1F8E60C93139B0C9A5B42934201DC69
S31500004060330093E72A0001230A9909980B9C1A3218
S31500004070A047013000D1E6E60C9B0133EAE7C046D3
S31500004080FFFFEF7F368800003E8800003A88000078
S315000040904288000046880000149BAE6D0C939E4239
S315000040A000DD1E00002E31DCF3430024DB17334015
S315000040B00E93AE6D0E9BF31AA34230DC139B0C9A43
S315000040C09A4238DC2B68DB0735D4139C0C9B0C9A80
S315000040D09B1B141B9C4200DD1C00002C34DCE343BC
S315000040E00026DB171C40139B0C9AD31A1B1BB342EA
S315000040F000DC7BE72A0001230A9909980B9F1A32F4
S31500004100B847013000D19EE60136ECE733003A00AD
S315000041100A9909980B9CA0470130C5D193E62A005D
S3150000412001230A9909980B9E1A32B047013000D133
S3150000413089E60134BDE70F9B0D9A0A9909980B9CF5
S31500004140A0470130C1D17EE6BA1923000A99099821
S315000041500B9EB0470130C2D175E6149B0C93012B20
S3150000416002DC01231A4238D001233A000A99099841
S315000041700B9EB047013000D165E60F9B0D9A0A9958
S3150000418009980B9EB047013000D15CE6A86CE96C3B
S315000041900C9B0022013B0C93002302F0FFF9D0B9DF
S315000041A00C9B7A1C0A9909980B9EB04701300ED1D8
S315000041B049E62A0001230A9909980B9F1A32B84743
S315000041C0013000D13FE601360C9B9E42F1DB2A000E
S315000041D023005032DBE60026F6E73A00E2E72A0043
S315000041E001230A9909980B9E1932B047013000D174
S315000041F029E60134EB68159A9B1AA342EFDCF9E62F
S315000042000024F7E7F7B5160001938A680B690C00DE
S315000042100090934200DA1300220033604332127892
S315000042200AB10133336023689B0602D53368023333
S3150000423033602268062315001D401A4227D023004A
S3150000424043331B785A1E93412268920630D42200CB
S3150000425001990098089D4332A847013025D00622CF
S31500004260236800251340042B05D13368E568ED1A51
S31500004270EB43DB171D40A3682269934201DD9B1ABD
S31500004280ED180026B54220D1002010E00135E36884
S3150000429032689B1AAB42D2DD2200012301990098B5
S315000042A0089F1932B8470130F0D101204042FEBDC7
S315000042B03020E1184331087021005A1C4531097835
S315000042C0A218433202331170C1E72200012301997B
S315000042D00098089F1A32B8470130E6D00136D1E778
S315000042E0F0B50E0089B00492039005930C00097E88
S315000042F00E9A4336782907D8622909D8002900D1B1
S31500004300B7E0582900D1A0E025004235297022E007
S31500004310080063381528F7D802F026F916001F00A2
S31500004320F6FFF6FFF6FFF6FF1F00F6FFF6FFF6FFB5
S31500004330F6FF9E0034004300F6FFF6FFAF00F6FFDF
S315000043403400F6FFF6FF4700250013684235191DB5
S315000043501B6811602B7001239CE013682068191DEF
S31500004360050609D51B681160002B02DA2D225B4277
S3150000437032700A225B4832E01B6811604006F3D5B2
S315000043801BB2F1E71068256808C82F0602D46D062F
S3150000439000D59BB21060082252486F291BD00A2212
S315000043A019E0202321680B43236078214E4823001F
S315000043B0453319701568216808CD0F0602D44F06DB
S315000043C000D59BB21560CA0702D520220A43226097
S315000043D0002B3CD010222100002543310D7061686E
S315000043E0A160002908DB40F2040C674625681943E2
S315000043F0BD432560350061B13500B3FBF2FC614673
S315000044005143591A415C013D2970190063468A429D
S31500004410F3D9082A09D12368DB0706D56268236920
S315000044209A4202DC3023013D2B70761B2661059BE8
S31500004430210000930398049B07AAFFF7E3FE0130CF
S315000044402CD10120404209B0F0BD2648AFE720211B
S3150000445022688A432260BDE713682568181D6169D2
S3150000446010601B682F0601D5196002E06D06FBD5AA
S315000044701980002335002361D9E71368191D1160DF
S315000044801D6800212800626800F09DFA08B1401BF3
S3150000449060606368236100233370C8E72A002369DC
S315000044A004990398059DA8470130CAD023689B0745
S315000044B015D4079BE0689842C5DA1800C3E72200C6
S315000044C0012304990398059E1932B0470130B8D0EC
S315000044D00135E368079A9B1AAB42F0DCE9E7002551
S315000044E0F7E7C0464888000059880000002310B549
S315000044F0040003604360836081814366C281036177
S3150000450043618361190008225C3000F001FA0B4B0D
S31500004510246263620A4BA3620A4BE3620A4B23637B
S315000045200A4B9C4205D00A4B9C4202D0094B9C4246
S3150000453003D12000583000F043FA10BD4D4700006B
S3150000454075470000AD470000D947000048470020E6
S31500004550B04700201848002010B5034A0349044814
S3150000456000F06AF810BDC046044100204163000017
S315000045701441002041680B4B10B50400994201D04C
S3150000458001F0DEFEA168084B994202D0200001F03E
S31500004590D7FEE168054B994202D0200001F0D0FE1B
S315000045A010BDC04648470020B047002018480020EC
S315000045B010B5094B094A04211A6009480022FFF781
S315000045C095FF012209210748FFF790FF02221221D9
S315000045D00548FFF78BFF10BD8048002059450000B5
S315000045E048470020B04700201848002010B5024870
S315000045F000F0E7F910BDC0468948002010B5024812
S3150000460000F0E0F910BDC0468948002010B504004E
S31500004610FFF7ECFF236A13B1FFF7F0FF10BD044B61
S315000046202362044B1B68002BF6D1FFF7C1FFF3E7AB
S315000046307545000080480020F7B51400002600905C
S315000046400191A5686768013F04D52468002CF8D15C
S315000046503000FEBDAB89012B08D90E22AB5E0133BB
S3150000466004D029000098019B984706436835EAE77D
S315000046700FB407B5054904AB086804CB81680193FC
S3150000468001F0C6FC03B008BC04B018471041002076
S31500004690036A70B505000E0084680BB9FFF7B6FF14
S315000046A0636EDB0705D4A3899B0502D4A06D00F0D9
S315000046B088F9A3891B0701D52369F3B921002800CE
S315000046C000F0CEF8C8B101256D42636EDB0705D454
S315000046D0A3899B0502D4A06D00F074F9280070BD73
S315000046E00136A360002B04DAA2699A4216DC0A2975
S315000046F014D023685A1C22601970A3683178013BD4
S315000047000029EDD1A360002B0FDA220028000A3120
S3150000471000F068F80130D6D00A25D6E72200280036
S3150000472000F060F80130E8D1CDE723685A1C22601A
S315000047300A221A70F0E7FFFF10B5034B0100186854
S31500004740FFF7A6FF10BDC0461041002070B50C0053
S315000047500E25495F00F00AF9002803DB636D1B187C
S31500004760636570BDA389024A1340A381F9E7C04679
S31500004770FFEFFFFFF8B51F008B8905000C00160040
S31500004780DB0505D50E23C95E0022022300F0DCF806
S31500004790A389054A28001340A38132000E23E15E57
S315000047A03B0000F0F5F8F8BDFFEFFFFF70B50C0019
S315000047B00E25495F00F0C8F8A389421C03D1054ABB
S315000047C01340A38170BD41F200021343A3816065CB
S315000047D0F8E7C046FFEFFFFF10B50E23C95E00F0F5
S315000047E0A3F810BDF8B506000D00140018B1036A51
S315000047F00BB9FFF70BFFA369A360A3891B0701D5BC
S31500004800236943B92100300000F02AF818B10125C8
S315000048106D422800F8BD23692068EFB2C01A6369AB
S31500004820EDB2834205DC2100300001F089FD00284D
S31500004830EDD1A3680130013BA36023685A1C2260B6
S315000048401F706369834204D0A389DB07E1D50A2D73
S31500004850DFD12100300001F073FD0028D9D0D6E762
S315000048602A4B70B5050018680C0018B1036A0BB91D
S31500004870FFF7CCFE0C22A35E1A0722D4DA0607D471
S3150000488009222A60402201201343A381404237E0D7
S315000048905B0712D5616B41B123004433994202D0C4
S315000048A0280000F009FF002363632422A3899343B1
S315000048B0A38100236360236923600823A28913432D
S315000048C0A38123695BB940F2802140F20022A389CB
S315000048D00B40934203D02100280001F083FD0C22F7
S315000048E0A35E01211A000A400B420AD00022A260F0
S315000048F062695242A261226900200AB91A06C1D42D
S3150000490070BD990700D46269A260F4E710410020E7
S3150000491003008218934200D1704719700133F9E7FA
S315000049200048704750420020002370B5054D040032
S3150000493008002B6003F08EFD431C02D12B6803B1E7
S31500004940236070BD8448002070B504000800110083
S315000049501A000023044D2B6003F098FD431C02D17E
S315000049602B6803B1236070BD8448002070B5040035
S31500004970080011001A000023044D2B6003F090FD7F
S31500004980431C02D12B6803B1236070BD844800200C
S3150000499070B50400080011001A000023044D2B60B6
S315000049A0FEF776FF431C02D12B6803B1236070BD6E
S315000049B084480020014B18687047C046104100200B
S315000049C0704770477047C9B28218904201D10020E3
S315000049D0704703788B42FBD00130F6E7002310B511
S315000049E09A4200D110BDCC5CC4540133F8E70023D1
S315000049F0C25C0133002AFBD1581E7047F0B503692B
S31500004A000C69050089B00020A3426ADB0B00013C5B
S31500004A101433A00004931B1805932B0014331818A5
S31500004A200193059B02681B680133B2FBF3F60296FD
S31500004A309A422FD3019B049F9C460023039307931E
S31500004A4008CF029A9EB25643039A1B0CB618029AD6
S31500004A505343320C9B181A0C039262461268B6B284
S31500004A6006926A46128B9BB2921B079E9219069E6D
S31500004A70360CF31A16149E1933140793634692B232
S31500004A803604324304C39C46059BBB42D8D2036816
S31500004A90002B2BD0280001F085F9002820DB002709
S31500004AA0019E0499336801C903936B469B8982B2C0
S31500004AB09A1A039BD219000C1B0C1B1A10141B18F4
S31500004AC01F1492B21B041A43059B04C68B42E9D2FB
S31500004AD0019AA300D3181A688AB1029B0133029384
S31500004AE0029809B0F0BD036823B9013C019B043864
S31500004AF08342F8D32C61CDE71A6822B9013C019AAA
S31500004B00043B9A42F8D32C61E7E7FFFFF0B51400A7
S31500004B101D00C6699DB00A940B95259F03907EB92A
S31500004B20102000F011FE039B0200D86120B9EF218E
S31500004B30BF4BC048FEF75AFC466086600660C660FA
S31500004B40039BDB69196859B15A68012393404A608F
S31500004B508B60039800F0F4FE0022039BDB691A6069
S31500004B60002D19DA01233B606B005B080B930B9F4A
S31500004B70B14BB14A3B4093421DD142F20F73249A86
S31500004B8013603B031B0B2343002B01D100F069FD8F
S31500004B90269B63B9A94B23E000233B60E7E7A84BBC
S31500004BA00893A84B269A136008981DB0F0BDA34B36
S31500004BB00893A54BF6E70A9A0B9B12921393129849
S31500004BC013990022002301F0E9FC060050B10123ED
S31500004BD0249A1360269B13B19C4B269A13609C4B18
S31500004BE00893E1E71AAB01931BAB00930398129A63
S31500004BF0139B01F089F97A00520D0590002A79D0AD
S31500004C00139B18961903934B090B0B43924957189C
S31500004C101298139919000022904B02F0A5FF904AB2
S31500004C20904B02F0C7FC904A904B01F0E5FC040063
S31500004C3038000D0003F0BEFB8D4A8E4B02F0BAFC25
S31500004C4002000B002000290001F0D6FC04000D0034
S31500004C5003F078FB0022049000232000290001F0D5
S31500004C60A3FC58B1049803F0A5FB2B00220001F029
S31500004C7095FC43425841049B1B1A04930123159348
S31500004C80049B162B0FD8129813997B4ADB009B18AE
S31500004C901A685B6801F088FC002849D0049B013B38
S31500004CA004930023159300221A9B0992DB1B5A1EBC
S31500004CB040D50122D31A099300230E93049B002B9F
S31500004CC03ADB049A0E9B944663440E930023149297
S31500004CD00F93229B0124092B62D8052B02DD0024A9
S31500004CE0043B2293229B981E032863D801F032FCD2
S31500004CF054563A2D1B9B1A9EF61840F23243F21870
S31500004D00202A10DD40239B1A9F4040F21243F318DD
S31500004D10DC403800204303F079FB0122574B771E15
S31500004D20CB18189276E7202320009B1A9840F2E7CA
S31500004D301590B8E70E92C1E7099B049A9B1A09934E
S31500004D4053420F9300231493C3E70123239A10932E
S31500004D509446049B6344069301330C93002B08DCB2
S31500004D60012306E001231093239B002B26DD0693E7
S31500004D700C93039A0021D0690422150014359D4234
S31500004D8021D94160039800F09BFD0890F0B902001C
S31500004D9040F2AF113A4BCCE60023E4E70023D5E717
S31500004DA0002310942293013B002206930C931333A5
S31500004DB02392DEE701231093023BF5E701231A0055
S31500004DC006930C93F4E701315200D6E7039B089A49
S31500004DD0DB691A600C9B0E2B00D9D1E0002C00D1A8
S31500004DE0CEE0049B002B60DD0F2223491340DB003D
S31500004DF05B181E685F68049B02241D11DB050AD53B
S31500004E00129813991F4B15401A6A5B6A01F076FFD8
S31500004E100A900B9101341B4B0D93ADBB0A980B996D
S31500004E2032003B0001F06AFF0A900B9157E0C04642
S31500004E30778800008E8800000000F07F73880000ED
S31500004E406A880000728800007688000047880000A3
S31500004E50468800000000F03F01FCFFFF0000F83F1D
S31500004E6061436F63A787D23FB3C8608B288AC63F6A
S31500004E70FB799F501344D33FA8890000000010FE21
S31500004E80E78800008089000001231D4209D0E4184C
S31500004E900D9B30001A685B68390002F08BFB060038
S31500004EA00F000D9B6D100833B6E7049B0224B3B1C7
S31500004EB0129813995D420F23D34A2B40DB009B18AF
S31500004EC01A685B6802F076FB012700230A900B91B3
S31500004ED0CE4E2D11002D00D093E0002BA4D10A9EBA
S31500004EE00B9F159B002B00D196E000223000390065
S31500004EF0C74B01F059FB002800D18DE00C9B002B1D
S31500004F0000D189E0069B002B36DD049B0022013B85
S31500004F100D933000BF4B390002F04CFB0A900B9109
S31500004F20069B01342000119303F044FA0A9A0B9B66
S31500004F3002F040FBB84B002201F05EFBB74B0600C7
S31500004F40CF18119B002B6BD10A980B990022B44BFA
S31500004F5002F00AFE32003B0004000D0001F038FBAF
S31500004F60002800D0A8E2802109067B183200200024
S31500004F70290001F019FB40BB129B139C0A930B946A
S31500004F801B9B002B00DA71E1049A0E2A00DD6DE10D
S31500004F90D3009D4A9B185C681B6806930794239B65
S31500004FA0002B00DBE6E00C9B002B00DDE2E063B9A2
S31500004FB00698079900229A4B02F0FCFA0A9A0B9B74
S31500004FC001F010FB002800D179E200263700239B70
S31500004FD0089CDB430D93049700273100039800F0EB
S31500004FE0AFFC049B002B00D1BAE02FB19F4203D047
S31500004FF03900039800F0A4FC0499039800F0A0FC83
S31500005000AEE03D4205D03268736802F0D3FA3B0049
S3150000501001346D1008365DE7049B0D930C9B81E708
S31500005020119B794A013BDB0010999B181A685B6853
S3150000503000294CD000207B4901F060FE32003B0085
S3150000504002F092FD089A060094460F00089B1693FC
S31500005050119B634411930A980B9903F073F90500A9
S3150000506003F0A8F902000B000A980B9902F07CFDE8
S31500005070169B30355C1C1D7032003B000A900B916C
S3150000508001F092FA00286BD10A9A0B9B0020604926
S3150000509002F06AFD32003B0001F086FA002800D0DB
S315000050A0C4E0119BA34200D166E70022300039001C
S315000050B0584B02F07FFA002206000F000A980B995F
S315000050C0544B02F077FA16940A900B91C3E730001E
S315000050D0390002F06FFA089D119A2B00944616903B
S315000050E01791634419930A980B9903F02BF904005E
S315000050F003F060F90B0002000A980B9902F034FDE8
S315000051003034199B2C70013506000F00AB422AD1B2
S3150000511016981799089B119C9C460022414B6444A3
S3150000512001F06AFA02000B003000390001F050FA73
S31500005130002800D07AE0169A179B0020394902F021
S3150000514013FD02000B003000390001F02DFA002893
S3150000515000D111E72300013C2278302AFAD01C0046
S315000051600D9B049340E000222A4B02F023FA0A909A
S315000051700B91B8E70C9B089D013B5B190C930A9EAB
S315000051800B9F069A079B3000390001F0B7FD03F02C
S31500005190D9F8099003F00EF9069A079B02F00AFA6D
S315000051A002000B003000390002F0DEFC2B00099AE9
S315000051B0013530321A700C9A2C009A4249D10200FD
S315000051C00B0001F019FA069A079B06000F0001F082
S315000051D0FFF948BB069A079B3000390001F0DEF95B
S315000051E010B1099BDD071FD40599039800F0A8FBB1
S315000051F000232370049B249A01331360269B002B03
S3150000520000D1D1E41C60CFE4A889000080890000A9
S315000052100000F03F0000244000001C400000C0FCDD
S31500005220000014400000E03F049B0D9323001C0087
S31500005230013B1A78392A08D1089A9A42F7D10D9A71
S31500005240089901320D9230220A701A7801321A70CA
S3150000525086E70022C04B02F0ADF9002200230600CB
S315000052600F0001F09BF900288BD0BDE7109F0F9D22
S31500005270099CAFB1229A012A00DDDDE0189A002AC6
S3150000528000D1D3E040F233429B18099A0121D2188B
S3150000529009920E9A0398D3180E9300F003FC0700A8
S315000052A074B10E9B002B0BDD0E9A2300944200DD99
S315000052B01300099AE41AD21A09920E9AD31A0E9377
S315000052C00F9BF3B1109B002B00D1CDE085B13900C7
S315000052D02A00039800F0A4FC059A01000700039831
S315000052E000F0F6FB06000599039800F029FB0596E9
S315000052F00F9B5A1BAB4204D00599039800F090FC13
S3150000530005900121039800F0CDFB149B0600002BAD
S3150000531000D1AEE11A000100039800F081FC229B47
S3150000532006000025012B13DC0A9B00256BB90B9B9D
S315000053301B0353B9894B0B9A134206D0099B0135BF
S31500005340013309930E9B01330E93149B012043B145
S31500005350336903339B00F318586800F055FB20238C
S31500005360181A0E9B181802001F231A40184200D163
S3150000537080E001339B1A042B78DD1C239B1A099AC3
S31500005380E418D21809920E9AD3180E93099B002B93
S3150000539005DD1A000599039800F09AFC05900E9B0E
S315000053A0002B05DD31001A00039800F091FC060081
S315000053B0159B002B60D03100059800F0F3FC002807
S315000053C05ADA049B0A22013B0D93059900230398A0
S315000053D000F0D8FA109B0590002B00D150E1002375
S315000053E039000A22039800F0CDFA069B0700002B2D
S315000053F04CDC229B022B45DD069B002B00D0E6E50C
S3150000540031000522039800F0BDFA06000100059858
S3150000541000F0C8FC002800DCD9E5089B089A5C1C53
S31500005420312313700D9B01330D93D4E536231A9A5D
S315000054300F9D9B1A099C28E70C9B5D1E0F9BAB4298
S3150000544008DB5D1B0C9B002BF4DA099B0C9A9C1A5B
S3150000545000231AE70F9B149AEB1AD31814930F958F
S31500005460099C00250C9B10E70F9A45E7042B8DD06D
S315000054701C3384E71300FBE7049B0D930C9B0693F8
S31500005480002BB6DD109B002B00D1FDE0002C05DDC6
S3150000549039002200039800F01BFC0700049705B3AF
S315000054A07968039800F00CFA040060B9020040F233
S315000054B0EF212B4BFFF73DFB119E3700ADE7049B19
S315000054C00C9E0D93F9E739003A690C3102329200CD
S315000054D00C30FFF783FA01222100039800F0F8FB55
S315000054E00490089B069A0993013B9B1801220F938F
S315000054F00A9B13400E9331000598FFF77FFA390097
S3150000550005000C90059800F04DFC049A0A903100B5
S31500005510039800F063FC0122C3680400303506924C
S3150000552023B90100059800F03DFC06902100039880
S3150000553000F006FA099B229A5C1C069B13430E9AFE
S3150000554013437BB9392D29D00A9B002B01DD0C9D15
S315000055503135099B1D7040E5000024400000F07FB6
S31500005560E78800000A9B002B04DB229A13430E9A5D
S315000055701343FBB9069B002BEBDD0599012203982B
S3150000558000F0A6FB3100059000F00CFC002803DCBF
S315000055900028DED1EB07DCD5392DD8D13923099A7D
S315000055A0137023001C00013B1A78392A50D00132AF
S315000055B01A7012E5069B002B03DD392DEED001355E
S315000055C0C7E7099B099A1D700F9B93422BD00023B6
S315000055D00A220599039800F0D5F9049B05909F428D
S315000055E009D1390000230A22039800F0CBF90700FD
S315000055F0049009947FE7390000230A22039800F0FB
S31500005600C1F9002307000A220499039800F0BAF9A9
S315000056100490EEE7069B0124002B00DD1C00049796
S315000056200027089B1C1905990122039800F050FBDE
S315000056303100059000F0B6FB0028B2DC08B9ED0792
S31500005640AFD423001C00013B1A78302AFAD0C4E4F8
S31500005650089A9A42A6D10D9B01330D9331231370FC
S31500005660BBE4269B002B01D0FFF799FA114BFFF7FD
S31500005670B7FA229B012B00DC56E60120149D70E64A
S31500005680069B002B00DCB4E6002431000598FFF7EA
S31500005690B5F9089B30301855069B01340500A34226
S315000056A0B8DD00230A220599039800F06BF90590EE
S315000056B0EBE7C0466A88000070B505000C0079B1BA
S315000056C0043C2368002B00DAE418280000F0E8F810
S315000056D01C4A13682BB963601460280000F0E8F8D0
S315000056E070BDA34208D9206821188B42F3D11968EE
S315000056F05B6809182160EEE71A005B680BB1A342EC
S31500005700FAD911685018A0420BD120680918501810
S3150000571011608342E1D118685B68411811605360DB
S31500005720DBE7A04202D90C232B60D6E720682118BC
S315000057308B4203D119685B68091821606360546065
S31500005740CBE7C0469048002010B5034B010018680F
S3150000575000F026F810BDC0461041002070B50F4E6F
S315000057600D003168040011B900F09CFE306029007C
S31500005770200000F097FE431C03D101256D4228004E
S3150000578070BD0323C51C9D43A842F8D0291A2000EA
S3150000579000F088FE0130F2D1EFE7C0468C480020C9
S315000057A0F7B50322CB1C9343083305001F000C2BCF
S315000057B034D20C27B94233D8384E280000F070F89E
S315000057C033681C00002C2FD139002800FFF7C6FFD4
S315000057D00400431C5FD134680094009B002B4AD11F
S315000057E0002C52D023682800E3180099019300F09A
S315000057F059FE019B834248D123682800FF1A3900CD
S31500005800FFF7ACFF013040D02368DB192360336813
S315000058105A68002A33D1009B336019E0002BC9DA9D
S315000058200C232B600020FEBD2168C91B20D40B2948
S315000058300AD9E2192760A34204D132606368116075
S31500005840536005E05A60F9E76268A3420ED1326000
