S017000052413245315F50726F6A65637431332E7372656338
S3150000000058680020FD100000CD0E0000F910000019
S31500000010F9100000F9100000F9100000F9100000B6
S31500000020000000000000000000000000F9100000C1
S31500000030F910000000000000F9100000F91000009F
S3150000004000000000000000000000000000000000AA
S31500000050C909000045090000550A0000890A000088
S31500000060000000000000000000000000000000008A
S31500000070000000000000000000000000000000007A
S31500000080000000000000000000000000000000006A
S31500000090000000000000000000000000000000005A
S31500000400FFFFFFFFDFCEFFFFFCFF0F00FFFF0F0028
S31500000410FCFF0F00FFFF0F00FCFF0F00FFFF0F00A8
S31500000420FCFF0F20FFFF0F20FCFF7F40FFFF7F40F8
S31500000430FCFF0D40FFFF0D40FFFFFFFF44F2C81019
S3150000044044F2C813C2F20000C2F2000310B58342A0
S3150000045005D040F20003C0F2000303B1984710BD77
S3150000046044F2C81044F2C813C2F20000C2F20003FC
S315000004701B1A9A10D90F8918491010B529B140F2E4
S315000004800003C0F2000303B1984710BD10B544F253
S31500000490E014C2F20004237873B9FFF7CFFF40F2ED
S315000004A00003C0F200032BB145F20430C0F2000095
S315000004B000E000BF0123237010BDC04640F20003D8
S315000004C0C0F2000310B54BB144F2E41145F204301A
S315000004D0C2F20001C0F2000000E000BFFFF7C0FF5B
S315000004E010BDC0460379022B0AD0012B02D0042B83
S315000004F00DD0704744F20A22C2F200021370F8E7E8
S3150000050044F20B230122C2F200031A70F1E744F20F
S31500000510FC13C2F200031A68092AEAD844F63871B5
S31500000520C0F2000149788068022907D8511C196079
S3150000053044F20023C2F200039854DAE744F20021A1
S31500000540C2F200015118023208801A60D1E7C04693
S3150000055044F6387144F21820F0B5C0F2000144F2B6
S315000005600C269DB0C2F2000000F0D8F8C2F20006D8
S31500000570306070B144F6E86344F62C7244F6FC60D1
S315000005805221C0F20003C0F20002C0F2000000F0E7
S3150000059069FC694644F620730A00C0F2000331CBB9
S315000005A031C244F218200B22C2F2000000F06AF8B1
S315000005B03060002846D144F20B25C2F200052B78A4
S315000005C0002BFCD0002303AC2B7044F610732200E2
S315000005D0C0F2000383CB83C21B682000136001F0C6
S315000005E0E0F9020044F218202100C2F2000000F0F7
S315000005F049F8306000B100BE2B78002BFCD00027F4
S3150000060044F2FC142F700397C2F2000423680A2BED
S3150000061011D144F2002144F218200A22C2F200014C
S31500000620C2F20000276000F02DF8306000B100BE75
S315000006302B78002BFCD040F2E83140F2E83000F095
S3150000064017FCE3E700BEB6E710B538B94CF2000375
S3150000065090220121C4F27E03995410BD0228FCD1D8
S3150000066044F66C7144F21020C0F20001C2F20000A0
S3150000067000F0A8FAF1E7C04610B5FFF769FF0020C1
S3150000068010BDC0467B2330B5046AA5782B40A37005
S31500000690802483789B079B0FD21A0261CB18026ACB
S315000006A0C360937823439370032382781340022B0D
S315000006B004D0036A0A78DA70002030BD0B884FF642
S315000006C00061026A0B43D381F6E7C046F0B5C64621
S315000006D000B50500806A84B08C4690466C46D8B159
S315000006E02300060086CE86C336681E60EB691B783B
S315000006F003606346836043460371EB6AC3606B6ABB
S315000007009847AB6A23B123CC23C31A00236813602E
S3150000071004B080BCB846F0BD2000E7E743F600020F
S31500000720F0B5C646C0F200229446002600B50B7806
S31500000730067063445B01C16103624B690D0043624D
S315000007408B6903210122C362837886628B4313433C
S3150000075083706A780B2753425A41837801328B4360
S3150000076013438370AB7A04009846EF57380000F0C5
S315000007702BFC380000F0D2FB38000527220041464A
S3150000078000F0DAFB2B79EF579846380000F01CFC96
S31500000790380000F0C3FB380007272200414600F06E
S315000007A0CBFBAB79EF579846380000F00DFC3800CC
S315000007B000F0B4FB380009272200414600F0BCFBDC
S315000007C02B7AEF579846380000F0FEFB380000F011
S315000007D0A5FB22004146380000F0AEFBEFF3108780
S315000007E0012080F3108846F6FC732978C4F20403CE
S315000007F08C465A688021904662460906D140424698
S315000008008A435A605B6887F31088236A9E70236A5E
S315000008101E71236A5E72236A9E72236ADE72236ADF
S315000008205E8340F207232A78D340184202D0402242
S31500000830236ADA740622236A1A772B7813B9236A95
S315000008403F4A9A82AB78EA781B01D20013436A7852
S31500000850032A00D16FE051424A410F2152428A4396
S31500000860F232216ADBB20B70236AFF269A710223E9
S31500000870EA69206A117B49000B4020214373907876
S315000008805378400101400020DB0133400B43216ACD
S31500000890087211780239012942D90326216ADBB28E
S315000008A0CB715268216A93784B700B785078B343BA
S315000008B0304003430B70D37859368B74C87913785C
S315000008C0B04333400343CB7100230520E36023612B
S315000008D06361A361EE69033335781D40E3691856F9
S315000008E000F050FB0B20E369185600F04BFB072085
S315000008F0E369185600F046FB0920E369185600F034
S3150000090041FB7023226A2B43937073890020238155
S3150000091044F65513C5F24333636080BCB846F0BD58
S31500000920216A4E701278022A01D10E321343226ACE
S31500000930DBB2D371C8E73D321343B23291E7C0460A
S3150000094000F8FFFF10B5EFF30384103C64B22000FB
S3150000095000F0E4FA44F28023A400C2F20003E05857
S31500000960C3691B699BB1036903B110BD026A7F238A
S3150000097091780B4004210B4393700023C360436AB4
S31500000980002BF2D080220021FFF7A0FEEDE70369DD
S31500000990026A002BEBD003238478C1682340022B24
S315000009A00BD00B78D37082780369C1689207920FD7
S315000009B09B1A8A180361C260D6E70B884FF600615E
S315000009C00B43D381EFE7C04610B582B0EFF3038443
S315000009D0103C64B2200000F0A1FA44F28023A40087
S315000009E0C2F20003E4580323A2781340022B0DD071
S315000009F0236A5979A369C9B2019183B9636A1BB1A4
S31500000A0004222000FFF762FE02B010BD40F2FF1183
S31500000A10236A1B8A1940A3690191002BEED0920725
S31500000A20920F606901A900F0B3FFA37862699B0782
S31500000A309B0FD2186261A269D31AA361002BE3D17E
S31500000A40636A002BE0D0012200212000FFF73EFE62
S31500000A50DAE7C04610B5EFF3038444F28023103C76
S31500000A6064B2C2F20003A200D0587B23026A9178D6
S31500000A700B409370436A1BB102220021FFF726FE4A
S31500000A80200000F04BFA10BD70B5EFF3038444F27A
S31500000A908023103C64B2C2F20003A200D0580323A4
S31500000AA082781340022B19D0036A5979C9B23822C9
S31500000AB01D792A40ED0602D51D7FED070BD5382698
S31500000AC01D79B5431D71436A0BB1FFF7FFFD200089
S31500000AD000F024FA70BD40252A43F0E740F2FF11EA
S31500000AE0036A1A8A1140E2E7F0B5DE4657464E46DB
S31500000AF04546E0B5EFF31082012383F3108844F2F4
S31500000B007C2BC2F2000B5B461B6833B940F60051E2
S31500000B10C4F20401CB704033CB705B4659461B6868
S31500000B2001330B6082F31088038800224BB38023C5
S31500000B305B029946224B40F6000440F2FF0C9846B1
S31500000B40C4F204044368D1005B1861469F881E689E
S31500000B503B0A0F4049461B010E420AD0D9198900AB
S31500000B608A4645460959294055462951414631404C
S31500000B702951DB199B001E510132018893B299421B
S31500000B80E0D8EFF31082012383F310885B461B68DD
S31500000B9023B15B4659461B68013B0B605B461B68ED
S31500000BA033B940F60051C4F20401CB708033CB70E8
S31500000BB082F31088F0BCBB46B246A946A046F0BDFB
S31500000BC0FFFFFEFF45F2542310B5C5F24F03036045
S31500000BD00800FFF789FF002010BDC0464EF2000254
S31500000BE0AA2110B5C4F2010204282ED0535CDB06FC
S31500000BF0DC0F002BFADB54544EF20002AA21C4F299
S31500000C000102535C002BFCD1A033D35C98421BD06D
S31500000C103623D35C3BB94EF200023C21C4F20102FA
S31500000C20535CDB07FCD54EF20002A021C4F20102A0
S31500000C30535CDB06FCD450544EF20002A021C4F2F1
S31500000C400102535CDB06FCD410BD535CDB06FCD40E
S31500000C50012353544EF20002AA21C4F20102535C4E
S31500000C60DB06FCD4F0E7C0464EF20003262244F22F
S31500000C70C811C4F20103985C1B6A8000C2F200012D
S31500000C8041585B015B0F44F20C32D940C2F20002BC
S31500000C90116070477047C0464EF2000340F2FE32C4
S31500000CA05749C4F2010370B599524CF20002002074
S31500000CB043F6C871C4F27E02505444F2C81446F694
S31500000CC00042C2F20004C0F2DC22226041F200229D
S31500000CD0C0F27A02626048F2000241F60031A26078
S31500000CE022612622C0F2B701E160995C1A6A890086
S31500000CF061585201520F44F20C35D14040F2134272
S31500000D00C2F20005296098540921A222995440F2A2
S31500000D1080429A5C2AB940F281429B5C9B07002B79
S31500000D2068D04EF2000640F28043C4F20106F25C3F
S31500000D30002A53D04EF20003002240F28141C4F251
S31500000D4001035A5401395A544EF20002A023C4F248
S31500000D500102D35CCBB13623D35C1BB93C21535C77
S31500000D60DB07FCD54EF20002A021C4F20102535C5F
S31500000D70DB06D80F002BFADB50544EF20002A021FE
S31500000D80C4F20102535CDB06FCD44EF200060022DC
S31500000D903223C4F20106F2543C32B35C1B07FCD585
S31500000DA040F2001303223362DA3BF254F25C336AF8
S31500000DB09200A2585B015B0FDA4001202A60FFF720
S31500000DC00DFF40F2FE330F4A0121F2524CF20003AE
S31500000DD043F6C872C4F27E03995470BD0132F254D0
S31500000DE00121C82000F044F840F28042B35C012B98
S31500000DF0FCD19FE740F2E830FFF74CFFA4E7C0467E
S31500000E0003A5FFFF00A5FFFF70B544F200042823E9
S31500000E100025C4F20404E5540121C82000F028F896
S31500000E2024232422E554A35C002BFCD10221A35CDD
S31500000E3024200B43A35444F20002C4F20402135CC0
S31500000E409B07D90F002BFADB2223D15444F2000270
S31500000E502221C4F20402535C002BFCD170BDC046B3
S31500000E607047C04600BEFEE701380028FCD1704737
S31500000E7044F20C324CF6002370B54143C2F2000234
S31500000E801468C3F69A330D00B3FBF4F4080040F27D
S31500000E90E8320023002100F0D9F931B9B0FBF4F0B3
S31500000EA0800808B1FFF7E0FF70BDA000B5FBF0F0C9
S31500000EB040F2E8320023002100F0C8F90029F0D002
S31500000EC001204042FFF7D0FFEEE7C04646F200039E
S31500000ED040F2201270B500240126C4F200039D5A88
S31500000EE020329B5A1D402B00E3401E420AD044F29A
S31500000EF04822C2F200029446A30063441B680BB169
S31500000F00E0B2984701340D2CEDD146F2000340F2D1
S31500000F103012C4F200039D5270BDC04646F2000373
S31500000F20C0308000C4F20003C25802490A40C250D1
S31500000F30C3587047FFFFFEFFF0B5C64690464EF217
S31500000F400012FF240325CEF200029446220040F24E
S31500000F5000370540ED008901AA400C40AC408308EB
S31500000F609B0000B56344DE59800096432643DE515C
S31500000F7044F280234246C2F200031A5080BCB846AF
S31500000F80F0BDC046030046F2000210B5C033C4F2FD
S31500000F9000029B0099580B4C214099509B58BFF377
S31500000FA05F8F1F220123024093404EF20012CEF2C1
S31500000FB00002944640F2801240098000604483504B
S31500000FC0036010BDFFFFFEFF1F21012201408A4082
S31500000FD04EF2001143092033CEF200019B005A5015
S31500000FE0BFF34F8FBFF36F8F7047C04646F20000C6
S31500000FF00023C4F2000044F69872C0F200029A1868
S3150000100012781AB11900C03189000A500133202B19
S31500001010F1D1704730B5EFF31081012383F31088C7
S3150000102044F200334000C2F200031A5A1AB11A5AA7
S31500001030013A92B21A521B5A83B94EF2000244F692
S31500001040B87340F2FE34C4F20102C0F20003155B2D
S31500001050185A044B2B4383439BB2135381F31088D6
S3150000106030BDC04600A5FFFF70B5EFF31081012328
S3150000107083F3108844F200324000C2F20002135A91
S3150000108083B94EF2000444F6B87540F2FE36C4F257
S315000010900104C0F20005A35B2D5A2B434AF200550A
S315000010A02B43A353135A01339BB2135281F3108877
S315000010B070BDC04644F2083210B5C2F20002030009
S315000010C0106858B1032103338B4346F25841C318C5
S315000010D0C2F200018B4207D8136010BD44F258409B
S315000010E0C2F200001060EDE700F04AFC0C2303603A
S315000010F001204042F1E7C04600BE704710B500F03F
S3150000110003F8FFF7B9FAFEE7F0B54EF6005340F2E2
S315000011100005CEF20003C0F2000583B09D600020FA
S31500001120FFF792FAFFF7B8FD6B460027DC1D277024
S3150000113001202378FFF798FFEFF31081012686F34D
S31500001140108846F6FC73C4F204039A683C480240D1
S315000011509A609A6881F3108840F60001C4F204018F
S315000011600A68D207D20F22700A68D207D20F2270FD
S315000011700A68D207D20F2270EFF3108186F3108827
S3150000118080229868520502439A609B6881F3108812
S315000011900120FFF73FFF0120FFF756FA40F6005304
S315000011A0284AC4F200039F801A802A68264941F221
S315000011B0000051189960DA6046F2000240F22011F0
S315000011C0C4F20002505244F2584244F2E010C2F215
S315000011D00002C2F200009E800021121A00F0C4FB39
S315000011E044F2000044F2C81245F20831C2F200008F
S315000011F0C2F20002121AC0F2000100F0C9FB44F26A
S31500001200C01544F2C413C2F20005C2F200035B1B10
S315000012109E10002B05DD002408CD01349847A64218
S31500001220FADCFFF721FDFFF7EFFD0220FFF70CFACE
S31500001230FFF7DCFE0020FFF713FE03B0F0BDC0464B
S31500001240FFFFFFEF00A5FFFF00FCFFFFF0B54FF625
S31500001250FF750400CE462C40474615400E00290077
S31500001260994680B5130C0700000C6143454358436B
S3150000127063430C0C5B19E4188C46A54203D9802302
S315000012805B0298464044230C61461B184FF6FF70DC
S315000012900840494656437943240489192018C91839
S315000012A0C0BCB946B046F0BD1C2101231B049842C0
S315000012B001D3000C10391B0A984201D3000A0839E1
S315000012C01B09984201D30009043902A2105C401898
S315000012D07047C0460403020201010101000000003C
S315000012E000000000F0B51F00002316008BB09F42DF
S315000012F004DA802109067B181F002D23129A149DFB
S315000013001370202303229D43462D07D02B00453B17
S3150000131059424B411099013ACB18109309AB0493EB
S3150000132008AB0393139B00920293109B3200019328
S315000013303B0000F0C5FB0400472D1AD1119BDB07CB
S3150000134010D5109BC31807930022002330003900E4
S3150000135001F03AFE08B1079B09933022099B0799D1
S315000013608B421FD32000099B159A1B1B13600BB0E1
S31500001370F0BD109BC3180793462DE5D10378302B9B
S315000013800BD1002200233000390001F01DFE20B9E8
S315000013900123109A9B1A139A1360139B079A1B68D2
S315000013A0D318D0E7591C09911A70D7E7F7B52B2344
S315000013B00270002901DA494202334370092926DD09
S315000013C06B46DA1D15000A2791FBF7F63B007343BF
S315000013D0CB1A30331400013A13700B003100632B23
S315000013E0F2DCA61E3031831C3170320019009542A2
S315000013F008D80022B54202D309326A44121B9B1850
S31500001400181AFEBD177801320F700131EFE730234D
S3150000141030318370C170031DF2E7FFFFF0B597B05E
S315000014200D000A921C9C0B93099000F0A5FA036824
S3150000143018000D9300F0B5FA00230F9014932B7E3D
S3150000144007220C932B680E930E992368C90542D583
S315000014509B1893431A000832226001221E685F68B7
S315000014607B005B0811931096AE64EF641098119997
S31500001470A54B524203F060FC00282ED1109811991A
S315000014800122A14B524201F0AFFD30BB00220023E6
S315000014903000390001F09EFD18B12B002D22433398
S315000014A01A700C9B472B2AD8984F032300240E9AB8
S315000014B02B6101339A432A600B9B290000930998FC
S315000014C00A9B15AA00F0E2F9013000D09EE0012047
S315000014D0404217B0F0BD0733BBE732003B00300097
S315000014E0390003F029FC70B1002F03DA2B002D22FE
S315000014F043331A700C9B472B03D8854FD5E7854F8E
S31500001500D3E7854FD1E720220C9C6B6894435A1C85
S3150000151046D107336B6040F200430E9A0AA9134383
S3150000152000222B60069214AA05920C9A019304924B
S3150000153013AA03922322521802926B683200009378
S3150000154009983B00FFF7CEFE139A0700472C2DD1D2
S31500001550D31C02DB6B689A4245DD0C9B023BDBB277
S315000015600C93280013990C9A013950301391FFF708
S315000015701DFF149A040013182B61012A02DC2A6845
S31500001580D20701D501332B6123230AAA9B181B78A6
S31500001590002B00D190E72B002D2243331A708BE7E6
S315000015A0472CB8D1002BB6D10133B3E70C9B652B82
S315000015B0D7D90C9B662B18D16B68002A08DD2A61E7
S315000015C013B92968C9070AD501339B182B6106E0B0
S315000015D01BB901222968114200D09A1C2A61139B6B
S315000015E00024AB65D0E767230C931399149B9942AB
S315000015F006DB2B682961DB07F1D501312961EEE7AE
S3150000160001220029E1DC9218521ADEE72A68530506
S3150000161008D42B693A000A9909980B9CA047013017
S3150000162028D154E70C9B652B00D8DAE0A86CE96C4E
S315000016300022002301F0C8FC98B30123374A0A9917
S3150000164009980B9CA047013000D140E7149E139BDC
S31500001650B34202DB2B68DB070CD50B9C0F9B0D9A64
S315000016600A990998A0470024013000D12FE7731E7C
S31500001670A3420ADC2B689B0700D505E1159BE868A9
S31500001680984200DB25E7180023E72A0001230A9980
S3150000169009980B9F1A32B847013000D117E7013479
S315000016A0E5E7139B002B3BDC01231C4A0A990998AA
S315000016B00B9CA047013000D109E7149E139B3343CE
S315000016C013B92B68DB07D5D50F9B0D9A0A99099894
S315000016D00B9CA0470023013000D1F8E60C93139B26
S315000016E00C9A5B42934201DC330093E72A00012304
S315000016F00A9909980B9C1A32A047013000D1E6E6F8
S315000017000C9B0133EAE7C046FFFFEF7FC04F0000A6
S31500001710C84F0000C44F0000CC4F0000D04F00005F
S31500001720149BAE6D0C939E4200DD1E00002E31DC34
S31500001730F3430024DB1733400E93AE6D0E9BF31A72
S31500001740A34230DC139B0C9A9A4238DC2B68DB07E9
S3150000175035D4139C0C9B0C9A9B1B141B9C4200DDDE
S315000017601C00002C34DCE3430026DB171C40139BD3
S315000017700C9AD31A1B1BB34200DC7BE72A00012319
S315000017800A9909980B9F1A32B847013000D19EE694
S315000017900136ECE733003A000A9909980B9CA047FA
S315000017A00130C5D193E62A0001230A9909980B9EB8
S315000017B01A32B047013000D189E60134BDE70F9BEC
S315000017C00D9A0A9909980B9CA0470130C1D17EE673
S315000017D0BA1923000A9909980B9EB0470130C2D165
S315000017E075E6149B0C93012B02DC01231A4238D0B8
S315000017F001233A000A9909980B9EB047013000D19F
S3150000180065E60F9B0D9A0A9909980B9EB047013021
S3150000181000D15CE6A86CE96C0C9B0022013B0C93A2
S31500001820002301F0D1FBD0B90C9B7A1C0A990998C8
S315000018300B9EB04701300ED149E62A0001230A99D2
S3150000184009980B9F1A32B847013000D13FE601369E
S315000018500C9B9E42F1DB2A0023005032DBE6002679
S31500001860F6E73A00E2E72A0001230A9909980B9E57
S315000018701932B047013000D129E60134EB68159AD8
S315000018809B1AA342EFDCF9E60024F7E7F7B516004A
S3150000189001938A680B690C000090934200DA1300EA
S315000018A022003360433212780AB101333360236871
S315000018B09B0602D53368023333602268062315007F
S315000018C01D401A4227D0230043331B785A1E9341EA
S315000018D02268920630D4220001990098089D43326E
S315000018E0A847013025D00622236800251340042B83
S315000018F005D13368E568ED1AEB43DB171D40A36895
S315000019002269934201DD9B1AED180026B54220D1CB
S31500001910002010E00135E36832689B1AAB42D2DD45
S315000019202200012301990098089F1932B847013017
S31500001930F0D101204042FEBD3020E118433108704D
S3150000194021005A1C45310978A2184332023311701E
S31500001950C1E72200012301990098089F1A32B8476F
S315000019600130E6D00136D1E703008218934200D158
S31500001970704719700133F9E7004870474441002069
S31500001980014B18687047C0460440002070477047F6
S31500001990002310B59A4200D110BDCC5CC45401336B
S315000019A0F8E70023C25C0133002AFBD1581E7047BA
S315000019B0F0B503690C69050089B00020A3426ADB13
S315000019C00B00013C1433A00004931B1805932B0055
S315000019D0143318180193059B02681B680133B2FB88
S315000019E0F3F602969A422FD3019B049F9C4600234E
S315000019F00393079308CF029A9EB25643039A1B0C91
S31500001A00B618029A5343320C9B181A0C039262467C
S31500001A101268B6B206926A46128B9BB2921B079E5A
S31500001A209219069E360CF31A16149E193314079350
S31500001A30634692B23604324304C39C46059BBB42BE
S31500001A40D8D20368002B2BD0280001F03DF90028DE
S31500001A5020DB0027019E0499336801C903936B4676
S31500001A609B8982B29A1A039BD219000C1B0C1B1A73
S31500001A7010141B181F1492B21B041A43059B04C6AC
S31500001A808B42E9D2019AA300D3181A688AB1029B45
S31500001A9001330293029809B0F0BD036823B9013CF3
S31500001AA0019B04388342F8D32C61CDE71A6822B92A
S31500001AB0013C019A043B9A42F8D32C61E7E7FFFF09
S31500001AC0F0B514001D00C6699DB00A940B95259FBC
S31500001AD003907EB9102000F0C9FD039B0200D86177
S31500001AE020B9EF21BF4BC048FFF7BCF946608660BE
S31500001AF00660C660039BDB69196859B15A68012301
S31500001B0093404A608B60039800F0ACFE0022039B72
S31500001B10DB691A60002D19DA01233B606B005B0854
S31500001B200B930B9FB14BB14A3B4093421DD142F2FE
S31500001B300F73249A13603B031B0B2343002B01D125
S31500001B4000F069FD269B63B9A94B23E000233B60A7
S31500001B50E7E7A84B0893A84B269A136008981DB090
S31500001B60F0BDA34B0893A54BF6E70A9A0B9B12927E
S31500001B701393129813990022002301F025FA060008
S31500001B8050B10123249A1360269B13B19C4B269ACD
S31500001B9013609C4B0893E1E71AAB01931BAB0093D0
S31500001BA00398129A139B01F041F97A00520D0590A1
S31500001BB0002A79D0139B18961903934B090B0B43F4
S31500001BC0924957181298139919000022904B02F067
S31500001BD0E1FC904A904B02F003FA904A904B01F0D8
S31500001BE021FA040038000D0003F0FAF88D4A8E4BF6
S31500001BF002F0F6F902000B002000290001F012FAAB
S31500001C0004000D0003F0B4F8002204900023200025
S31500001C10290001F0DFF958B1049803F0E1F82B0030
S31500001C20220001F0D1F943425841049B1B1A049348
S31500001C3001231593049B162B0FD8129813997B4AF0
S31500001C40DB009B181A685B6801F0C4F9002849D0CC
S31500001C50049B013B04930023159300221A9B0992CF
S31500001C60DB1B5A1E40D50122D31A099300230E937B
S31500001C70049B002B3ADB049A0E9B944663440E9316
S31500001C80002314920F93229B0124092B62D8052B63
S31500001C9002DD0024043B2293229B981E032863D86E
S31500001CA001F078F954563A2D1B9B1A9EF61840F20D
S31500001CB03243F218202A10DD40239B1A9F4040F23F
S31500001CC01243F318DC403800204303F0B5F8012234
S31500001CD0574B771ECB18189276E7202320009B1AC5
S31500001CE09840F2E71590B8E70E92C1E7099B049A6F
S31500001CF09B1A099353420F9300231493C3E70123BE
S31500001D00239A10939446049B6344069301330C93E1
S31500001D10002B08DC012306E001231093239B002BF4
S31500001D2026DD06930C93039A0021D0690422150040
S31500001D3014359D4221D94160039800F053FD089067
S31500001D40F0B9020040F2AF113A4BCCE60023E4E7CB
S31500001D500023D5E7002310942293013B002206932B
S31500001D600C9313332392DEE701231093023BF5E72E
S31500001D7001231A0006930C93F4E701315200D6E7CB
S31500001D80039B089ADB691A600C9B0E2B00D9D1E0E5
S31500001D90002C00D1CEE0049B002B60DD0F222349EE
S31500001DA01340DB005B181E685F68049B02241D114C
S31500001DB0DB050AD5129813991F4B15401A6A5B6A00
S31500001DC001F0B2FC0A900B9101341B4B0D93ADBB95
S31500001DD00A980B9932003B0001F0A6FC0A900B9181
S31500001DE057E0C046DF4F0000F64F00000000F07FCE
S31500001DF0DB4F0000D24F0000DA4F0000DE4F00003C
S31500001E00D14F0000D04F00000000F03F01FCFFFF63
S31500001E100000F83F61436F63A787D23FB3C8608B6A
S31500001E20288AC63FFB799F501344D33FF8500000E1
S31500001E30000010FE4F500000D050000001231D424C
S31500001E4009D0E4180D9B30001A685B68390002F06F
S31500001E50C7F806000F000D9B6D100833B6E7049B0C
S31500001E600224B3B1129813995D420F23D34A2B4033
S31500001E70DB009B181A685B6802F0B2F801270023A2
S31500001E800A900B91CE4E2D11002D00D093E0002B21
S31500001E90A4D10A9E0B9F159B002B00D196E0002231
S31500001EA030003900C74B01F095F8002800D18DE0CD
S31500001EB00C9B002B00D189E0069B002B36DD049B92
S31500001EC00022013B0D933000BF4B390002F088F829
S31500001ED00A900B91069B01342000119302F080FFBB
S31500001EE00A9A0B9B02F07CF8B84B002201F09AF894
S31500001EF0B74B0600CF18119B002B6BD10A980B9994
S31500001F000022B44B02F046FB32003B0004000D00F9
S31500001F1001F074F8002800D0A8E2802109067B1899
S31500001F2032002000290001F055F840BB129B139C9B
S31500001F300A930B941B9B002B00DA71E1049A0E2A7C
S31500001F4000DD6DE1D3009D4A9B185C681B68069313
S31500001F500794239B002B00DBE6E00C9B002B00DDA7
S31500001F60E2E063B90698079900229A4B02F038F826
S31500001F700A9A0B9B01F04CF8002800D179E2002662
S31500001F803700239B089CDB430D9304970027310001
S31500001F90039800F067FC049B002B00D1BAE02FB138
S31500001FA09F4203D03900039800F05CFC0499039823
S31500001FB000F058FCAEE03D4205D03268736802F08E
S31500001FC00FF83B0001346D1008365DE7049B0D9356
S31500001FD00C9B81E7119B794A013BDB0010999B180A
S31500001FE01A685B6800294CD000207B4901F09CFBF5
S31500001FF032003B0002F0CEFA089A060094460F0023
S31500002000089B1693119B634411930A980B9902F04F
S31500002010AFFE050002F0E4FE02000B000A980B99E1
S3150000202002F0B8FA169B30355C1C1D7032003B007E
S315000020300A900B9100F0CEFF00286BD10A9A0B9BF9
S315000020400020604902F0A6FA32003B0000F0C2FF11
S31500002050002800D0C4E0119BA34200D166E700220D
S3150000206030003900584B01F0BBFF002206000F007C
S315000020700A980B99544B01F0B3FF16940A900B91F2
S31500002080C3E73000390001F0ABFF089D119A2B0021
S31500002090944616901791634419930A980B9902F087
S315000020A067FE040002F09CFE0B0002000A980B99E2
S315000020B002F070FA3034199B2C70013506000F00BF
S315000020C0AB422AD116981799089B119C9C46002270
S315000020D0414B644400F0A6FF02000B0030003900BB
S315000020E000F08CFF002800D07AE0169A179B00209B
S315000020F0394902F04FFA02000B003000390000F0B7
S3150000210069FF002800D111E72300013C2278302A1C
S31500002110FAD01C000D9B049340E000222A4B01F0EC
S315000021205FFF0A900B91B8E70C9B089D013B5B197A
S315000021300C930A9E0B9F069A079B3000390001F00C
S31500002140F3FA02F015FE099002F04AFE069A079B82
S3150000215001F046FF02000B003000390002F01AFAC7
S315000021602B00099A013530321A700C9A2C009A42CB
S3150000217049D102000B0000F055FF069A079B0600A6
S315000021800F0000F03BFF48BB069A079B3000390062
S3150000219000F01AFF10B1099BDD071FD405990398BB
S315000021A000F060FB00232370049B249A0133136024
S315000021B0269B002B00D1D1E41C60CFE4F850000030
S315000021C0D05000000000F03F0000244000001C40FA
S315000021D00000C0FC000014400000E03F049B0D938B
S315000021E023001C00013B1A78392A08D1089A9A4222
S315000021F0F7D10D9A089901320D9230220A701A7899
S3150000220001321A7086E70022C04B01F0E9FE002277
S31500002210002306000F0000F0D7FE00288BD0BDE794
S31500002220109F0F9D099CAFB1229A012A00DDDDE0C7
S31500002230189A002A00D1D3E040F233429B18099A3B
S315000022400121D21809920E9A0398D3180E9300F022
S31500002250BBFB070074B10E9B002B0BDD0E9A23000F
S31500002260944200DD1300099AE41AD21A09920E9AD2
S31500002270D31A0E930F9BF3B1109B002B00D1CDE028
S3150000228085B139002A00039800F05CFC059A01002C
S315000022900700039800F0AEFB06000599039800F0CE
S315000022A0E1FA05960F9B5A1BAB4204D00599039899
S315000022B000F048FC05900121039800F085FB149B73
S315000022C00600002B00D1AEE11A000100039800F0D1
S315000022D039FC229B06000025012B13DC0A9B0025F6
S315000022E06BB90B9B1B0353B9894B0B9A134206D050
S315000022F0099B0135013309930E9B01330E93149B01
S31500002300012043B1336903339B00F318586800F08A
S315000023100DFB2023181A0E9B181802001F231A40C3
S31500002320184200D180E001339B1A042B78DD1C2370
S315000023309B1A099AE418D21809920E9AD3180E938A
S31500002340099B002B05DD1A000599039800F052FC45
S3150000235005900E9B002B05DD31001A00039800F056
S3150000236049FC0600159B002B60D03100059800F053
S31500002370ABFC00285ADA049B0A22013B0D9305990F
S315000023800023039800F090FA109B0590002B00D1D3
S3150000239050E1002339000A22039800F085FA069BD3
S315000023A00700002B4CDC229B022B45DD069B002BF5
S315000023B000D0E6E531000522039800F075FA060024
S315000023C00100059800F080FC002800DCD9E5089B98
S315000023D0089A5C1C312313700D9B01330D93D4E5D1
S315000023E036231A9A0F9D9B1A099C28E70C9B5D1EA3
S315000023F00F9BAB4208DB5D1B0C9B002BF4DA099BA1
S315000024000C9A9C1A00231AE70F9B149AEB1AD318FE
S3150000241014930F95099C00250C9B10E70F9A45E72E
S31500002420042B8DD01C3384E71300FBE7049B0D932C
S315000024300C9B0693002BB6DD109B002B00D1FDE014
S31500002440002C05DD39002200039800F0D3FB0700BD
S31500002450049705B37968039800F0C4F9040060B9DD
S31500002460020040F2EF212B4BFFF73DFB119E370098
S31500002470ADE7049B0C9E0D93F9E739003A690C31E0
S31500002480023292000C30FFF783FA012221000398F2
S3150000249000F0B0FB0490089B069A0993013B9B1839
S315000024A001220F930A9B13400E9331000598FFF704
S315000024B07FFA390005000C90059800F005FC049A97
S315000024C00A903100039800F01BFC0122C368040047
S315000024D03035069223B90100059800F0F5FB069009
S315000024E02100039800F0BEF9099B229A5C1C069B0A
S315000024F013430E9A13437BB9392D29D00A9B002B1F
S3150000250001DD0C9D3135099B1D7040E5000024401E
S315000025100000F07F4F5000000A9B002B04DB229A3C
S3150000252013430E9A1343FBB9069B002BEBDD05996B
S315000025300122039800F05EFB3100059000F0C4FB19
S31500002540002803DC0028DED1EB07DCD5392DD8D1F5
S315000025503923099A137023001C00013B1A78392A83
S3150000256050D001321A7012E5069B002B03DD392D7F
S31500002570EED00135C7E7099B099A1D700F9B934260
S315000025802BD000230A220599039800F08DF9049BAD
S3150000259005909F4209D1390000230A22039800F0D2
S315000025A083F90700049009947FE7390000230A2283
S315000025B0039800F079F9002307000A22049903988A
S315000025C000F072F90490EEE7069B0124002B00DD73
S315000025D01C0004970027089B1C19059901220398E3
S315000025E000F008FB3100059000F06EFB0028B2DC1D
S315000025F008B9ED07AFD423001C00013B1A78302A36
S31500002600FAD0C4E4089A9A42A6D10D9B01330D93E1
S3150000261031231370BBE4269B002B01D0FFF799FAF8
S31500002620114BFFF7B7FA229B012B00DC56E601207F
S31500002630149D70E6069B002B00DCB4E600243100F6
S315000026400598FFF7B5F9089B30301855069B0134FD
S315000026500500A342B8DD00230A220599039800F07D
S3150000266023F90590EBE7C046D24F000010B5034BA7
S315000026700100186800F026F810BDC046044000208E
S3150000268070B50F4E0D003168040011B900F02AFC38
S3150000269030602900200000F025FC431C03D10125F1
S315000026A06D42280070BD0323C51C9D43A842F8D087
S315000026B0291A200000F016FC0130F2D1EFE7C046DF
S315000026C050440020F7B50322CB1C93430833050082
S315000026D01F000C2B34D20C27B94233D8384E2800B1
S315000026E000F070F833681C00002C2FD13900280048
S315000026F0FFF7C6FF0400431C5FD134680094009BBB
S31500002700002B4AD1002C52D023682800E3180099E8
S31500002710019300F0E7FB019B834248D12368280020
S31500002720FF1A3900FFF7ACFF013040D02368DB19F0
S31500002730236033685A68002A33D1009B336019E05E
S31500002740002BC9DA0C232B600020FEBD2168C91BB3
S3150000275020D40B290AD9E2192760A34204D132609A
S3150000276063681160536005E05A60F9E76268A34246
S315000027700ED13260280000F02DF8200007220B3021
S31500002780231D9043C21A9842DFD01B1AA350DCE7E0
S315000027905A60EFE723006468A6E7009C636800932D
S315000027A0ADE71A005B68A342FBD10023DAE70C23EE
S315000027B028002B6000F00EF8C6E70760DAE7C0468F
S315000027C05444002010B50248FFF7E0F810BDC0469B
S315000027D04C44002010B50248FFF7D9F810BDC0469A
S315000027E04C44002070B5C56906000C0075B9102070
S315000027F0FFF73CFF0200F06120B96B21174B184828
S31500002800FEF730FB456085600560C560F569EB68DD
S315000028108BB1F369A200DB689B181868B8B901216F
S315000028200D00A5406A1D3000920000F06BFB60B100
S31500002830446085600DE021220421300000F062FB37
S31500002840F369E860DB68002BE3D1002070BD026805
S315000028501A6000230361C360F8E7C046DF4F00003B
S315000028606050000070B5C66905000C0076B91020EE
S31500002870FFF7FCFE0200E86120B98F21084B0948EA
S31500002880FEF7F0FA466086600660C6603CB1EB690A
S315000028906268DB6892009B181A6822601C6070BD33
S315000028A0DF4F000060500000F7B50F0001900C00EC
S315000028B01E0000200D6914373B68013099B2514360
S315000028C01B0C534389190E0C9B191E0C89B21B0451
S315000028D05B1808C78542EFDC16B3A368AB4219DC68
S315000028E0616801980131FFF77DFF070028B90200F2
S315000028F0BA210C4B0C48FEF7B5FA210022690C31BF
S31500002900023292000C30FFF743F821000198FFF7DE
S31500002910A9FF3C002B1D9B00E31801355E60256175
S315000029202000FEBD4F500000605000004FF6FF72C1
S3150000293003000020934201D81B0410308022520469
S31500002940934201D208301B0280225205934201D2E3
S3150000295004301B018022D205934201D202309B0033
S31500002960002B03DB0130134200D12020704703689F
S31500002970010007221800104013420DD0063A00202D
S31500002980134205D10230034203D0D34010000B603E
S3150000299070479B080B60FBE79AB20AB910201B0C24
S315000029A0DAB20AB908301B0A1A0701D104301B092A
S315000029B09A0701D102309B08DA07EBD45B08013095
S315000029C0002BE7D12020E3E710B50C000121FFF72B
S315000029D009FF30B9020040F24511044B0448FEF7E6
S315000029E041FA01234461036110BDC0464F50000007
S315000029F060500000F0B514000A6923690D0089B023
S31500002A009A4202DB23000C001D0027692E696168CB
S31500002A10BB190093A368BA19934200DA0131FFF794
S31500002A20E1FE844630B9020040F26211434B44484D
S31500002A30FEF718FA0200BB1914329B00D318019353
S31500002A40002113000198834228D32300BF001433CA
S31500002A5004931435DB19B6000293AB1907930423CC
S31500002A600593230002991533994205D30C1B153C97
S31500002A70A4080134A3000593079B9D4210D3009B35
S31500002A80002B05DD019B043B01931B68002B51D0F5
S31500002A9063466046009A1A6109B0F0BD02C3D1E7E9
S31500002AA02C68A4B2FCB100231700049E039308CE41
S31500002AB0396806936B461B8B88B263431B180398D1
S31500002AC0090C1B180698000C60434018190C411895
S31500002AD0080C9BB209041943029B039002C7B34238
S31500002AE0E5D8059BD0502C68240C04B300211000B7
S31500002AF01368049E03913168076889B261433F0CED
S31500002B00C919039F9BB2C9190F041F43076080CEE2
S31500002B1043683F0C67439BB2090CFB185B18190C02
S31500002B20039102990430B142E5D805995350043512
S31500002B300432A1E7009B013B0093A0E74F50000041
S31500002B4060500000F7B50323150007000E001A4079
S31500002B501D4208D02449013A920052580023310000
S31500002B60FFF7A2FE0600AD10DDB3FC697CB91020AC
S31500002B70FFF77CFD0200F86128B940F2B3111B4B48
S31500002B801B48FEF76FF9446084600460C460FB690B
S31500002B909C6801934CB940F271213800FFF714FF8D
S31500002BA0019B040098600023036001231D420AD0A4
S31500002BB0310022003800FFF71DFF31000190380078
S31500002BC0FFF750FE019E6D105DB1206838B92200F6
S31500002BD021003800FFF70EFF002320600360040089
S31500002BE0E3E73000FEBDC046C4500000DF4F0000E2
S31500002BF060500000F0B50C0016002369571185B02F
S31500002C00FB180193013300934968A3680290009A68
S31500002C1093420FDB0298FFF7E5FD00230100050054
S31500002C201A00143160B9020040F2DE11244B254827
S31500002C30FEF718F901315B00E9E798000A50013305
S31500002C40BB42FADBFB43DB171F40BF0023001F20FC
S31500002C50C91937002269143392009A1807400642B0
S31500002C6028D00130C01B03908C4600201E68BE4051
S31500002C700643604640C08446039E01CBF0409A421C
S31500002C80F4D8260015360423B24204D3131B153B91
S31500002C909B0801339B00C85010B1019B023300937F
S31500002CA0009B0298013B21002B61FFF7DBFD28000A
S31500002CB005B0F0BD01CB01C19A42FBD8F0E7C04692
S31500002CC04F5000006050000030B50B6904690200E7
S31500002CD0E01A9C420FD114329B0014311400C9181B
S31500002CE0D218043A043915680B689D4204D00120B5
S31500002CF09D4200D2023830BD9442F2D3FBE7FFFF7B
S31500002D00F0B50C0087B00090110020001700FFF707
S31500002D10DBFF050088B901000098FFF763FD02009C
S31500002D2028B940F237213F4B3F48FEF79BF8012375
S31500002D3045610361100007B0F0BD0026B04203DA1A
S31500002D4023003C001F00013661680098FFF74AFD2A
S31500002D50020018B940F24521324BE5E723691434E5
S31500002D6000939B00E318210001943C0002933B6909
S31500002D7014349B00E31803930300C6608C460020BE
S31500002D80143304930593634620CBA9B20E009C46E8
S31500002D9008CC2D0C99B2711A09181B0C0814EB1AE1
S31500002DA01B18181489B21B041943059B02C305930B
S31500002DB0039BA342E7D83900039C153104238C42B8
S31500002DC004D3E31B153B9B0801339B000199CD18E7
S31500002DD004992E00CB181F0002998E4210D3029C34
S31500002DE0E91E00208C4204D321000331491B8908C7
S31500002DF088001B18043B196881B1009B136199E791
S31500002E00844602CE88B2604400140C0C0419614456
S31500002E10201489B22404214302C7DDE70099013951
S31500002E200091E7E74F50000060500000F7B5012120
S31500002E3016001F00FFF7D6FC040030B9020040F26E
S31500002E400F31234B2348FEF70DF87D003B036D0D34
S31500002E501B0B15B180225203134301931EB3684620
S31500002E600096FFF784FD019B0099D0B120221E0039
S31500002E70121A96403200C3400A4362610193019ED2
S31500002E80A661731E9E4101362661A5B13526124BF9
S31500002E90ED18089B2D181D60099B361A1E60200030
S31500002EA0FEBD6161EBE701A8FFF761FD019B01260D
S31500002EB063612030E8E7094BC018089B1860084B8F
S31500002EC0F3189B00E3185869FFF730FD7601E3E736
S31500002ED04F50000060500000CDFBFFFFCEFBFFFF10
S31500002EE0FFFFFF3F002370B5054D040008002B606F
S31500002EF0FEF7E0F8431C02D12B6803B1236070BDD6
S31500002F00484400200B0C70B5150CEBB965B989B2B5
S31500002F1094B24C432100FFF7D5FB0500D0B1220047
S31500002F200021FEF721FD15E02B1C0C1C89B292B284
S31500002F304A439BB2A1B25943140C0C19230C33B962
S31500002F40240492B21443E5E70DB9141CEEE70C23F2
S31500002F5000250360280070BD82B001B901A91000E8
S31500002F602AB133B113780B601078431E984102B032
S31500002F70704702204042FAE70300080029B1FF2A01
S31500002F8004D98A2201201A604042704701200A7043
S31500002F90FBE7FFFF02B4714649084900095C490096
S31500002FA08E4402BC7047C0468446100062468C467A
S31500002FB01900634600E0C0461FB500F0A3FF0028D5
S31500002FC001D40021C8421FBD10B500F0E9FE404201
S31500002FD0013010BD10B500F095FF002801DB002080
S31500002FE010BD012010BDC04610B500F08BFF0028B3
S31500002FF001DD002010BD012010BDC04610B500F057
S3150000300013FF002801DC002010BD012010BDC046C2
S3150000301010B500F009FF002801DA002010BD0120DC
S3150000302010BDC046F0B5CE46474680B50D0383B009
S31500003030009201934E00C300CC0F690A450F0D4361
S315000030409946009A019B19035F00D80F530F009A07
S31500003050490A760D7F0D0B43AC46D200F11B844224
S3150000306000D1BBE0002900DC82E0002F00D1F9E0AE
S3150000307040F2FF70864200D19CE10125382914DC1C
S315000030808020000403431F2900DD06E220201D00E6
S31500003090401A170082408540CF40501E82413D4372
S315000030A0CB4015436246D31A9C464B465D1BA94549
S315000030B08041634640421B1A984643461B0200D491
S315000030C045E143465B025B0A98464346002B00D126
S315000030D01EE14046FEF7E8F80100083920222F00DD
S315000030E0531A4046DF4088403B008D4003438E42E2
S315000030F000DDCDE1881B29000130121AC140954040
S315000031008846691E8D41190091400A004146C34018
S3150000311029430D009846002615436B0709D00F2357
S315000031202B40042B05D02B1DAB42AD416D42A8446C
S315000031301D0043461B0200D4C4E240F2FF73013671
S315000031409E4200D1DFE04146D04A334011400A009A
S315000031505707ED0852022F43120B1B051343E407D2
S3150000316023433800190003B0C0BCB946B046F0BDD1
S31500003170002900D18AE0B91B002E00D076E12C0090
S315000031804D462C43002C00D1D2E14C1E012900D122
S3150000319055E240F2FF75A94200D108E20125382C1C
S315000031A013DC21001F2900DD08E2202465464E4677
S315000031B0641AA540CE4035434E46A6403400661EEE
S315000031C0B44125436446CC401B1B551BAA42924181
S315000031D052429B1A984604003E006EE7002900DC26
S315000031E0BAE0002F00D083E018001043002800D179
S315000031F0F3E0481E012900D1ACE140F2FF75A94277
S3150000320000D1D7E00125382810DC01001F2900DD98
S31500003210BAE120201D00401A170082408540CF40A9
S31500003220501E8241CB403D4315439C444D444D4581
S31500003230804140426044804643461B0200D486E0FB
S3150000324040F2FF7301369E425DD042468F4B01210C
S315000032501A40130029406A080A43DD075B089846AE
S3150000326015435AE718001043002800D1B5E0481E60
S31500003270012900D17DE140F2FF75A94200D199E014
S315000032800125382800DD10E70100FCE640F2FE7556
S31500003290771C3D4200D0D5E04F4665463D431F00B2
S315000032A01743002E00D047E1002D00D1BAE1002FD0
S315000032B000D178E14D46AD1AA8466546C145B641EE
S315000032C0ED1A7642AD1B80263604354200D109E25E
S315000032D04C46151BAA429241644652421B1B9A1A3F
S315000032E0324200D117E2694B04001A4001232FE74E
S315000032F040F2FF7086425DD00125382996DC802099
S315000033000004034382E740F2FF730022002724E70C
S315000033102800FDF7C9FF010018311F2900DCDDE692
S315000033202B00083883408E4200DDC5E0891B481C0F
S315000033301F2800DCCAE11D001F39CD40202805D01A
S315000033404022121A93405A1E93411D4300266B07D2
S3150000335000D0E4E6310009E100294ED0B91B002E69
S3150000336000D1B4E040F2FF70874200D123E101258D
S31500003370382917DC8020654600040543AC461F2922
S3150000338000DD8CE1202065464E46401A8540CE4041
S3150000339035434E4686403000461EB04105436046E2
S315000033A0C8401B18AD1895429241524290463E00C5
S315000033B0984441E74B46DA0863465F071743DD0842
S315000033C02B003B43002B00D1A0E1802212032A43AD
S315000033D0120340F2FF73120BBFE64B46DA08634650
S315000033E05F07DD0840F2FF7317439942E8D040F2C9
S315000033F0FF732A03120B0B40AFE640F2FE70771CF8
S31500003400384278D128004D462843002E00D0E8E007
S31500003410002800D13FE118001043002800D1C2E087
S315000034204A444A458041634440421B18D208190267
S3150000343000D465E115490B405F075B0217431A0B81
S3150000344001238AE649468D1AA945BF4161467F4256
S31500003450C91AC91B884609025FD447462F43002F65
S3150000346000D032E600240023002276E640F2FF7404
S31500003470A74200D19BE00125382900DDA5E680247E
S31500003480654624042543AC468CE6C046FFFF7FFF15
S31500003490A44A761A134098463FE608001F002038D3
S315000034A0C740202903D04020411A8B401A43531E9F
S315000034B09A4115003D43F8E59A4A711A13409C4615
S315000034C063465F0743461F436346DD088FE72800D0
S315000034D04D462843002800D1BCE0481E012900D1F2
S315000034E0F8E040F2FF75A94265D00125382800DDD5
S315000034F058E7010043E740F2FF718F4200D102E72F
S315000035004A444A458041634440421B18DD0752083D
S315000035105B0898463E001543FFE54946551AAA4200
S315000035209241614652425B1A9B1A98460400CCE5CA
S3150000353004009C46D20852E7002D00D08DE0002FF3
S3150000354000D1D9E0DD08D7085B071F432B00040034
S315000035503B4337E74A444A45804163449846150051
S3150000356040428044434601211B0266D4C446EA0811
S3150000357035E749468D1AA945804162464042D31A2D
S315000035801B1A9846012698E508001F002038C740F8
S31500003590202903D04020411A8B401A43531E9A41DA
S315000035A015003D4342E64B46DB08984688E7040093
S315000035B09C46D20800E79C46D208FDE60C0066460B
S315000035C0203CE640202907D04024611A64468C40FE
S315000035D021004C460C43A1464D46691E8D4135439C
S315000035E0F3E50028E7D019001143002900D1E1E6F0
S315000035F06146CD084946C808614649070843802107
S3150000360009030D4206D0DE080E4203D13500D0086C
S315000036105B0718432B00470FC0007F07C00807430E
S315000036203B43CFE6002F00D11CE7D2085F075B02C1
S31500003630174304001A0B00238FE5022605E6551BE7
S315000036406146AA4292415B1A52429B1A984604006E
S31500003650012632E59C46D208C1E6002F00D1A9E634
S3150000366061466646CD0849467607C9083143802635
S315000036703603354207D0DF08374204D104003D0047
S31500003680D1085B0719432B004F0FC9007F07C908F4
S315000036900F433B4396E6D20890469C4610E7080047
S315000036A066462038C640202907D04020411A604689
S315000036B0884001004846084381464D46691E8D41B3
S315000036C035436FE63100C446EA0888E62022002525
S315000036D0121A18E5AD189542924163449846524233
S315000036E090443FE747462F43002F00D1BAE64346B2
S315000036F0DB089846AC46E3E6802500242D0364E605
S315000037005F075B0217431A0B002326E5002740F2EA
S31500003710FF73002221E5ED0857072F430400D50863
S3150000372065E6C046FFFF7FFFF0B5DE4645465746D5
S315000037304E46E0B587B0009201930B031B0B9B46E8
S315000037404B00CA0F5B0D040080460292002B00D18D
S3150000375092E040F2FF72934239D05946420FC900B7
S315000037600A43802109041143C2009046894A8946CA
S3150000377092469A44002300240393009E019F3B0334
S315000037801B0B9B467B005B0D3000FD0F002B00D111
S31500003790A6E040F2FF72934200D194E05946720FC0
S315000037A0C9000A438021090411437A4A002094463D
S315000037B052466344D31A9A468B46F100029B6B40ED
S315000037C00F2C00D9F0E0744AA400125997465B46C4
S315000037D003439946002B00D0A4E0023340F20008D0
S315000037E0082440F2FF7A0393C7E72B0040F2FF72EA
S315000037F0002440F2000812052243DB071A43404624
S31500003800110007B0F0BCBB46B246A946A046F0BDC3
S315000038100022002440F20008EDE7CB464146029D17
S3150000382003980228E1D0032800D173E22B00012877
S31500003830EED040F2FF305044002800DCA7E14A07F2
S3150000384000D07AE25A46D20106D55846534A10406D
S31500003850834640F20040504440F2FE729042C5DC7E
S315000038605A46C90852070A4390465A46540240F23D
S31500003870FF72240B0240BEE75B4603439946002BCA
S3150000388062D05B46002B00D1DBE15846FDF70CFD0C
S315000038900B235B429C460200844466461D239B1B09
S315000038A0260011005846DE4008398840330003439D
S315000038B0994623008B409846394B00249B1A9A461A
S315000038C00023039359E75946009B1943354B9C4601
S315000038D0E244A1BB022340F2000B02201C436DE729
S315000038E05946009B194321B35B46002B00D1BAE130
S315000038F05846FDF7D9FC020003000B3A1D27009E2F
S31500003900BA1A19005846D640083988403200024390
S315000039109346009A8A401100534440F2F33A00203D
S315000039209A444BE70323D9460C2440F2FF7A0393CB
S3150000393023E7012340F2000B01201C433EE703234B
S31500003940310003201C4339E7012340F20008042418
S3150000395040F2000A039310E78024002340F2000897
S31500003960240340F2FF7246E780244B462403234299
S3150000397008D05B46234205D11C4324032B0088460E
S31500003980240BEEE780244B4624031C432403029BAE
S31500003990240BE6E701FCFFFFC4520000FFFFFFFE19
S315000039A00DFCFFFF01F8FFFFCB4500D23FE100D140
S315000039B03AE101225242944647464A460025E244ED
S315000039C058460C0E000204430902000CB2FBF0FC40
S315000039D000914FF6FF712600214002946446039140
S315000039E04C4361464143521A1204390CA046114316
S315000039F08C4207D9B14662464944013A8E4200D804
S31500003A0050E194464246891AB1FBF0FB5A46039CA4
S31500003A104FF6FF7962435C464443091B4C46090452
S31500003A203C4021438A4208D9029E5C46B046414446
S31500003A30671E8E4200D82BE1BB468A1A61465C4659
S31500003A404FF6FF7C09040C430099270C090C8946A4
S31500003A506146A34621406446009E344004944C438C
S31500003A602600049C7C43A0464C4661436743340CC5
S31500003A70A44641446144884503D980246402A4468F
S31500003A8067440C0CA0460904474488464FF6FF716C
S31500003A9031404144BA4200D2ADE000D1A8E0691AF3
S31500003AA08D42AD41029ED71B6D427F1BBE4200D1A7
S31500003AB034E1B7FBF0F20400039D544355433F1B2A
S31500003AC03F040C0C2743BD420BD9B046541E474455
S31500003AD0A446BE4200D937E1BD4200D834E1023ADD
S31500003AE047447F1BB7FBF0F56843381A4FF6FF775C
S31500003AF0039C00046C430F40A4460743BC420BD909
S31500003B000298691E80464744B84200D91EE1BC456A
S31500003B1000D81BE1023D474461467F1A1104049C0C
S31500003B2029430D0C20006C434FF6FF72A4464C4609
S31500003B300A405043624362449046020C4244654345
S31500003B40944503D980246402A4466544140CA44613
S31500003B50AC444FF6FF75120428401218674506D389
S31500003B6002D00122114364E6002A00D161E6029CDC
S31500003B70481EA0464744A74200D2C2E0674500D28D
S31500003B80F9E000D103E10100EBE7012149420122FE
S31500003B90121A382A00DD3BE61F2A00DC8CE01F24BF
S31500003BA06442201A5C46C4402000202A05D040F218
S31500003BB03E425C465244944021434A1E91410722AC
S31500003BC001431000002408400A420CD00F220A408C
S31500003BD0042A00D1E0E0081D8842924101005242C9
S31500003BE050075202140BC90801438846002202E618
S31500003BF08D4200D353E7012464425C440594009C43
S31500003C00A4466544A542A4416442A446029CA0463B
S31500003C10C4446244944235D2974200D99BE000D115
S31500003C2096E0059CA3463AE7414500D9C1E64846D9
S31500003C30C707404640084A46074340465208C5075C
S31500003C40BEE6FDF731FB40F2150C844402006346E4
S31500003C5020321C2B00DC20E623000838834040F28B
S31500003C600008994628E6FDF71FFB020003001532FF
S31500003C7020331C2A00DC41E6009A083882400021E5
S31500003C80934649E69442CCD1009CAC42C9D8C3E7DE
S31500003C908A4200D8D0E602246442A046C344B04615
S31500003CA04144CAE6884500D8ABE602225242914614
S31500003CB0CC44B1464944A5E640F21E400D005044AE
S31500003CC05C4681408440D54008002C43411E884113
S31500003CD0210001435846D0400200480709D00F2072
S31500003CE00840042805D0081D8842894149425218D7
S31500003CF00100100200D473E70122002440F20008FC
S31500003D0079E50100674500D02BE70098824200D094
S31500003D1027E78EE580245B4624032DE640F2FF303C
S31500003D201E4A5044924500DA2FE701225242111DE5
S31500003D30914292415242934484E50F220A40042A5A
S31500003D4000D17FE50A00F2E76246CAE60D00E3E627
S31500003D50A94200D865E702246442A446009CE344D5
S31500003D60A4466544A542A4416442A446029CA046DA
S31500003D70C444624493E60098029C45008542804113
S31500003D80A0464042404402393F180095BAE7009CDD
S31500003D909442F0D30100B8E7002221E702FCFFFFBE
S31500003DA0F0B55746DE464E464546E0B50D000400E2
S31500003DB0E80F8346D80F824640F2FF700903090BCD
S31500003DC08C461F0369005E00490D3F0B760D81424C
S31500003DD017D086420ED00120B1420CD1BC450AD183
S31500003DE0944208D1D3451CD029B960462043431ECE
S31500003DF0984100E00120F0BCBB46B246A946A04669
S31500003E00F0BD01208E42F6D1614639430F001743BB
S31500003E102743002FEFD15B465246981A431E98411E
S31500003E20E9E70020E7E7C046F0B557464E46454667
S31500003E30DE46E0B50D000E034900490D8A4640F204
S31500003E40FF7BE90F83B004008046019158001903F7
S31500003E50DF0F9146BC46360B090B400DDA451DD0E7
S31500003E6058450CD057465FBB344330BB0A43002A43
S31500003E7037D0002C42D163465800013816E0114372
S31500003E80002938D1534613B92643002EF3D0019B9F
S31500003E90634507D1019B5800013807E0264356BB0E
S31500003EA0504521D00120019B5F42384303B0F0BC4E
S31500003EB0BB46B246A946A046F0BD002CDBD0E6E7DD
S31500003EC00028EFD0019B6345ECD18245EADCE1DBBB
S31500003ED08E42E7D8DED1C845E4D80020C845E5D2F1
S31500003EE0D8E7002CE2D0DDE7114321B9019BBB42A4
S31500003EF0D8D10020DAE702204042D7E7019B63458C
S31500003F00E6D0CFE7F0B557464E464546DE46E0B525
S31500003F100D000E034900490D8A4640F2FF7BE90F6A
S31500003F2083B004008046019158001903DF0F9146C3
S31500003F30BC46360B090B400DDA451ED058450DD050
S31500003F40574647BB3443002834D10A43002A34D0AD
S31500003F50002C40D163465800013815E0114391B951
S31500003F60534613B92643002EF4D0019B63451DD05A
S31500003F700120019B5F42384306E026431EB95045A7
S31500003F80F6D11143E1B1022003B0F0BCBB46B24604
S31500003F90A946A046F0BD0028EAD0019B6345E7D1BB
S31500003FA08245E5DC02DB8E42E2D80ED0019B58004A
S31500003FB00138E9E7002CCDD0D7E7002CE4D0D7E7CD
S31500003FC0019B0020BB42DFD0D2E7C845D0D80020F5
S31500003FD0C845D9D2EAE7019B6345E4D0C8E7C046A5
S31500003FE0F0B5DE464E4657464546E0B589B00092E6
S31500003FF001930B031B0B9B464B00CA0F5B0D040082
S315000040009146002B00D1CDE140F2FF72934200D1E0
S315000040105FE15946420FC9000A4380210904114352
S31500004020C2009046DC4A8B469C180023002502936A
S31500004030009E019F3B031B0B9A467B00FA0F5B0D0C
S3150000404030000392002B00D183E140F2FF729342CD
S3150000405000D169E15146720FC9000A438021090463
S315000040601143CD4A8A46944600216344F0001B1949
S315000040705C1C0A2D00DD3CE14E46039A5640F2B226
S315000040800092022D00DCB7E1012240F23057AA402F
S3150000409015003A002A402F4200D028E140F240277E
S315000040A02F4200D01BE288222A4200D0FDE14FF6C3
S315000040B0FF75414642462940170C0540020C080090
S315000040C068438446280016007843804608007E43ED
S315000040D0029203963200029E70436646360CB14643
S315000040E040444844804505D9160080225202904635
S315000040F0464403964FF6FF78060C424604966646FB
S3150000410000041640B4460200624405925246120C60
S315000041109446404652460E00104046436246B1461B
S31500004120060051437E4357434A46B246120C904618
S31500004130514441448E4203D980225202904647445C
S315000041400A0C90464E463A004FF6FF773E40B1467F
S31500004150424406920904049A494490468946C84452
S31500004160424604925A46120C90465A4617403E0062
S315000041706E43B14646466E43B2464E464546360CFB
S31500004180B346029A079155437A4352445A4492459C
S3150000419003D9802149028A465544160CB246554435
S315000041A04FF6FF7A494656460E40B146120441463E
S315000041B091443A0046464243484361464E434F4384
S315000041C0110C8C463F18BC44B046604503D980218B
S315000041D049028A46D044049903988A466646504462
S315000041E04FF6FF7A370456461640BA190799069EC7
S315000041F088428941B246494252445718BA46484411
S315000042004845BF41B24292418A458941AB467F4209
S3150000421049425242B9460A436146D344D944090C3D
S315000042205218B945BF41AB4589417F4249420F43C8
S315000042304946D21942445202C90D059D11438B4687
S31500004240410229434D1EA941C00D08434946490272
S3150000425008438046D20100D468E1012243080240A7
S3150000426013435A46D207134398465B465B089B4660
S31500004270009B994640F2FF33E118002900DCE4E098
S3150000428043465B070AD00F2342461340042B05D052
S31500004290043242459B4190465B429B445B46DB01B0
S315000042A006D55A463D4B1A4040F200439346E11864
S315000042B040F2FE73994200DD99E043465A46DB0818
S315000042C052071A435B465C0240F2FF73240B0B4015
S315000042D01CE05B4603439846002B00D0AEE0023359
S315000042E040F2000B082540F2FF740293A0E6009B03
S315000042F09946029B022B00D179E0032B00D1E4E022
S31500004300029B012BB6D100230024002210004A464E
S315000043101B052343D2071343190009B0F0BCBB4663
S31500004320B246A946A046F0BD5246009EE318164383
S31500004330002E7CD003224E4640F6000C1543039A0D
S3150000434064445640F2B200920A2D00DDB3E0032128
S315000043509AE65346009A1343002B60D05346002B2F
S3150000436000D1D3E05046FCF79FFF020003000B3A52
S315000043701D27009EBA1A19005046D64008398840B3
S3150000438032000243009892468840054AE31A944652
S31500004390002163446CE6C04601FCFFFFFFFFFFFE01
S315000043A00DFCFFFF5B46034398468BB35B46002B31
S315000043B000D199E05846FCF777FF0B235B429C46F9
S315000043C00200844466461D239B1B260011005846A6
S315000043D0DE4008398840330003439B4623008B4068
S315000043E0984600236A4C0025A41A029320E640F260
S315000043F0FF730024002289E7013D012D00D956E60E
S31500004400009B99460229F2D0D3468046029177E76F
S31500004410012340F2000B04250024029308E6013331
S315000044201D4340F2000A23000020012120E602225B
S3150000443040F2000A00200221154319E603238046B4
S315000044400C2540F2FF740293F2E501235B1A382B28
S3150000445000DD58E71F2B72DD1F225242521A5946C1
S31500004460D140202B07D040F23E4C5B466444424686
S31500004470A3401A4390464246531E9A4107230A43D5
S3150000448019000024114013420BD00F231340042BB4
S3150000449076D0131D9342A4411A0064426107640258
S315000044A0240BD20800230A4330E7039BD3469946E0
S315000044B0804602911DE70F2D64D180245B462403BC
S315000044C0234202D05346234234D080245B464246E0
S315000044D024031C432403240B40F2FF7316E78024B5
S315000044E040F200092403F7E7FCF7DEFE40F2150C64
S315000044F084440200634620321C2B00DC62E7230062
S315000045000838834040F200089B466AE7FCF7CCFE79
S3150000451002000300153220331C2A00DC28E70200C3
S315000045200099083A914000208A462EE7009A1C001E
S3150000453091469FE61C43039B02009946CCE740F256
S315000045401E4C5A4641466444A240D9400A4341465D
S31500004550A140481E81415C460A43DC40530709D00E
S315000045600F231340042B05D0131D93429241524250
S31500004570A4181A00230291D5012300240022C5E6BF
S3150000458000248BE7039BD346994680469DE7C046A9
S315000045900DFCFFFFF0B557464546DE464E46E0B5F4
S315000045A00D0383B0009201934E00C3006D0ACC0F39
S315000045B0410F9C469846009A019B29431D035F00C4
S315000045C0D80F6D0A530F2B439B46009B760DDA00DE
S315000045D040F2FF7392467F0D9F4200D1DBE040F22E
S315000045E001094D466840F51BA946844200D189E081
S315000045F0002D00DC74E3002F00D1EDE040F2FF73E4
S315000046009E4200D184E148460125382817DC8020E7
S315000046105B46000403439B4648461F2800DD02E232
S315000046204B4620201700C01A5D4682408540DF4079
S31500004630501E82413D4315435A46DA40891A634665
S315000046405D1BAC45804140420B1A984643461B020F
S3150000465000D458E143465B025B0A98464346002B6A
S3150000466000D131E14046FCF71FFE0300083B202243
S315000046702F00D11A4046CF40984039009D40014353
S315000046809E4200DD8EE1981B2B000130121AC340BA
S31500004690954098466B1E9D410B0093404246C14093
S315000046A02A431500884600261D436B0709D00F23B1
S315000046B02B40042B05D02B1DAB42AD416D42A844C7
S315000046C01D0043461B0200D4DDE240F2FF730136B3
S315000046D09E4200D1F3E04146B54A334011400A00FC
S315000046E05707ED0852022F43120B1B051343E4072D
S315000046F023433800190003B0F0BCBB46B246A946B6
S31500004700A046F0BD281E00DC04E3002F00D0C8E060
S3150000471058461043002800D1FDE0681E012D00D147
S31500004720CDE140F2FF739D4200D1F1E0012538282A
S3150000473014DC81464B461F2B00DDDCE12020C01A2D
S315000047405B46834017001D004B468240DF40501EEB
S3150000475082413D4315435A46DA408918654465450A
S31500004760804140428046884443461B0200D4CAE04A
S3150000477040F2FF7301369E4200D1A0E042468C4BC8
S3150000478001211A40130029406A080A43DD075B0825
S315000047909846154389E7874DA9465D461543B144BA
S315000047A07DB3844231D04D46002D62D0002E00D11B
S315000047B002E104005946D2084F071743C9080B0007
S315000047C03B43002B00D186E2802212030A431203E8
S315000047D040F2FF73120B88E758461043002800D1B9
S315000047E099E028000138012D00D179E140F2FF73EC
S315000047F09D4200D18CE00125382800DD1FE7814667
S315000048000AE7012568408442CDD14B46002B00D1F2
S3150000481092E0002E00D01CE140F2FF79604608438A
S31500004820002800D1E4E14B465D1E012B00D132E2A7
S3150000483040F2FF70814500D10BE10120382D10DCDC
S315000048401F2D00DD0EE2202608006346761BB040D1
S31500004850EB4003436046B040E940461EB0418B44FE
S315000048601843851895429241524290463E00D844DC
S315000048707AE740F2FE77751C2F427AD15F4665468D
S3150000488017430D43002E00D0F9E0002D00D185E13D
S315000048906346002F00D08EE1DB08984640F20009FF
S315000048A062E040F2FF739E4232D00125382800DDD7
S315000048B054E780205B46000403439B463AE740F2F8
S315000048C0FF730022002710E72800FCF7EDFC030029
S315000048D018331F2B00DCCAE62900083881409E42A7
S315000048E000DDB1E09B1B581C1F2800DCCFE10D004A
S315000048F01F3BDD40202805D040231B1A99404B1E44
S3150000490099410D4300266B0700D0D0E6B146E4E09E
S315000049106346DA0850E76346DA0840F2FF734F074A
S315000049201743C908994500D149E7090340F2FF73C7
S315000049300A0B49460B40D8E640F2FE70771C384217
S3150000494000D089E060460843002E00D0F7E000283A
S3150000495000D16FE15B461343002B00D070E1634644
S31500004960DB08984640F2000943464F071F43C90833
S31500004970DBE76546AD1AAC45BF415B467F42B946AB
S31500004980CB1A1F004B46FF1A3B00B8461F0200D544
S3150000499085E047462F43002F00D05FE60024002322
S315000049A00022A2E6F61A024B194088467DE6C0466A
S315000049B0FFFF7FFF01F8FFFF40F2FF7964460C43DB
S315000049C0002C78D001235B424B449A464B46012B80
S315000049D000D1D7E040F2FF74A14500D1E9E6534685
S315000049E004000125382B15DC53461F2B00DD95E00E
S315000049F020206646C01ADE4063460D00834085408F
S31500004A0018005346D9405B4635435B1A461EB041F3
S31500004A109B460543551BAA4292415B4652429B1A4E
S31500004A2098463E0012E65D464B462038C540202B90
S31500004A3005D04020C01A5B4683401A43924653462F
S31500004A405A1E93411D43FAE5F31A9946B94B19408C
S31500004A508AE75946D208AFE640F2FF70874200D196
S31500004A602DE76244624580410B0040425B441B18BF
S31500004A70DD0752085B0898463E00154315E6002DF3
S31500004A8000D0B8E0002F00D11BE15B46D2085F07DB
S31500004A901743D90801243B0004400B4391E66346C3
S31500004AA0D51AAA4292415B4601245B1A52429B1ACE
S31500004AB098460440D2E504005946D2082DE70B007B
S31500004AC06244624580415B449846150040428044FA
S31500004AD0434640F201091B0252D44146EA081CE74C
S31500004AE063469D1AAC4580415B464042CB1A1B1A71
S31500004AF098460126AAE548465B462038C3401F0073
S31500004B004B46202B05D04020C01A5B4683401A43F3
S31500004B10924655466B1E9D413D431FE650460E008C
S31500004B202038C640202B05D04020C01A814063465D
S31500004B300B4398464546691E8D4135436AE7002872
S31500004B4087D05B461343002B00D1E1E66346CD08D0
S31500004B50D80849070843802109030D4207D05B4660
S31500004B60DE080E4203D13500D0085B071843470F15
S31500004B70C0007F07C00807433B0029002B4320E6FF
S31500004B800226FBE56346D51AAA4292415B4652428B
S31500004B905B1A9B1A98460400012657E5002F00D1A0
S31500004BA0FCE65B460124D2085F075B02174304401C
S31500004BB01A0B002399E59B1A98465B46C445B641F5
S31500004BC0CD1A7642AD1B8026360435426DD063463B
S31500004BD0D51AAA4292415B4601245B1A52429A1A9E
S31500004BE00440324200D18EE0524B1A40012377E551
S31500004BF05946D20891E6002F00D189E66346CE08D1
S31500004C00DD084907294380252D032E4209D05B463E
S31500004C10DF082F4205D101243E00D1085B07194366
S31500004C2004404F0FC900C9087F070F433B003100FE
S31500004C303343C6E5D308984640F20009594693E641
S31500004C406244624580410B0040425B441B18D20817
S31500004C5019023AD537490B405F075B0217431A0B17
S31500004C60012342E528000E002038C640202D05D03D
S31500004C704020401B814063460B4398464046411EF8
S31500004C8088413043EDE5B1464146EA0845E6202233
S31500004C900025121A00E563469D180B0095429241C5
S31500004CA05B4498465242904412E747462F43002FF2
S31500004CB000D173E64346DB08984640F20009290016
S31500004CC052E68021002409037EE55F075B02174355
S31500004CD01A0B002309E5002740F2FF73002204E5C2
S31500004CE0002D00D1C5E5BB1B9A469946002E00D182
S31500004CF064E6382B04DC802424042143040073E694
S31500004D000400012586E65707ED0840F200092F4307
S31500004D10D1080AE6002D00D10EE6BD1B0EB9A94644
S31500004D207CE50120382D00DD9BE580200004014351
S31500004D3086E5C046FFFF7FFF40F2FF7CF0B50C031F
S31500004D404D001E035F00240B6D0D360B7F0D654570
S31500004D5009D040F2FF7100208F4203D11643300084
S31500004D60431E9841F0BD04430120002CFAD1F0E720
S31500004D7070B50B00020040F2FE350C0382B049000C
S31500004D80002000920193240B490DDE0FA94205DD98
S31500004D9040F21D40814203DD0F4BF01802B070BD9A
S31500004DA080204003204340F23344641A1F2C09DD5F
S31500004DB040F213435B1AD84003005842002EEDD14F
S31500004DC01800EBE7054B009A9C46030061448B40B4
S31500004DD0E2401343F1E7C046FFFFFF7FEDFBFFFF15
S31500004DE070B5C0B1C317C5185D40C40F2800FCF7E5
S31500004DF05BFA40F21E4240F2FF73121A13400A2871
S31500004E0014DC02002E00153296400B22121AD540F1
S31500004E102D032D0B03E000240023002500261B058F
S31500004E202B43E40723433000190070BD0B3885403F
S31500004E302D0300262D0BF2E710B5040090B1FCF708
S31500004E4033FA40F21E4240F2FF73121A13400A2848
S31500004E500FDC0B222100121AD14015300A038440C0
S31500004E60120B01E0002300221B051343200019004A
S31500004E7010BD22000B38824012030024120BF3E708
S31500004E804275696C7420776974682052656E657323
S31500004E90617320416476616E63656420466C657853
S31500004EA069626C6520536F66747761726520506124
S31500004EB0636B6167652076657273696F6E20352E48
S31500004EC0352E3000352E352E300000000000050549
S31500004ED0F8B5C046F8BC08BC9E467047F8B5C04653
S31500004EE0F8BC08BC9E4670474653505F5355434333
S31500004EF0455353203D3D2065727200002E2E2F73C0
S31500004F0072632F68616C5F656E7472792E63000040
S31500004F100A48656C6C6F20576F726C64212E0A000C
S31500004F20524120453253545544494F0068616C5FE5
S31500004F30656E74727900FFFF090200000204020523
S31500004F40020602070000000000000000E504000061
S31500004F5000000000584F0000000100000040002043
S31500004F600F00FFFF00000000FFFF0000040000002C
S31500004F70784F00000000000000000100080100005A
S31500004F800000010509010000000001050A010000FA
S31500004F900000010000030000000000001E1C1E1A95
S31500004FA000000000000000000000000000000000FB
S31500004FB000000000000000000100020008001000D0
S31500004FC0494E4600696E66004E414E006E616E00A7
S31500004FD03000496E66696E697479004E614E005202
S31500004FE045454E54206D616C6C6F63207375636329
S31500004FF06565646564002F646174612F6A656E6B14
S31500005000696E732F776F726B73706163652F474E8E
S31500005010552D746F6F6C636861696E2F61726D2DAB
S3150000502031332F7372632F6E65776C69622D6379E6
S315000050306777696E2F6E65776C69622F6C6962633C
S315000050402F7374646C69622F64746F612E630042FF
S31500005050616C6C6F6320737563636565646564007A
S315000050602F646174612F6A656E6B696E732F776F3B
S31500005070726B73706163652F474E552D746F6F6C3D
S31500005080636861696E2F61726D2D31332F737263A0
S315000050902F6E65776C69622D63796777696E2F6EFF
S315000050A065776C69622F6C6962632F7374646C69CF
S315000050B0622F6D707265632E63004300504F534933
S315000050C058002E0005000000190000007D000000B9
S315000050D00080E03779C34143176E05B5B5B89346EE
S315000050E0F5F93FE9034F384D321D30F94877825ABA
S315000050F03CBF737FDD4F1575000000000000F03FD8
S31500005100000000000000244000000000000059409C
S315000051100000000000408F40000000000088C340EF
S3150000512000000000006AF8400000000080842E4164
S3150000513000000000D01263410000000084D79741B0
S315000051400000000065CDCD41000000205FA00242B6
S31500005150000000E876483742000000A2941A6D422B
S31500005160000040E59C30A2420000901EC4BCD6421E
S3150000517000003426F56B0C430080E03779C34143C9
S3150000518000A0D8855734764300C84E676DC1AB433F
S31500005190003D9160E458E143408CB5781DAF15445D
S315000051A050EFE2D6E41A4B4492D54D06CFF0804438
S315000051B0F64AE1C7022DB544B49DD9794378EA444D
S315000051C000202020202020202020282828282820D1
S315000051D020202020202020202020202020202020C9
S315000051E02088101010101010101010101010101031
S315000051F01004040404040404040404101010101021
S3150000520010104141414141410101010101010101EA
S31500005210010101010101010101010101101010103C
S3150000522010104242424242420202020202020202BC
S315000052300202020202020202020202021010101010
S315000052402000000000000000000000000000000038
S315000052500000000000000000000000000000000048
S315000052600000000000000000000000000000000038
S315000052700000000000000000000000000000000028
S315000052800000000000000000000000000000000018
S315000052900000000000000000000000000000000008
S315000052A000000000000000000000000000000000F8
S315000052B000000000000000000000000000000000E8
S315000052C000FFFFFFA8390000EC370000103800008F
S315000052D0223800001038000058390000103800004D
S315000052E022380000EC370000EC3700005839000087
S315000052F0223800001A3800001A3800001A38000058
S30D000053006839000000000000FE
S315000053084400019D084000200000000010430020D2
S3150000531878430020E0430020000000000000000061
S31500005328000000000000000000000000000000006F
S31500005338000000000000000000000000000000005F
S31500005348000000000000000000000000000000004F
S3150000535800000000430000000000000000000000FC
S31500005368000000000000000000000000000000002F
S3150000537800000000430000000000000000000000DC
S31500005388000000000000000000000000000000000F
S3150000539800000000430000000000000000000000BC
S315000053A800000000000000000000000000000000EF
S315000053B8000000004300000000000000000000009C
S315000053C800000000000000000000000000000000CF
S315000053D8000000004300000000000000000000007C
S315000053E800000000000000000000000000000000AF
S315000053F8000000004300000000000000000000005C
S31500005408000000000000000000000000000000008E
S31500005418000000004300000000000000000000003B
S31500005428000000000000000000000000000000006E
S3150000543800000000792F0000592F0000000000002E
S31500005448C0510000C2500000C3500000C350000005
S31500005458C3500000C3500000C3500000C3500000F2
S31500005468C3500000C3500000C3500000FFFFFFFFF9
S31500005478FFFFFFFFFFFFFFFFFFFF00000100415393
S315000054884349490000000000000000000000000039
S31500005498000000000000000000000000000041536A
S315000054A84349490000000000000000000000000019
S315000054B800000000000000000000000000000000DE
S30D000054C8BD0400008D04000084
S31501010018FFFFFFFFFFFFFFFFFFFFFFFFFFFFFFFFE0
S31101010028FFFFFFFFFFFFFFFFFFFFFFFFD0
S705000010FDED
