S017000052413245315F50726F6A65637432302E737265633A
S31500000000D8480020412B00007D2900003D2B000030
S315000000103D2B00003D2B00003D2B00003D2B00003A
S315000000200000000000000000000000003D2B000062
S315000000303D2B0000000000003D2B00003D2B000082
S315000000400000000081250000912500005D260000CB
S31500000050000000000000000000000000000000009A
S31500000060000000000000000000000000000000008A
S31500000070000000000000000000000000000000007A
S31500000080000000000000000000000000000000006A
S31500000400FFFFFFFFDFCEFFFFFCFF0F00FFFF0F0028
S31500000410FCFF0F00FFFF0F00FCFF0F00FFFF0F00A8
S31500000420FCFF0F20FFFF0F20FCFF7F40FFFF7F40F8
S31500000430FCFF0D40FFFF0D40FFFFFFFF44F2B00041
S3150000044044F2B003C2F20000C2F2000310B58342C8
S3150000045005D040F20003C0F2000303B1984710BD77
S3150000046044F2B00044F2B003C2F20000C2F200034C
S315000004701B1A9A10D90F8918491010B529B140F2E4
S315000004800003C0F2000303B1984710BD10B544F253
S31500000490C804C2F20004237873B9FFF7CFFF40F215
S315000004A00003C0F200032BB143F22800C0F20000A3
S315000004B000E000BF0123237010BDC04640F20003D8
S315000004C0C0F2000310B54BB144F2CC0143F2280050
S315000004D0C2F20001C0F2000000E000BFFFF7C0FF5B
S315000004E010BDC04610B502F0E1FB10BD10B538B91D
S315000004F04CF2000390220121C4F27E03995410BDF0
S315000005000228FCD142F6806144F2E400C0F2000108
S31500000510C2F2000000F03AFCF1E7C04610B5FFF762
S31500000520E1FF002010BDC046F0B5D6464F46464610
S3150000053045F24353C0B50268C5F24F4304000D00AF
S315000005409A4200D1BBE081670B68002B00D1A7E07F
S3150000055044F28C11C2F200010A78022A39D844F218
S3150000056080105300C2F200001818A06144F27C10FB
S3150000057044F27016C2F200001818E06144F27810D6
S31500000580C2F20006B446C2F20000181820629000BB
S315000005906044606244F26C10C2F200001818A06257
S315000005A044F28810C2F200001818206144F2841048
S315000005B0C2F200001818606144F26010C2F2000036
S315000005C0844680209B185B00634423502B7CD21802
S315000005D00A702A8B40F2000AEB7C002A67D12C2293
S315000005E0A3542D232A7DE254EB8AE3852B8B2386A5
S315000005F02B7C73B300230021002240F2800C5800AC
S315000006002F68C618BF198046B8887F88B84201D9B6
S3150000061040F2030A4046A7690131FA52E769C9B2B6
S31500000620FA52276AFA52676A3A50A76AFA522F684C
S31500000630BF1978882769F8522F68BF19B888676983
S31500000640F852604627580233BE1972802E7C8E42BD
S31500000650D5D8534623B3EB69A97E5A682423D35CC5
S315000006602A685B002AB12D7CEA00521B02329B18D5
S315000006709BB244F200120533C2F2000249008B52CB
S3150000068044F2FC03C2F200031C6045F24353C5F278
S315000006904F4323605046E0BCBA46B146A846F0BD7B
S315000006A0EB69E3670BCB1B6898478246D3E7504656
S315000006B09342404103224042024092468FE740F275
S315000006C00E0AE7E744F2FC0310B5C2F20003186015
S315000006D0C36F18689B685B68984710BD0020704719
S315000006E010B5C46F2068A4686469A04710BDC046F1
S315000006F0F0B5C36F040018689B6883B09B680D0053
S3150000070001A9984741F27073984226D00233984265
S3150000071023D0A36F1A7CFAB1002701AEE26F7900ED
S3150000072052685279012A11D1A2693388525A00209F
S315000007309B1A2A685218002B06DBE8884343206977
S31500000740415A93FBF1F398B21080A36F0137197CDD
S31500000750FAB202369142E1D8002003B0F0BDC0469D
S31500000760F0B5836F00221E7C002440F2640C4FF625
S31500000770FF754EB31B685600B6189B195E88CB886A
S31500000780076973438E880134B3FBF6F3BB520369E2
S3150000079046699F5A0B7AE4B27B4393FBFCF3B35250
S315000007A006690B689F5AB35A7B43B3FBFCF3B352FB
S315000007B00F7A2B407B43B3FBFCF34669B352836F3E
S315000007C002321E7CA642D5D80020F0BDC18500208D
S315000007D07047C04610B570B145F243530268C5F282
S315000007E04F439A4205D1C36F18689B68DB689847E8
S315000007F010BD0720FCE70120FAE7C04610B504004B
S31500000800C8B145F243530268C5F24F439A4210D12C
S3150000081044F28C13816FC2F200031A78097C521AD3
S315000008201A70C36F18689B689B69984700232360FA
S3150000083010BD0720FCE70120FAE7C046F0B5DE460A
S315000008404E4657464546894644F29011E0B5C36F79
S31500000850040018689B6883B09B68C2F20001984741
S3150000086041F27073984200D1B7E10233984200D149
S31500000870B3E18023A66FE158337C73B300230022D3
S315000008800020002540F2000B40F20108CA465E0037
S31500000890B4465026E76F00957F689C44BF5D0F7194
S315000008A0E76F7F687E79B146012E00D1C4E0A56965
S315000008B0EF18ED5A05B93880A66F0132377CD5B2EC
S315000008C006310233BD42E2D33FB153462BB1A26893
S315000008D0E36851460A604B60A66FB57E002D00D1D5
S315000008E0C7E144F2001000230021C2F20000028892
S315000008F001319B1889B29BB20230A942F7D31A0084
S3150000090001339BB29846971C131DD01CBFB29BB2F5
S3150000091080B244F21019C2F20009494609788C46A1
S3150000092044F214116546C2F200018D54454640F268
S315000009300808B27E4A554546E26F52685279AA4384
S31500000940012A00D169E1012240F22508CA55F2695F
S31500000950454657682422BA5C7F5D7A43D2B20A5470
S31500000960B2B144F29010C2F2000007780588CF5465
S315000009705F1CBFB22D0ACD5547889D1C8078ADB24D
S3150000098048559200D81C80B23F0A9B180F549BB260
S31500000990327C002A00D116E10022CA54307C9A1C0F
S315000009A001339BB292B2C8541300002800D10AE169
S315000009B0002040F22008009633E0E268EA40012574
S315000009C02A40CA54A7694200BF5C5D1CADB24F55B0
S315000009D0A7699D1CBF5AADB23F0A4F552769DD1C5A
S315000009E0BF5CADB24F5527691D1DBF5AADB23F0A58
S315000009F04F555F1DBFB2BA4667699D1DBF5CADB25C
S31500000A00BB4657465E46CE5566690130B25A073335
S31500000A10120A4A55009A9BB2157C82B2954200D8BA
S31500000A20D1E00500203DC8D54246E568121A95403A
S31500000A30A268C2402A43C2E76646A06F0068805D8E
S31500000A4044F29016C2F20006B446A6694000F718B2
S31500000A50F65A60440088002E00D12CE70D705D46E2
S31500000A604D702669A569F65AED5AB4464FF6FF76DB
S31500000A706544B5426BD86669F65A854269D25E46C8
S31500000A802C27256AEE52E569EE180096ED5AE65DCA
S31500000A90AE4276D84D464D80258EE65DAE4200D2FA
S31500000AA0B0E01500203D00D5DBE00127AF4045460C
S31500000AB09540A6682E43E5683D43A660E5600D783F
S31500000AC000954D78E78D002F00D1F5E6009EB446DF
S31500000AD06544AF00B946676A6D004F44BC46019550
S31500000AE0203E00D580E03700E668FE4037004646E7
S31500000AF03E4000964646374255D167463E68019DC0
S31500000B0036183E60A76A7E5B01367E53A76AE68D7D
S31500000B107F5BB74200D2CFE6A7694D46BC46676AFF
S31500000B2001327F596546B7FBF6F7019E0631AF5392
S31500000B304D46666A009F02337751A66A019D775338
S31500000B40A66FD5B2377CBD4200D2A0E6BCE6002532
S31500000B50B8E7AD1BADB2A84216D25E46E569EE52C5
S31500000B602D26256AA65DEF18ED5AAE4247D85D469A
S31500000B704D801500203D0DD520254746AD1AEF4086
S31500000B800AE0009E013535804D88012D89D015007B
S31500000B90203DF1D44746AF4045469540A668AE4352
S31500000BA0E568BD4389E75F4666463760A66A019DEC
S31500000BB001327753A66FD5B2377C06310233BD4278
S31500000BC000D264E680E6624648460132027062461A
S31500000BD00020CA5401339BB2CB5C03B0F0BCBB46C9
S31500000BE0B246A946A046F0BD2027009D7E1BE768B9
S31500000BF0B7400097A768EF40009D2F4377E7013580
S31500000C003D80C1E7E669F718F65AB5422ED85D462B
S31500000C103D804D80A569E852B6E70022CA55F269C3
S31500000C2057682422BA5C0A54002A00D1B0E644F27E
S31500000C309010C2F2000007780588CF545F1CBFB23F
S31500000C402D0ACD55012A08D047889D1C8078ADB263
S31500000C504855D81C80B23F0A0F5452009B189BB2CD
S31500000C6096E620250127AD1AEF4020E701363E80A3
S31500000C708AE703200423022740F20108002248E6FF
S31500000C800023036000207047FF2301200B4098409B
S31500000C904FF6FF73034002B91B040022C4F204029C
S31500000CA09446090A4901614400208B607047C0469A
S31500000CB0F0B5DE4657464E464546E0B5EFF31082A0
S31500000CC0012383F3108844F2143BC2F2000B5B4607
S31500000CD01B6833B940F60051C4F20401CB704033AF
S31500000CE0CB705B4659461B6801330B6082F3108854
S31500000CF0038800224BB380235B029946224B40F6C1
S31500000D00000440F2FF0C9846C4F204044368D10084
S31500000D105B1861469F881E683B0A0F4049461B01C7
S31500000D200E420AD0D91989008A46454609592940F2
S31500000D3055462951414631402951DB199B001E5128
S31500000D400132018893B29942E0D8EFF31082012371
S31500000D5083F310885B461B6823B15B4659461B68C4
S31500000D60013B0B605B461B6833B940F60051C4F289
S31500000D700401CB708033CB7082F31088F0BCBB4685
S31500000D80B246A946A046F0BDFFFFFEFF45F254233A
S31500000D9010B5C5F24F0303600800FFF789FF002076
S31500000DA010BDC04610B50800FFF782FF002010BD39
S31500000DB070B582B001910092042244F2000182567D
S31500000DC0C2F200019400655846F20001C032C4F236
S31500000DD00001920054581D4E34405450042448F2E9
S31500000DE0000245F200410457C4F200011443CA89C7
S31500000DF09442FCD008220A70019A0AB1019A6A60EC
S31500000E00009A0AB1009AAA60EA783F2114008C433E
S31500000E10802C18D03F2A00D8EB8145F200431822D7
S31500000E20C4F200031A70042346F200028021C3565E
S31500000E30C4F20002C0339B009858490401430020C5
S31500000E40995002B070BDAB81E7E7C046FFFFFFFED9
S31500000E500620704706207047042346F200028021D0
S31500000E60C356C4F20002C0339B009858490401439C
S31500000E70995000207047C046042346F20002C3562C
S31500000E80C4F20002C0339B009958024801409950B1
S31500000E9000207047FFFFFFFE042244F20003825643
S31500000EA0C2F200039200D35800220A604A60DA7840
S31500000EB03F2A0DD940F200128A60D889013A0240D1
S31500000EC03F20CA60DA788243802A07D00020704724
S31500000ED0802252028A60DB89CB60F7E780225202C9
S31500000EE00A609B894B60F1E7062070470620704731
S31500000EF0042330B5C35646F200011A00C032C4F2CC
S31500000F00000192005458064D9B002C40545044F268
S31500000F1000020021C2F2000299500160002030BD9B
S31500000F20FFFFFFFE042346F2000270B5C356C4F26B
S31500000F300002C0339B009C581E4D2C409C5004223E
S31500000F4048F2000345F200448256C4F200041A43F4
S31500000F50E3899A42FCD00B00FF26DA781C003F2A70
S31500000F6005D9DA8932401502521992B2DA81A2788D
S31500000F7010333F2AF1D845F2004308220424C4F274
S31500000F8000031A7044F200020457C2F20002A400E1
S31500000F90A15018221A70042346F200028021C3567B
S31500000FA0C4F20002C0339B0098584904014399508B
S31500000FB0002070BDFFFFFFFEF8B544F29413C2F2A5
S31500000FC000031A7804000D00002A32D06B681B78E3
S31500000FD05BB2002B52DB44F200069A00C2F2000616
S31500000FE0B258082022BB23712D68DDB12B00FF27E4
S31500000FF0DA7819003F2A05D9DA893A401002121820
S3150000100092B2DA818A7810333F2AF1D845F200434A
S315000010100822C4F200031A700422A2569200B550A8
S3150000102018221A7044F200330020C4F2544323609D
S31500001030F8BD01271F70EFF3108187F310884EF279
S315000010400003C4F20103DA690D480240DA61DB6984
S3150000105081F3108844F20006C2F2000680220021C5
S31500001060300001F0AFFE45F20043C4F200035E60BB
S315000010701F736B681B785BB2002BACDA0B20D7E7CB
S31500001080FFFFBFFF0379022B08D0836F05201B7C6F
S31500001090013B5A1E93415B421840704741F2707003
S315000010A0FBE7C04610B5802401518C2142508822AE
S315000010B08350002010BDC046F8B544F2A415836FD6
S315000010C0C2F200051A7C04002F7822B1012F02D04B
S315000010D0C27900200ABB40F203361A6B53681968BE
S315000010E0238958001B1848889BB206402F48304376
S315000010F048800120C8818B81636A4B6042F22003DD
S31500001100C4F208038B60012F38D0A379092B3FD096
S31500001110936810685B68984700B1F8BD40F20336E3
S31500001120A36F5A6B53681968238958001B1848889F
S315000011309BB206401E48304348800120C8818B81FF
S3150000114042F22403A06AC4F208034B608860287840
S31500001150012826D0A0792389092802D058001B1817
S315000011609BB28B81A36A8B6042F22403C4F208030C
S315000011704B60936810685B689847CEE70D4B8F818C
S315000011804B60936810685B6898470028C5D1C5E72F
S3150000119023898B81936810685B6898470028BCD1C7
S315000011A0BCE7083588818D604B60E2E700A8FFFF49
S315000011B01890FFFFA841002070B5437904003BB9A1
S315000011C042F20003C4F208031A78920700D494E0AE
S315000011D02379032B00D1A4E07C2244F21833A256D3
S315000011E0C2F200039200D4507D22A2562000920043
S315000011F0D4507E22A2569200D450FFF75DFF0028FD
S315000012007AD16379002B00D07EE042F200030621FA
S31500001210C4F208031A788A431A70EF22A379113BA5
S3150000122013425ED05821963AA25C615C42F20003FA
S31500001230C90192010A433F21C4F208031D780D40FB
S315000012402A43D2B21A70202237255E78A25CAA43BE
S3150000125035402A435A70752233269D78A25CB543E1
S3150000126032402A439A70A279092A5DD01F225A7108
S315000012701A683C490A401A601A68520052081A60F5
S315000012808022996852020A439A60802299689202E3
S315000012900A439A6080229968D2020A439A605A23C6
S315000012A0E25C42F20003C4F208031A735B22A25CFA
S315000012B05A735C22A25C9A735D22A25CDA735E2288
S315000012C0A25C1A745F22A25C1A756022A25C5A752F
S315000012D06122A25C9A756222A25CDA756322A25C24
S315000012E01A7602232371237142F200030121C4F20C
S315000012F008031A780A431A7070BD1B78DB0700D4FE
S3150000130066E741F27070F7E742F200030621C4F285
S3150000131008031A780A431A701A7805398A431A702C
S315000013207BE741F27170E7E7802259711968D205AF
S315000013300A431A608022196812060A431A6080223C
S31500001340996852020A439A609A6807490A409A6065
S315000013509A6806490A409A609A6805490A409A605E
S315000013609DE7C046FFFFFFBFFFFFFDFFFFFFFBFF3F
S31500001370FFFFF7FFF0B5DE4657464E464546E0B559
S31500001380038985B0002B00D1ACE0002640F20008AE
S31500001390002300240DE0012201340A7040F20C0CF7
S315000013A001330289033699B2E044B6B28A4200D8C4
S315000013B08FE00269D118D25C002AECD14269710033
S315000013C0894692460025D25CB346019503940021D6
S315000013D04C46554616009946320001230A4101271C
S315000013E01340174247D18379012B60D0C26B9623F5
S315000013F0125BC35A94465B084746FF224D4402954A
S31500001400456AEF59BF0A17404FF6FF7201377B4313
S31500001410DB0813406246D21A3B01DB1B7427DB0054
S31500001420C75DDB083B4192FBF3F263009C4640F24A
S31500001430FF3365442F683B40D3182ED440F2FF3A61
S3150000144053453BDD01238B40029AF318137040F29B
S31500001450FF33456A65442F68BF0ABF022F60426AA0
S31500001460624415682B4313604B4645690122EE5CC6
S3150000147033000B411340019A013194469C44634664
S31500001480023401930329A7D162465E464B46039C6C
S31500001490032A83D10169C9187DE701238B40029D88
S315000014A0F3182B70456A002365442F68D4E7C26A97
S315000014B09333C35A125B5B0894469DE7002ACBD14F
S315000014C001328A40029DB2182A70456A65442F6827
S315000014D0C2E7A24206D005B0F0BCBB46B246A9465A
S315000014E0A046F0BD0123C371F5E7C046037941F27A
S315000014F07170033B5A4253415B4218407047C046E5
S3150000150070B50379022B5CD0C379002B56D05023DB
S31500001510846FE35C012B09D002B3012A36D0022A7C
S3150000152009D18379012B4FD0002070BD022A60D0EB
S31500001530A2B1012A2AD0032AF6D18379012BF3D14D
S315000015400389002BF0D00023C26ED25C01330A80DF
S3150000155004899AB202319442F6D8E5E78379012BE1
S31500001560E2D1038900240026002BDDD000230D19CB
S31500001570826AD218125BEA520233062BF8D1013680
S315000015800289B3B206349A42F0D8CDE78379012BAB
S31500001590CAD1038900240026002BC5D000230D19CB
S315000015A0C26A1219D25AEA520233062BF8D1013610
S315000015B00289B3B206349A42F0D8B5E741F27270A6
S315000015C0B3E741F27070B0E7038900240026002BD0
S315000015D0AAD000230D19026BD218125BEA5202330D
S315000015E0062BF8D101360289B3B206349A42F0D8F6
S315000015F09AE7132099E7C04630B50379022B1BD032
S31500001600C379B3B1032382791340012B01D00020A3
S3150000161030BD0389002BFAD00023426B0C889D0055
S3150000162052195480013304899AB202319442F4D893
S31500001630EDE741F27270EBE741F27070E8E7C04601
S3150000164010B50400002836D045F255330268C4F2BE
S3150000165054339A4213D144F2DE22C2F20002017AD6
S3150000166013885B1ADBB21380032280790240012AB9
S3150000167007D0002083B100232371236010BD07200B
S31500001680FCE744F2B420C2F200000288521AD2B239
S3150000169002800020002BEED1A36F1B6B18689B689D
S315000016A01B6A98470028E6D1A36F5B6B18689B6896
S315000016B01B6A9847DFE70120E0E7C04610B50379CB
S315000016C00400022B01D0002010BD42F200031121BC
S315000016D0C4F208031A684A401A603C23826FD05647
S315000016E001F074F93D23A26FD05601F06FF93E2345
S315000016F0A26FD05601F06AF901232371002363819A
S31500001700A381E0E7F0B54746CE4680B507AC24781E
S315000017108046072C00D16DE05400A518A44644F27B
S31500001720A414C2F20004A1460126ED002435CF0020
S31500001730581C4D442C884443A7425FD301360235DA
S315000017400B2EF7D144F2A4156446C2F20005A94651
S31500001750A418E4004C440A2540F20B09248F4443A4
S3150000176044F2A416C2F200066244B44697007A19FF
S3150000177015001032520062445288403542436D00D3
S31500001780D210654494464F44B146604640377F00C8
S315000017904F446D887E888A1A761B7243E410241A99
S315000017A092FBF4F25219062B10D891422AD30B0B56
S315000017B053434FF6FF74A34208D944F2A4130122FF
S315000017C0C2F200039A724FF6FF7214E04FF6FF73EF
S315000017D04A43120B9A4218D9012342465B421380B0
S315000017E044F2A4130122C2F200039A72C0BCB946A5
S315000017F0B046F0BD002243461A80F7E73500B146F1
S31500001800013DADE7130B4B43D3E792B2F3E7C04676
S31500001810F0B5DE4657464E4645467423E0B5C35CF2
S315000018208FB004938379040007930289002A00D1BC
S3150000183012E1984600230293059344F2A41300276D
S315000018401100C2F200030693059BFF209C46626AC4
S315000018500025624413688C469B0A18408246431C46
S3150000186008AE40F2FF315059043508400100594393
S315000018700801401A0499C000C84001C60C2DF0D1D9
S3150000188043466146012B2FD0092B0DD0059B01370E
S315000018900C330593029B06330293BBB2994200D8E0
S315000018A0DAE0A3799846CFE7059B626B7900D618F4
S315000018B07588D25A2D04069B1543A26A895A1A784E
S315000018C0022A00D1CFE07180A28B012A0AD9B5FB8A
S315000018D0F2F3ED1A73881B04B3FBF2F35B19338042
S315000018E01B0C73802189D1E7029BE26A98469044DB
S315000018F0454606225E1B33004244B94616001F00C9
S31500001900A36A5B19D95B069B1B78022B00D19BE06F
S3150000191029800235AE42F3D14F460A9A089B91467A
S31500001920A28B9C46B800099B002ADBD0626B266B13
S315000019301118105A4A8812040243029882464046F9
S315000019400588564435804088B346C000C018372302
S315000019508001B0FBF3F30020634509D960464FF6DA
S31500001960FE7A1B1ADB084FF6FF70534500D898B273
S315000019705B465880434640F249089B88DB004B444F
S315000019809B01B3FBF8F80023C4450CD243466646D8
S315000019909B1BDB0898464FF6FE7C4FF6FF73E0452F
S315000019A001D843469BB25E46B380E66EF6190396AF
S315000019B02E1A0B96EE1A0C96C61A0D960BAEB44658
S315000019C00EAEB04666469C463368002B01DA5B4293
S315000019D033600436B045F7D10B9E6346B2460C9E83
S315000019E0B1460D9EB0464E467600B24524DA4646CE
S315000019F07600B346C3445E46F60FB446DC446646FC
S31500001A007610B24518DA2B1803254FF6FF7083427D
S31500001A1001DD4FF6FF734B80039B1D70A08BB2FB5D
S31500001A20F0F3D21A4B881B04B3FBF0F39A180A8022
S31500001A30120C4A80218929E7C14502DAEB180525EF
S31500001A40E3E70625C318E0E7079B28000093049AFE
S31500001A505346FFF757FE5CE70FB0F0BCBB46B246F5
S31500001A60A946A046F0BD079B049A0093B01C5346B6
S31500001A70FFF748FE28E7C04670B5037904000D005D
S31500001A80022B42D0836F1B7C002B3CD10379032BA6
S31500001A9008D0A38BC3B10323A2791340012B16D020
S31500001AA0002070BDC379012B21D02000FFF7B0FEC6
S31500001AB0E37923B90222A3799343012B1FD0012393
S31500001AC02371A38B002BE6D141F27270E9E72389DB
S31500001AD0002BE5D00023626B99005218528801331F
S31500001AE02A8021899AB202359142F4D8D8E7838BAD
S31500001AF0C28B9342D9D00BD201338383D5E7200022
S31500001B00FFF738FCDBE70520CBE741F27070C8E74A
S31500001B108283CAE710B503790400022B3AD0C37951
S31500001B20012B07D00023E3712379032B18D041F250
S31500001B30727010BD0389002BF4D0002300222169A6
S31500001B409800CA546169CA54A16901334250208978
S31500001B5099B28842F3D80023E3712379032BE6D1A7
S31500001B60A36F1B7C5BB10222A3799343012B0DD09B
S31500001B70E27901232371012AD9D10020D9E7200077
S31500001B80FFF746FEE279002AF3D1ECE72000FFF7E3
S31500001B90F1FBEDE741F27070CBE7C046F0B5574672
S31500001BA0DE464E46454645F25533E0B502688DB0F1
S31500001BB0C4F254330F0001909A4201D100F091FC17
S31500001BC003234A791340012B00D1D0E10023019968
S31500001BD00B718F677A7903331340012B00D1D5E15E
S31500001BE00B0009891B7A44F2DC2244F2DE25C2F29C
S31500001BF000029046C2F200052E88019CB04442467F
S31500001C00226144F2D02244F2D820C2F20002944665
S31500001C1044F2B822C2F2000030186061C2F200023B
S31500001C20B00060449446A061700080198000604452
S31500001C30606268209B19DBB223522B803B7801201F
S31500001C406371FB8CE3830023A3832833FB5C43404F
S31500001C50E3717B79092B01D1083BE3710823202628
S31500001C603879019CC0000340A355787940F2750C81
S31500001C7080010343A355582378786246E054B87828
S31500001C800133E054F87C0133E054387D0133E054ED
S31500001C90787D0133E054B87D0133E054F87D01339B
S31500001CA0E054387E0133E054787E0133E054B87E48
S31500001CB00133E054F87E0133E054387F0133E054B9
S31500001CC07B791E3EA3713B793340A3547879400754
S31500001CD0C00F0343A354B87900010343A3543B79CF
S31500001CE0002B4CD0012B04D0022B00D182E1032B18
S31500001CF002D17420019A1354002945D040F2000CF9
S31500001D000020E346002300264246A946BC46019928
S31500001D1014E04C6A1579A0465479AD02528824061F
S31500001D202C4322434446E25140F2060801330C8913
S31500001D309AB2C3440C30944224D90A69D6544A69EB
S31500001D409F00D6548A696446D65162466479126AFF
S31500001D505A44092CDDD0072C08D05479157924066D
S31500001D605288AD024F6A2C4322433A504A6A1458AD
S31500001D70121854604A6A145812189460D4E77433DF
S31500001D80E654B9E767464D463C2340F23D087C22BF
S31500001D90019CF9563E26A1544246B9564032A154FA
S31500001DA0B9570132A154F8562200022100F01CFE58
S31500001DB0434640F20008F8562200022100F014FEC5
S31500001DC022000221B85700F00FFE84234246E25457
S31500001DD022892B889A4200D1F7E27B79072B11D012
S31500001DE042F2000340F20021C4F208031A681E20E2
S31500001DF00A431A601A680139FF390A431A60FF3923
S31500001E0000F08EFD42F20009C4F208094B461A683A
S31500001E108023DB0313434A461360802312681B04A6
S31500001E2013434A4613601F235371936AC04A44F210
S31500001E30A41B13404A469362936A402293434A4640
S31500001E4093627B79C2F2000B072B04D05B461878AD
S31500001E50002800D1D3E042F20003C4F20803196857
S31500001E60B44A402011408022D2020A431A605968BF
S31500001E70B14AB24C1140802252050A435A609A6A0E
S31500001E80AF490A409A629A6AAE490A409A6280222B
S31500001E90996A92050A4380219A629A6A8A439A62EB
S31500001EA09A6A02439A624CF2000240F2A430C4F2EB
S31500001EB07E0216585A6858685D688000800F84460E
S31500001EC0186892002040186043F60070644643F29A
S31500001ED0006C3602920F360E5201B21A024392B2CB
S31500001EE09A85F200901BC000801B64018011001BC4
S31500001EF06446204380B2D88544F600009219AD00AE
S31500001F00D200AD0F921992116D01521B024392B28B
S31500001F101A8680221868D20302431A605B4601982B
S31500001F20012243650023027183814381FA6A42508C
S31500001F308C22396C81500021043A83500832815436
S31500001F40023283524833FA5A4C33C2524A3BFA5A47
S31500001F504C33C25245F25533C4F254330360404603
S31500001F600DB0F0BCBB46B246A946A046F0BD44F251
S31500001F70B4232422C2F200031B888A5C9B18DBB2BE
S31500001F80022B00D822E640F20308E8E744F2B42028
S31500001F9044F2A821C2F200000288019C53009B185B
S31500001FA05B00C2F200015918A16244F29C21C2F200
S31500001FB000015918E16244F29021C2F200018C46F8
S31500001FC044F28821C2F2000163448C4623639300E5
S31500001FD063446363242344F2A015FB5CC2F200054C
S31500001FE055199A18D2B2028064202381E566190039
S31500001FF02252F8E50020019A7233D0547CE601257E
S315000020001D70136844F2000213434A4613601368B6
S315000020104D4A40F2000A13404A46136013684B4A81
S315000020204E4613404A461360802392685B02134370
S315000020304A4693609368464A13404A4693609368BB
S31500002040444A13404A4693609368434A13404A46BB
S3150000205093601268374B1A408023DB0213434A46CB
S31500002060136041F600435A4653604B468022DD60BA
S3150000207018619B6A380013434A4693625B46039392
S315000020801368364A13404A461360802312689B023F
S3150000209013434A46136043465A46019C0293C021A5
S315000020A0336809030B4333600123994653462025C1
S315000020B0002740F202088246049305922000FEF7AC
S315000020C0FBFF43464A46237133781343DBB2337032
S315000020D02379032BFCD15B46013D1B89ADB2FF186A
S315000020E0002DEBD1059A049B7F09978135685046F0
S315000020F09A46104B40F2010C1D408023DB022B4315
S31500002100E24433605346042B2AD0012B00D1EBE185
S315000021105346022B00D115E240F600053368023221
S315000021202B433360802335689B022B433360B6E72D
S31500002130FFFFFFDFFFFFF3FFFFFFFFCFFFFFBFFF45
S31500002140FFFFFFF7FFFFFFBFFF7FFFFFFFFFFEFF62
S31500002150FFFFFDFFFFFFFBFFFFFFF7FFFFF7FFFF9F
S31500002160029BE74A9846736842F2000A134073607E
S31500002170B36AE44AC4F2080A1340B3628023B26A1F
S31500002180DB051343B362E04B40F2000904931F23BF
S31500002190029343465746019C059306903B68DB4AEB
S315000021A013403B604B46072B00D9ECE0029BBB85F6
S315000021B080233868DB0303433B6001232025002688
S315000021C040F202089A462000FEF776FF4346524642
S315000021D023713B781343DBB23B702379032BFCD18D
S315000021E05B46013D1B89ADB2F618002DEBD140F2DE
S315000021F0010C049B76091E8002330493029BE14482
S3150000220020339BB202934B460C2BC7D1059B40F261
S31500002210A83298464CF20003C4F27E039A58069FF1
S31500002220089240F2A4329B584821DBB205938223E0
S315000022305B4499465B46C326029318234A464FF6EB
S31500002240FF70B946183549420493F6040795049C75
S31500002250089BC025E340DCB22B40802B00D1A1E0D7
S31500002260C02B00D1AAE0002B00D19EE040F28013E3
S315000022707F252C401B199624029D2404AB82B4FBB7
S31500002280F3F306936B4640F280741F8B44F2A4135B
S31500002290B7FBF4F73C00C2F200039C4633346400FB
S315000022A0644464880994AC89099D23039C4644F2DE
S315000022B0A4133C00C2F200039A463434640054442A
S315000022C06488AA46631B3C01E41B0993E401069B50
S315000022D0A4B21B1B099CF027634340F28074B3FB36
S315000022E0F4F353449BB29CFBF3F303409C46130068
S315000022F062469C46844C079DFF03238853431B0B71
S3150000230063520340B7FBF3F36353F023DB039A46B0
S3150000231057440234B742F0D16246AA46039D548818
S315000023201388AF8CE31A7B436D8C18317F1BB3FB8C
S31500002330F7F3E41A0023039F14807B84D48A3F8F2B
S31500002340938AC51BE31A6B43039DED8E7F1BB3FB7C
S31500002350F7F3E4180123D482039C5B422387049B92
S315000023601834083B0493534618330793029B03948F
S31500002370023302931832182900D068E702235A461E
S315000023804F46137067E5C0227B68920513437B6056
S315000023908023B86A1B050343BB62029B803B9BB24A
S315000023A0BB8505E740F2002362E7059D40F28013F6
S315000023B04F2D00D85CE70133FF3359E7059D40F206
S315000023C00013A02D00D953E7F5E744F2A00542F625
S315000023D0647144F298100423C2F20005C0F20001B1
S315000023E0C2F200002B60FEF7D1FC01210A2000F0AA
S315000023F097FA002342F6647144F29810C0F601433E
S31500002400C0F20001C2F200002B60FEF7CBFC44F2E2
S315000024109810C2F20000FEF733FCEFF3108101239F
S3150000242083F3108846F6FC730820C4F204039A6806
S3150000243082439A609B6881F310880AAD2900019C4B
S31500002440A36F1A6B536841CB41C10A9B2900994679
S3150000245043460A93936810681B689847804678B984
S315000024604B4629000A93A36F5A6B536841CB41C16F
S3150000247043460A939368290010681B68984780466C
S3150000248042F20001C4F208010B68214A13402022DF
S315000024900B600B6813430B604EF2000344F2A0324C
S315000024A0C4F20103186A0723C2F20002050E12687D
S315000024B01D40AA40000A0340DA4048F63F2044F295
S315000024C04023C0F2F710C0F20F03B2FBF3F38242CF
S315000024D024D80A680F48013B0240DBB20A60CB7081
S315000024E07BE440F20E083AE540F6000533682B43DC
S315000024F033603368084D02322B403360CFE5C04667
S31500002500FFFFFFCFFFFFFFDF0E420020FFFFBFFFF1
S31500002510FFFBFFFFFFCFFFFFFFFFFDFF1A00213A82
S315000025201F2A13D91A00413A3F2A1BD80A681248B3
S315000025309B08024042F20000013B0243DBB20A6004
S31500002540CB704AE433680D4D2B40D1E70A680A4840
S315000025505B08024041F20000013B0243DBB20A6025
S31500002560CB703AE443F200000A68DB08013B024301
S31500002570DBB20A60CB7030E4FFCFFFFFFFF7FFFF4F
S3150000258010B5EFF30380103840B200F01FFA10BD0B
S3150000259010B5EFF30380103840B200F017FA10BD03
S315000025A0882370B50400C05882B06D46002853D009
S315000025B02B00020042CA42C30023037042F200030A
S315000025C02022C4F20803597F0A4204D00121017077
S315000025D0597F9143597742F20003C4F208031A7FE8
S315000025E03F2A12D91B7F5BB2002B29DB42F2000384
S315000025F0C4F208031B7F5B061DD442F200032021B0
S31500002600C4F208031A7F0A431A7703232A78237130
S315000026108233E2540733E35843608023E35803B11F
S3150000262098478823E3580BB103CD03C30023638186
S31500002630A38102B070BD0422037813430370DCE764
S31500002640022203781343037042F20003C4F2080324
S315000026501B7F5B06D1D5EEE72800ADE710B5EFF39B
S31500002660038344F21832103B5BB2C2F200029B00B5
S315000026709C58EFF30380103840B200F0A7F9628946
S31500002680A3899A4203D084230122E25410BD20007C
S31500002690FFF786FFFAE7C0464EF20002AA2110B500
S315000026A0C4F2010204282ED0535CDB06DC0F002B9B
S315000026B0FADB54544EF20002AA21C4F20102535C22
S315000026C0002BFCD1A033D35C98421BD03623D35CBD
S315000026D03BB94EF200023C21C4F20102535CDB0717
S315000026E0FCD54EF20002A021C4F20102535CDB06C7
S315000026F0FCD450544EF20002A021C4F20102535CF5
S31500002700DB06FCD410BD535CDB06FCD4012353541A
S315000027104EF20002AA21C4F20102535CDB06FCD48D
S31500002720F0E7C0464EF20003262244F2B001C4F29E
S315000027300103985C1B6A8000C2F2000141585B01EC
S315000027405B0F44F2A032D940C2F20002116070471A
S315000027507047C0464EF2000340F2FE325549C4F2BD
S31500002760010370B599524CF2000243F6C87101207C
S31500002770C4F27E02505444F2B00446F60042C2F25D
S315000027800004C0F2DC22226041F20022C0F27A028A
S31500002790626048F2000241F60031A2602261262200
S315000027A0C0F2B701E160995C1A6A8900615852016A
S315000027B0520F44F2A035D140C2F20005296040F222
S315000027C0134200219954A2220931995440F28042C1
S315000027D09A5C2AB940F281429B5C9B07002B63D02E
S315000027E04EF2000640F28043C4F20106F25C002A73
S315000027F04ED04EF20003002240F28141C4F20103A2
S315000028005A5401395A544EF20002A5230521C4F246
S315000028100102D154053BD35CCBB13623D35C1BB943
S315000028203731535CDB07FCD54EF20002A021C4F21F
S315000028300102535CDB06D80F002BFADB50544EF234
S315000028400002A021C4F20102535CDB06FCD44EF266
S31500002850000600223223C4F20106F2543C32B35C75
S315000028601B07FCD540F2001303223362DA3BF25415
S31500002870F25C336A9200A2585B015B0FDA400120DA
S315000028802A60FFF709FF40F2FE330B4AF25270BD91
S315000028900132F2540121C82000F042F840F2804291
S315000028A0B35C012BFCD1A4E740F2E830FFF750FF00
S315000028B0A9E7C04603A5FFFF00A5FFFF70B544F2D8
S315000028C0000428230025C4F20404E5540121C8208D
S315000028D000F026F824232422E554A35C002BFCD127
S315000028E00221A35C24200B43A35444F20002C4F249
S315000028F00402135C9B07D90F002BFADB2223D15469
S3150000290044F200022221C4F20402535C002BFCD1E3
S3150000291070BDC0467047C04601380028FCD17047DC
S3150000292044F2A0324CF6002370B54143C2F20002D5
S315000029301468C3F69A330D00B3FBF4F4080040F2B2
S31500002940E8320023002100F00FFA31B9B0FBF4F0B1
S31500002950800808B1FFF7E0FF70BDA000B5FBF0F0FE
S3150000296040F2E8320023002100F0FEF90029F0D001
S3150000297001204042FFF7D0FFEEE7C04646F20003D3
S3150000298040F2201270B500240126C4F200039D5ABD
S3150000299020329B5A1D402B00E3401E420AD044F2CF
S315000029A0E022C2F200029446A30063441B680BB106
S315000029B0E0B2984701340D2CEDD146F2000340F207
S315000029C03012C4F200039D5270BDC04646F20003A9
S315000029D0C0308000C4F20003C25802490A40C25007
S315000029E0C3587047FFFFFEFFF0B5C64690464EF24D
S315000029F00012FF240325CEF200029446220040F284
S31500002A0000370540ED008901AA400C40AC40830820
S31500002A109B0000B56344DE59810096432643DE5190
S31500002A2044F218334246C2F200035A50030046F2FB
S31500002A300002C033C4F200029B0099580C4C21409E
S31500002A4099509B58BFF35F8F1F220123024093408A
S31500002A504EF20012CEF20002944640F28012400975
S31500002A60800060448350036080BCB846F0BDC04619
S31500002A70FFFFFEFF46F200000023C4F2000042F60C
S31500002A80C462C0F200029A1812781AB11900C03155
S31500002A9089000A500133202BF1D1704730B5EFF38E
S31500002AA01081012383F3108844F298334000C2F268
S31500002AB000031A5A1AB11A5A013A92B21A521B5AFA
S31500002AC083B94EF2000242F6707340F2FE34C4F24D
S31500002AD00102C0F20003155B185A044B2B438343D3
S31500002AE09BB2135381F3108830BDC04600A5FFFF8B
S31500002AF070B5EFF31081012383F3108844F2983206
S31500002B004000C2F20002135A83B94EF2000442F6A4
S31500002B10707540F2FE36C4F20104C0F20005A35BF4
S31500002B202D5A2B434AF200552B43A353135A013314
S31500002B309BB2135281F3108870BDC04600BE704729
S31500002B4010B500F003F8FDF7E9FCFEE7F0B54EF628
S31500002B50005340F20005CEF20003C0F2000583B038
S31500002B609D600020FDF7C2FCFFF7F4FD6B460027D1
S31500002B70DC1D277001202378FFF7BAFFEFF31081E1
S31500002B80012686F3108846F6FC73C4F204039A689D
S31500002B903C4802409A609A6881F3108840F600012A
S31500002BA0C4F204010A68D207D20F22700A68D2075B
S31500002BB0D20F22700A68D207D20F2270EFF310816B
S31500002BC086F3108880229868520502439A609B68B3
S31500002BD081F310880120FFF761FF0120FDF786FCD5
S31500002BE040F60053284AC4F200039F801A802A68E0
S31500002BF0264941F2000051189960DA6046F2000257
S31500002C0040F22011C4F20002505244F2D84244F27B
S31500002C10C800C2F20002C2F200009E800021121A11
S31500002C2000F0D0F844F2800044F2B00243F22C01E6
S31500002C30C2F20000C2F20002121AC0F2000100F055
S31500002C40C9F844F2A80544F2AC03C2F20005C2F288
S31500002C5000035B1B9E10002B05DD002408CD01340C
S31500002C609847A642FADCFFF75DFDFFF727FE022034
S31500002C70FDF73CFCFFF7FEFE0020FFF74BFE03B01E
S31500002C80F0BDC046FFFFFFEF00A5FFFF00FCFFFF02
S31500002C9044F2CD430122C2F200031A7044F2CC433F
S31500002CA00278C2F200031A707047C046F8B542F6C1
S31500002CB07873C0F200031D6859682800FDF734FCDC
S31500002CC0E8BB44F2CD4444F2D04628000027C2F2C5
S31500002CD00004C2F20006FDF7F5FC78BB2378002B52
S31500002CE0FCD044F2D041002300222800C2F20001A9
S31500002CF02770FDF7A3FDB8B93368DB072AD544F280
S31500002D00E400012240F60D11C2F20000FDF7BCFFFF
S31500002D1033689B0714D544F2E400012240F60E11F5
S31500002D20C2F20000FDF7B0FF142040F2E831FFF7D1
S31500002D30F7FD2800FDF7C6FC0028CFD0FEE7FEE72A
S31500002D4044F2E400002240F60E11C2F20000FDF744
S31500002D509BFFE9E744F2E400002240F60D11C2F2BF
S31500002D600000FDF791FFD3E7F0B54FF6FF750400BD
S31500002D70CE462C40474615400E002900994680B5A0
S31500002D80130C0700000C61434543584363430C0C86
S31500002D905B19E4188C46A54203D980235B0298464A
S31500002DA04044230C61461B184FF6FF700840494605
S31500002DB056437943240489192018C918C0BCB9465A
S31500002DC0B046F0BD03008218934200D170471970D7
S31500002DD00133F9E7002310B59A4200D110BDCC5C4F
S31500002DE0C4540133F8E7FFFF4275696C74207769B4
S31500002DF074682052656E6573617320416476616EF6
S31500002E0063656420466C657869626C6520536F66FD
S31500002E107477617265205061636B616765207665C2
S31500002E207273696F6E20352E382E3000352E382E8F
S31500002E303000000000000805F8B5C046F8BC08BC24
S31500002E409E467047F8B5C046F8BC08BC9E4670471B
S31500002E50EC4000205C2E00000C2F0000804000207B
S31500002E60642E000001FFFFFFF4400020742E0000D6
S31500002E700C2F0000904000207C2E000002FFFFFF78
S31500002E80070000008C2E000000000000000001007A
S31500002E90080100000000010C0C0100000000010008
S31500002EA0000300000000010C080400000000010CF3
S31500002EB009040000040000000D09000004000000E1
S31500002EC00E090000000907070000000000000000CE
S31500002ED000000000000000000000000000000000EC
S31500002EE00000000029050000C50600003D0800009E
S31500002EF0D5070000DD060000E1060000FD07000022
S31500002F00F106000061070000CD070000B90F0000C0
S31500002F10250F0000B10D0000590E0000790E0000CB
S31500002F20510E0000550E0000990E0000F10E000033
S31500002F30E90E0000ED0E00009D1B0000B911000017
S31500002F40791A0000BD160000ED140000A51000005F
S31500002F504116000001150000F9150000851000005B
S31500002F60151B000001000000A0400020000000002A
S31500002F700100020008001000A8430020842F000072
S31500002F80E42E0000B02F000000000000000000004A
S31500002F9000000000020000030300FF000000000024
S31500002FA0BC2F000000000000000000000000000030
S31500002FB00000BD6B63050100C76C7005304400203E
S31500002FC0C82F0000382F000000000000010100009B
S31500002FD000000000000000000000003000000000BB
S31500002FE000000000000000001C3000000200040089
S31500002FF001000000912C0000502E0000682E0000F9
S3150000300000000000010203000000000000000000B4
S31500003010002D002800000000000000000000C20093
S31100003020070F0000D000070F00000000A2
S3150000302C0000101800000000000000000000000066
S3150000303C0000081000000000000000000000000066
S3150000304C000000000C010000BD0400008D0400000F
S31501010018FFFFFFFFFFFFFFFFFFFFFFFFFFFFFFFFE0
S31101010028FFFFFFFFFFFFFFFFFFFFFFFFD0
S70500002B418E
