S016000052413245315F50726F6A656374352E7372656368
S3150000000088440020050B0000E9090000010B0000F0
S31500000010010B0000010B0000010B0000010B0000AA
S31500000020000000000000000000000000010B0000BE
S31500000030010B000000000000010B0000010B000096
S31500000040FFFFFFFFFFFFFFFFFFFFFFFFFFFFFFFFBA
S31500000050FFFFFFFFFFFFFFFFFFFFFFFFFFFFFFFFAA
S31500000060FFFFFFFFFFFFFFFFFFFFFFFFFFFFFFFF9A
S31500000070FFFFFFFFFFFFFFFFFFFFFFFFFFFFFFFF8A
S31500000400FFFFFFFFDFCEFFFFFCFF0F00FFFF0F0028
S31500000410FCFF0F00FFFF0F00FCFF0F00FFFF0F00A8
S31500000420FCFF0F20FFFF0F20FCFF7F40FFFF7F40F8
S31500000430FCFF0D40FFFF0D40FFFFFFFF44F20800E9
S3150000044044F20803C2F20000C2F2000310B5834270
S3150000045005D040F20003C0F2000303B1984710BD77
S3150000046044F2080044F20803C2F20000C2F200039C
S315000004701B1A9A10D90F8918491010B529B140F2E4
S315000004800003C0F2000303B1984710BD10B544F253
S315000004902004C2F20004237873B9FFF7CFFF40F2BD
S315000004A00003C0F200032BB140F6B050C0F20000CA
S315000004B000E000BF0123237010BDC04640F20003D8
S315000004C0C0F2000310B54BB144F2240140F6B0501F
S315000004D0C2F20001C0F2000000E000BFFFF7C0FF5B
S315000004E010BDC04670B582B06B4601269D1D5C1DD1
S315000004F044F23C002A000021C2F2000000F064F839
S315000005002B881E421CD044F23C00002240F60D11FE
S31500000510C2F2000000F064F844F23C00220001211F
S31500000520C2F2000000F03EF823789BB144F23C0092
S31500000530002240F60E11C2F2000000F051F8D7E793
S3150000054044F23C00012240F60D11C2F2000000F018
S3150000055047F8E1E744F23C00012240F60E11C2F2F0
S31500000560000000F03DF8C3E710B538B94CF20003BF
S3150000057090220121C4F27E03995410BD0228FCD1B9
S3150000058040F63C5144F23C00C0F20001C2F20000C9
S3150000059000F0A8F8F1E7C04610B5FFF7A3FF00206A
S315000005A010BDC046FF2010B540F600040B0A0840F7
S315000005B019010918C4F2040489000B5900209B078D
S315000005C0DB0F137010BDC0460023C4F204039C4623
S315000005D0090A490161444B68002013807047C046F0
S315000005E0FF2301200B4098404FF6FF73034002B9EA
S315000005F01B040022C4F204029446090A490161441C
S3150000060000208B607047C046F0B5DE4657464E4622
S315000006104546E0B5EFF31082012383F3108844F2D8
S31500000620780BC2F2000B5B461B6833B940F60051EB
S31500000630C4F20401CB704033CB705B4659461B684D
S3150000064001330B6082F31088038800224BB38023AA
S315000006505B029946224B40F6000440F2FF0C984696
S31500000660C4F204044368D1005B1861469F881E6883
S315000006703B0A0F4049461B010E420AD0D919890090
S315000006808A46454609592940554629514146314031
S315000006902951DB199B001E510132018893B2994200
S315000006A0E0D8EFF31082012383F310885B461B68C2
S315000006B023B15B4659461B68013B0B605B461B68D2
S315000006C033B940F60051C4F20401CB708033CB70CD
S315000006D082F31088F0BCBB46B246A946A046F0BDE0
S315000006E0FFFFFEFF45F2542310B5C5F24F0303602A
S315000006F00800FFF789FF002010BDC0464EF2000239
S31500000700AA2110B5C4F2010204282ED0535CDB06E0
S31500000710DC0F002BFADB54544EF20002AA21C4F27D
S315000007200102535C002BFCD1A033D35C98421BD052
S315000007303623D35C3BB94EF200023C21C4F20102DF
S31500000740535CDB07FCD54EF20002A021C4F2010285
S31500000750535CDB06FCD450544EF20002A021C4F2D6
S315000007600102535CDB06FCD410BD535CDB06FCD4F3
S31500000770012353544EF20002AA21C4F20102535C33
S31500000780DB06FCD4F0E7C0464EF20003262244F214
S315000007900801C4F20103985C1B6A8000C2F20001E2
S315000007A041585B015B0F44F28402D940C2F2000259
S315000007B0116070477047C0464EF2000340F2FE32A9
S315000007C05749C4F2010370B599524CF20002002059
S315000007D043F6C871C4F27E02505444F2080446F649
S315000007E00042C2F20004C0F2DC22226041F2002282
S315000007F0C0F27A02626048F2000241F60031A2605D
S3150000080022612622C0F2B701E160995C1A6A89006A
S3150000081061585201520F44F28405D14040F213420E
S31500000820C2F20005296098540921A222995440F287
S3150000083080429A5C2AB940F281429B5C9B07002B5E
S3150000084068D04EF2000640F28043C4F20106F25C24
S31500000850002A53D04EF20003002240F28141C4F236
S3150000086001035A5401395A544EF20002A023C4F22D
S315000008700102D35CCBB13623D35C1BB93C21535C5C
S31500000880DB07FCD54EF20002A021C4F20102535C44
S31500000890DB06D80F002BFADB50544EF20002A021E3
S315000008A0C4F20102535CDB06FCD44EF200060022C1
S315000008B03223C4F20106F2543C32B35C1B07FCD56A
S315000008C040F2001303223362DA3BF254F25C336ADD
S315000008D09200A2585B015B0FDA4001202A60FFF705
S315000008E00DFF40F2FE330F4A0121F2524CF2000393
S315000008F043F6C872C4F27E03995470BD0132F254B5
S315000009000121C82000F042F840F28042B35C012B7E
S31500000910FCD19FE740F2E830FFF74CFFA4E7C04662
S3150000092003A5FFFF00A5FFFF70B544F200042823CE
S315000009300025C4F20404E5540121C82000F026F87D
S3150000094024232422E554A35C002BFCD10221A35CC2
S3150000095024200B43A35444F20002C4F20402135CA5
S315000009609B07D90F002BFADB2223D15444F2000255
S315000009702221C4F20402535C002BFCD170BDC04698
S315000009807047C04601380028FCD1704744F2840203
S315000009904CF6002370B54143C2F200021468C3F658
S315000009A09A330D00B3FBF4F4080040F2E83200235A
S315000009B0002100F04FF931B9B0FBF4F0800808B11E
S315000009C0FFF7E0FF70BDA000B5FBF0F040F2E832A3
S315000009D00023002100F03EF90029F0D0012040421A
S315000009E0FFF7D0FFEEE7C04646F2000340F22012C2
S315000009F070B500240126C4F200039D5A20329B5A8A
S31500000A001D402B00E3401E420AD044F24402C2F2CB
S31500000A1000029446A30063441B680BB1E0B29847FA
S31500000A2001340D2CEDD146F2000340F23012C4F22F
S31500000A3000039D5270BDC04646F200000023C4F27A
S31500000A40000040F68852C0F200029A1812781AB1D5
S31500000A501900C03189000A500133202BF1D17047AB
S31500000A6030B5EFF31081012383F3108844F27C0341
S31500000A704000C2F200031A5A1AB11A5A013A92B247
S31500000A801A521B5A83B94EF2000240F6A85340F29E
S31500000A90FE34C4F20102C0F20003155B185A044B7F
S31500000AA02B4383439BB2135381F3108830BDC0465A
S31500000AB000A5FFFF70B5EFF31081012383F31088C3
S31500000AC044F27C024000C2F20002135A83B94EF28D
S31500000AD0000440F6A85540F2FE36C4F20104C0F206
S31500000AE00005A35B2D5A2B434AF200552B43A35313
S31500000AF0135A01339BB2135281F3108870BDC0465E
S31500000B0000BE704710B500F003F8FFF745FDFEE79D
S31500000B10F0B54EF6005340F20005CEF20003C0F2E7
S31500000B20000583B09D600020FFF71EFDFFF744FE21
S31500000B306B460027DC1D277001202378FFF7BAFFDC
S31500000B40EFF31081012686F3108846F6FC73C4F293
S31500000B5004039A683C4802409A609A6881F31088B8
S31500000B6040F60001C4F204010A68D207D20F2270CF
S31500000B700A68D207D20F22700A68D207D20F2270F3
S31500000B80EFF3108186F3108880229868520502439D
S31500000B909A609B6881F310880120FFF761FF0120AE
S31500000BA0FFF7E2FC40F60053284AC4F200039F8098
S31500000BB01A802A68264941F2000051189960DA60C5
S31500000BC046F2000240F22011C4F20002505244F2F2
S31500000BD0880244F22000C2F20002C2F200009E80A7
S31500000BE00021121A00F064F844F2000044F20802F0
S31500000BF040F6B451C2F20000C2F20002121AC0F26C
S31500000C00000100F05DF844F2000544F20403C2F26C
S31500000C100005C2F200035B1B9E10002B05DD0024BD
S31500000C2008CD01349847A642FADCFFF7ADFDFFF781
S31500000C307BFE0220FFF798FCFFF7FEFE0020FFF781
S31500000C409FFE03B0F0BDC046FFFFFFEF00A5FFFF0C
S31500000C5000FCFFFFF0B54FF6FF750400CE462C40B2
S31500000C60474615400E002900994680B5130C07002B
S31500000C70000C61434543584363430C0C5B19E4186D
S31500000C808C46A54203D980235B0298464044230C38
S31500000C9061461B184FF6FF70084049465643794394
S31500000CA0240489192018C918C0BCB946B046F0BD3D
S31500000CB003008218934200D1704719700133F9E797
S31500000CC0002310B59A4200D110BDCC5CC454013348
S31500000CD0F8E7FFFF4275696C7420776974682052E3
S31500000CE0656E6573617320416476616E6365642029
S31500000CF0466C657869626C6520536F6674776172BD
S31500000D0065205061636B6167652076657273696FF4
S31500000D106E20352E352E3000352E352E3000000053
S31500000D2000000505F8B5C046F8BC08BC9E467047ED
S31500000D30F8B5C046F8BC08BC9E46704708000000DF
S31500000D40480D000000000000000000000000000048
S31500000D500000000001000000000001000801000082
S31500000D60040000000B01000004000000080200005F
S31500000D700000010000030000040000000D0900004F
S31500000D80040000000E090000000000000000000042
S31500000D90000000000000000000000000000000004D
S31500000DA00000000000000000010002000800100022
S30900000DB00000000039
S30D00000DB4BD0400008D040000DF
S31501010018FFFFFFFFFFFFFFFFFFFFFFFFFFFFFFFFE0
S31101010028FFFFFFFFFFFFFFFFFFFFFFFFD0
S70500000B05EA
